
lpc1758_freertos.elf:     file format elf32-littlearm
lpc1758_freertos.elf
architecture: arm, flags 0x00000112:
EXEC_P, HAS_SYMS, D_PAGED
start address 0x00010193

Program Header:
0x70000001 off    0x0001dfa4 vaddr 0x00025fa4 paddr 0x00025fa4 align 2**2
         filesz 0x00000008 memsz 0x00000008 flags r--
    LOAD off    0x00008000 vaddr 0x00010000 paddr 0x00010000 align 2**15
         filesz 0x00015fac memsz 0x00015fac flags r-x
    LOAD off    0x00024000 vaddr 0x2007c000 paddr 0x00025fac align 2**15
         filesz 0x000001bc memsz 0x000001bc flags rw-
    LOAD off    0x000241c0 vaddr 0x2007c1c0 paddr 0x00026168 align 2**15
         filesz 0x00000000 memsz 0x00000484 flags rw-
private flags = 5000202: [Version5 EABI] [soft-float ABI] [has entry point]

Sections:
Idx Name          Size      VMA       LMA       File off  Algn  Flags
  0 .text         00015fa4  00010000  00010000  00008000  2**3  CONTENTS, ALLOC, LOAD, READONLY, CODE
  1 .data         000001bc  2007c000  00025fac  00024000  2**2  CONTENTS, ALLOC, LOAD, DATA
  2 .bss          00000484  2007c1c0  00026168  000241c0  2**3  ALLOC
  3 .comment      00000070  00000000  00000000  000241bc  2**0  CONTENTS, READONLY
  4 .ARM.attributes 00000031  00000000  00000000  0002422c  2**0  CONTENTS, READONLY
  5 .ARM.exidx    00000008  00025fa4  00025fa4  0001dfa4  2**2  CONTENTS, ALLOC, LOAD, READONLY, DATA
  6 .debug_frame  00001fa4  00000000  00000000  00024260  2**2  CONTENTS, READONLY, DEBUGGING
SYMBOL TABLE:
00010000 l    d  .text	00000000 .text
2007c000 l    d  .data	00000000 .data
2007c1c0 l    d  .bss	00000000 .bss
00000000 l    d  .comment	00000000 .comment
00000000 l    d  .ARM.attributes	00000000 .ARM.attributes
00025fa4 l    d  .ARM.exidx	00000000 .ARM.exidx
00000000 l    d  .debug_frame	00000000 .debug_frame
00000000 l    df *ABS*	00000000 startup.cpp
000100f0 l       .text	00000000 _MSP
0001af2c l     F .text	0000003c isr_forwarder_routine
2007c04c l     O .data	0000008c g_isr_array
00000000 l    df *ABS*	00000000 memory.cpp
2007c1c0 l     O .bss	00000004 g_last_sbrk_ptr
2007c1c4 l     O .bss	00000004 g_next_heap_ptr
2007c1c8 l     O .bss	00000004 g_last_sbrk_size
2007c1cc l     O .bss	00000004 g_sbrk_calls
00000000 l    df *ABS*	00000000 newlib_syscalls.c
2007c1d0 l     O .bss	00000004 g_input_dev_fptr
2007c1d4 l     O .bss	00000004 g_output_dev_fptr
00000000 l    df *ABS*	00000000 newlib_time.c
00000000 l    df *ABS*	00000000 handlers.cpp
00023048 l     O .text	0000000b logHandler(str&, CharDev&, void*)::__FUNCTION__
00000000 l    df *ABS*	00000000 prog_handlers.cpp
2007c1f8 l     O .bss	00000004 getFileHandler(str&, CharDev&, void*)::spBuffer
2007c1fc l     O .bss	00000004 guard variable for getFileHandler(str&, CharDev&, void*)::spBuffer
00000000 l    df *ABS*	00000000 wireless_handlers.cpp
000114f4 l     F .text	0000003c wirelessHandlerPrintStats(CharDev&, mesh_stats_t*, unsigned char)
00011530 l     F .text	0000001e wsStatsHandler(str&, CharDev&, void*)
00011550 l     F .text	00000118 wsTxHandler(str&, CharDev&, void*)
00011668 l     F .text	00000034 wsAddrHandler(str&, CharDev&, void*)
00011710 l     F .text	00000080 wsRxHandler(str&, CharDev&, void*)
00011b3c l     F .text	0000011c wsStreamHandler(str&, CharDev&, void*)
00011910 l     F .text	0000022c wsFileTxHandler(str&, CharDev&, void*)
2007c204 l     O .bss	00000004 wirelessHandler(str&, CharDev&, void*)::pCmdProcessor
00000000 l    df *ABS*	00000000 high_level_init.cpp
00011c58 l     F .text	0000000c hl_print_line()
00011c64 l     F .text	0000002c ssp_set_max_clock
00011c90 l     F .text	00000094 hl_mount_storage(FileSystemObject&, char const*)
00000000 l    df *ABS*	00000000 remote.cpp
00000000 l    df *ABS*	00000000 terminal.cpp
00012314 l     F .text	00000034 VECTOR<terminalTask::cmdChan_t>::changeCapacity(unsigned int) [clone .part.5]
00000000 l    df *ABS*	00000000 period_callbacks.cpp
00000000 l    df *ABS*	00000000 prd_dispatcher.cpp
2007c21c l     O .bss	00000004 periodicSchedulerTask::handlePeriodicSemaphore(unsigned char, unsigned char)::counters
000249b0 l     O .text	00000010 periodicSchedulerTask::handlePeriodicSemaphore(unsigned char, unsigned char)::overrunMsg
2007c220 l     O .bss	00000010 sems
00000000 l    df *ABS*	00000000 Assign2.cpp
2007c230 l     O .bss	00000001 ledSTATUS
00000000 l    df *ABS*	00000000 Assign3.cpp
00012d44 l     F .text	00000048 _GLOBAL__sub_I__Z9uart_initv
2007c23c l     O .bss	00000004 u2
2007c240 l     O .bss	00000004 u3
00000000 l    df *ABS*	00000000 main.cpp
00000000 l    df *ABS*	00000000 mesh.c
00012e08 l     F .text	00000026 mesh_incr_soft_timers_for_arr
00012e30 l     F .text	0000004c mesh_update_soft_timers
00012e7c l     F .text	0000003c mesh_send_packet
00012eb8 l     F .text	00000034 mesh_send_retry_packet
00012eec l     F .text	00000024 mesh_find_rte_tbl_entry
00012f10 l     F .text	00000028 mesh_update_rte_scores
00012f38 l     F .text	00000042 mesh_get_pnd_pkt_slot
00012f7c l     F .text	00000090 mesh_pending_packets_add
0001300c l     F .text	00000060 mesh_get_rte_to_modify
0001306c l     F .text	00000180 mesh_handle_pnd_pkts_for_arr
000134ae l     F .text	0000001a mesh_send_ack
2007c000 l     O .data	00000004 g_pkt_hist_wptr
2007c315 l     O .bss	0000000c g_pkt_hist
2007c244 l     O .bss	00000014 g_driver
2007c258 l     O .bss	00000090 g_mesh_pnd_pkts
2007c2e8 l     O .bss	00000018 g_our_name
2007c300 l     O .bss	0000000c g_mesh_stats
2007c30c l     O .bss	00000001 g_locked
2007c310 l     O .bss	00000004 s_prev_time_ms.5016
2007c314 l     O .bss	00000001 g_rpt_node
2007c321 l     O .bss	00000010 g_rte_table
2007c004 l     O .data	00000001 g_retry_count
2007c331 l     O .bss	00000001 s_next_packet_id.5002
2007c005 l     O .data	00000001 g_our_node_id
2007c332 l     O .bss	00000001 g_error_mask
2007c333 l     O .bss	00000048 g_our_pnd_pkts
00000000 l    df *ABS*	00000000 nrf24L01Plus.c
00013840 l     F .text	00000110 nordic_transfer
00013950 l     F .text	00000020 nordic_readRegister
00013970 l     F .text	00000020 nordic_writeRegister
00000000 l    df *ABS*	00000000 wireless.c
00013cf4 l     F .text	00000030 nrf_irq_callback
00013d24 l     F .text	00000070 nrf_driver_init
00013d94 l     F .text	00000050 nrf_driver_app_recv
00013de4 l     F .text	0000005c nrf_driver_send
00013e40 l     F .text	00000022 nrf_driver_receive
00013e62 l     F .text	00000064 wireless_get_queued_pkt
00013ec6 l     F .text	00000028 nrf_driver_get_timer
2007c37c l     O .bss	00000004 g_ack_queue
2007c380 l     O .bss	00000004 g_rx_queue
2007c384 l     O .bss	00000004 g_nrf_activity_sem
00000000 l    df *ABS*	00000000 io_source.cpp
2007c388 l     O .bss	00000004 g_last_decoded_signal
2007c38c l     O .bss	00000002 g_signal_count
00024ad1 l     O .text	00000080 LED_DISPLAY_CHARMAP
2007c390 l     O .bss	00000080 g_ir_timings
00000000 l    df *ABS*	00000000 storage.cpp
00000000 l    df *ABS*	00000000 ccsbcs.c
00024b52 l     O .text	000001e0 tbl_upper.5675
00024d32 l     O .text	00000100 Tbl
00024e32 l     O .text	000001e0 tbl_lower.5674
00000000 l    df *ABS*	00000000 reentrant.c
00000000 l    df *ABS*	00000000 diskio.c
00000000 l    df *ABS*	00000000 sd.c
000145d4 l     F .text	00000012 sys_get_uptime_ms
000145e8 l     F .text	00000030 ssp_set_max_clock.constprop.2
00014618 l     F .text	00000018 ssp1_exchange_byte
2007c410 l     O .bss	00000001 g_card_type
2007c006 l     O .data	00000001 g_disk_status
00000000 l    df *ABS*	00000000 spi_flash.cpp
00014ce8 l     F .text	00000020 flash_get_mem_size_bytes()
00014d08 l     F .text	00000074 flash_perform_page_io_of_fatfs_sector(void (*)(unsigned char*, unsigned long, unsigned long), unsigned char*, unsigned long)
00014d7c l     F .text	000000cc ssp1_exchange_data
00014e48 l     F .text	00000024 flash_send_op_addr(flash_opcode_t, unsigned long)
00014e6c l     F .text	00000044 flash_read_page(unsigned char*, unsigned long, unsigned long)
00014eb0 l     F .text	00000040 flash_wait_for_ready()
000150fc l     F .text	0000008c flash_write_page(unsigned char*, unsigned long, unsigned long)
0002501c l     O .text	00000010 CSWTCH.71
2007c412 l     O .bss	00000002 g_flash_pagesize
2007c414 l     O .bss	00000001 g_flash_capacity
2007c418 l     O .bss	00000004 g_sector_count
00000000 l    df *ABS*	00000000 fatfs_time.c
00000000 l    df *ABS*	00000000 ff.c
00015256 l     F .text	00000038 mem_cpy
0001528e l     F .text	0000000e mem_set
0001529c l     F .text	0000001e sum_sfn
000152ba l     F .text	0000003e get_ldnumber
000152f8 l     F .text	000000c0 get_fileinfo
000153b8 l     F .text	0000004a sync_window
00015404 l     F .text	00000078 sync_fs
0001547c l     F .text	00000034 move_window
000154b0 l     F .text	0000004c check_fs
000154fc l     F .text	00000220 find_volume
0001571c l     F .text	0000003a validate
00015756 l     F .text	0000001a unlock_fs
0001582c l     F .text	00000082 dir_sdi
0001597e l     F .text	000000a2 create_chain
00015a20 l     F .text	000000ee dir_next
00015b10 l     F .text	0000012c dir_find
00015c3c l     F .text	0000025c follow_path
00015e98 l     F .text	00000208 dir_register
000160a0 l     F .text	0000005a dir_remove
000160fc l     F .text	000000e0 dir_read.constprop.11
000161dc l     F .text	0000005a remove_chain
0002502c l     O .text	00000016 vst.6246
00025042 l     O .text	00000016 cst.6247
2007c41c l     O .bss	00000002 Fsid
0002509c l     O .text	00000080 ExCvt
0002511c l     O .text	0000000d LfnOfs
2007c420 l     O .bss	00000008 FatFs
00000000 l    df *ABS*	00000000 c_list.c
00000000 l    df *ABS*	00000000 command_handler.cpp
00000000 l    df *ABS*	00000000 file_logger.c
00017608 l     F .text	00000044 logger_get_buffer_ptr
0001764c l     F .text	000000b0 logger_write_to_file
000176fc l     F .text	000000c0 logger_task
000177bc l     F .text	0000004c logger_write_log_message
2007c428 l     O .bss	00000004 g_write_buffer_queue
2007c007 l     O .data	00000001 g_logger_printf_mask
2007c42c l     O .bss	00000002 g_highest_file_write_time
2007c42e l     O .bss	00000002 g_blocked_calls
2007c430 l     O .bss	00000010 g_logger_calls
2007c440 l     O .bss	00000004 gp_file_buffer
2007c444 l     O .bss	00000004 g_empty_buffer_queue
2007c448 l     O .bss	00000002 g_buffer_watermark
00000000 l    df *ABS*	00000000 printf_lib.c
00000000 l    df *ABS*	00000000 rtc_alarm.c
00017b3a l     F .text	00000026 for_each_recur_alarm_callback
00017b60 l     F .text	0000005c for_each_alarm_callback
2007c44c l     O .bss	00000010 g_list_recur_alarms
2007c45c l     O .bss	00000004 g_list_timed_alarms
00000000 l    df *ABS*	00000000 scheduler_task.cpp
00017c60 l     F .text	000000ac printline(char const*, char const*)
00017d0c l     F .text	00000074 dbg_print(char const*, char const*)
2007c460 l     O .bss	00000001 g_dbg_print
2007c464 l     O .bss	00000008 gEnumObjects
2007c46c l     O .bss	00000004 gRunTaskSemaphore
2007c470 l     O .bss	00000004 gTaskEntryTaskHandle
2007c474 l     O .bss	00000004 gpTaskList
00000000 l    df *ABS*	00000000 str.cpp
00000000 l    df *ABS*	00000000 utilities.c
00000000 l    df *ABS*	00000000 adc.c
00018568 l     F .text	00000024 adc0_start_conversion
00000000 l    df *ABS*	00000000 can.c
000186b4 l     F .text	00000032 CAN_tx_now
000186e8 l     F .text	000000a4 CAN_handle_isr
00000000 l    df *ABS*	00000000 eint.c
000187b4 l     F .text	0000002c handle_eint_list
000187e0 l     F .text	00000038 eint3_enable.isra.0
2007c480 l     O .bss	00000004 gp_port2_rising_list
2007c484 l     O .bss	00000004 gp_port2_falling_list
2007c488 l     O .bss	00000004 gp_port0_rising_list
2007c48c l     O .bss	00000004 gp_port0_falling_list
00000000 l    df *ABS*	00000000 i2c2.cpp
00000000 l    df *ABS*	00000000 lpc_rit.c
2007c490 l     O .bss	00000004 g_rit_callback
00000000 l    df *ABS*	00000000 lpc_timers.c
00018988 l     F .text	00000020 lpc_timer_get_struct
00000000 l    df *ABS*	00000000 nrf_stream.cpp
00000000 l    df *ABS*	00000000 rtc.c
00000000 l    df *ABS*	00000000 spi_dma.c
00000000 l    df *ABS*	00000000 spi_sem.c
2007c494 l     O .bss	00000004 mSpi0Lock
00000000 l    df *ABS*	00000000 uart0.cpp
00000000 l    df *ABS*	00000000 uart2.cpp
00000000 l    df *ABS*	00000000 uart3.cpp
00000000 l    df *ABS*	00000000 char_dev.cpp
00000000 l    df *ABS*	00000000 i2c_base.cpp
00000000 l    df *ABS*	00000000 uart_dev.cpp
00000000 l    df *ABS*	00000000 list.c
00000000 l    df *ABS*	00000000 queue.c
000197f8 l     F .text	0000006a prvCopyDataToQueue
00019862 l     F .text	00000036 prvNotifyQueueSetContainer
00019898 l     F .text	00000028 prvCopyDataFromQueue
000198c0 l     F .text	00000078 prvUnlockQueue
00000000 l    df *ABS*	00000000 tasks.c
00019d56 l     F .text	0000002e prvResetRunTimeStatsInList
00019d84 l     F .text	00000018 prvIdleTask
00019d9c l     F .text	0000009e prvListTaskWithinSingleList
00019e3c l     F .text	00000024 prvResetNextTaskUnblockTime
00019e60 l     F .text	00000050 prvAddCurrentTaskToDelayedList
2007c498 l     O .bss	00000004 ulTaskSwitchedInTime
2007c49c l     O .bss	00000004 xNumOfOverflows
2007c4a0 l     O .bss	00000004 pxDelayedTaskList
2007c4a4 l     O .bss	00000004 xSchedulerRunning
2007c4a8 l     O .bss	00000014 xDelayedTaskList1
2007c4bc l     O .bss	00000014 xDelayedTaskList2
2007c4d0 l     O .bss	00000004 uxPendedTicks
2007c4d4 l     O .bss	000000c8 pxReadyTasksLists
2007c59c l     O .bss	00000004 uxSchedulerSuspended
2007c5a0 l     O .bss	00000004 ulTotalRunTime
2007c5a8 l     O .bss	00000014 xPendingReadyList
2007c5bc l     O .bss	00000004 xTickCount
2007c5c0 l     O .bss	00000004 pxOverflowDelayedTaskList
00025721 l     O .text	00000014 ucExpectedStackBytes.6450
2007c5c4 l     O .bss	00000004 uxTaskNumber
2007c5c8 l     O .bss	00000004 uxCurrentNumberOfTasks
2007c048 l     O .data	00000004 xNextTaskUnblockTime
2007c5cc l     O .bss	00000004 xIdleTaskHandle
2007c5d0 l     O .bss	00000014 xSuspendedTaskList
2007c5e4 l     O .bss	00000004 uxTopReadyPriority
2007c5e8 l     O .bss	00000004 xYieldPending
00000000 l    df *ABS*	00000000 port.c
0001a8c0 l     F .text	0000001a prvPortStartFirstTask
0001a94c l     F .text	00000008 prvTaskExitError
0001a91c l       .text	00000000 pxCurrentTCBConst2
0001a9cc l       .text	00000000 pxCurrentTCBConst
2007c5ec l     O .bss	00000004 uxCriticalNesting
00000000 l    df *ABS*	00000000 run_time_stats.c
2007c5f0 l     O .bss	00000008 g_freertos_runtime_timer_start
00000000 l    df *ABS*	00000000 hooks.c
00000000 l    df *ABS*	00000000 core_cm3.c
00000000 l    df *ABS*	00000000 low_level_init.cpp
2007c5f8 l     O .bss	00000001 g_sys_boot_type
2007c5f9 l     O .bss	0000000c g_rtc_boot_time
00000000 l    df *ABS*	00000000 lpc_peripherals.c
00000000 l    df *ABS*	00000000 lpc_sys.cpp
2007c606 l     O .bss	00000002 g_timer_rollover_count
00000000 l    df *ABS*	00000000 sys_clock.cpp
0001afc0 l     F .text	00000014 sys_clock_pll0_feed()
0001afd4 l     F .text	0000007c sys_clock_configure_pll(unsigned int, unsigned int, int*, int*, int*) [clone .constprop.0]
00000000 l    df *ABS*	00000000 uart0_min.c
00000000 l    df *ABS*	00000000 class_type_info.cc
00000000 l    df *ABS*	00000000 guard.cc
00000000 l    df *ABS*	00000000 vmi_class_type_info.cc
00000000 l    df *ABS*	00000000 si_class_type_info.cc
00000000 l    df *ABS*	00000000 pure.cc
00000000 l    df *ABS*	00000000 eh_terminate.cc
00000000 l    df *ABS*	00000000 tinfo.cc
00000000 l    df *ABS*	00000000 _ashldi3.o
00000000 l    df *ABS*	00000000 _arm_addsubdf3.o
00000000 l    df *ABS*	00000000 _arm_fixunsdfsi.o
00000000 l    df *ABS*	00000000 _arm_truncdfsf2.o
00000000 l    df *ABS*	00000000 _arm_addsubsf3.o
00000000 l    df *ABS*	00000000 _arm_muldivsf3.o
00000000 l    df *ABS*	00000000 _arm_fixsfsi.o
00000000 l    df *ABS*	00000000 _arm_fixunssfsi.o
00000000 l    df *ABS*	00000000 _aeabi_uldivmod.o
00000000 l    df *ABS*	00000000 bpabi.c
00000000 l    df *ABS*	00000000 _dvmd_tls.o
00000000 l    df *ABS*	00000000 libgcc2.c
00000000 l    df *ABS*	00000000 libgcc2.c
00000000 l    df *ABS*	00000000 abort.c
00000000 l    df *ABS*	00000000 atoi.c
00000000 l    df *ABS*	00000000 ctime.c
00000000 l    df *ABS*	00000000 findfp.c
0001c8c4 l     F .text	00000048 std.isra.0
00000000 l    df *ABS*	00000000 fwalk.c
00000000 l    df *ABS*	00000000 init.c
00000000 l    df *ABS*	00000000 lcltime.c
00000000 l    df *ABS*	00000000 lcltime_r.c
00000000 l    df *ABS*	00000000 malloc.c
00000000 l    df *ABS*	00000000 memchr.c
00000000 l    df *ABS*	00000000 memcmp.c
00000000 l    df *ABS*	00000000 memcpy.c
00000000 l    df *ABS*	00000000 memmove.c
00000000 l    df *ABS*	00000000 memset.c
00000000 l    df *ABS*	00000000 mktime.c
0001cd70 l     F .text	000001ac validate_structure
00025c9c l     O .text	00000030 _DAYS_BEFORE_MONTH
00025ccc l     O .text	00000030 DAYS_IN_MONTH
00000000 l    df *ABS*	00000000 mstats.c
00000000 l    df *ABS*	00000000 nano-mallocr.c
00000000 l    df *ABS*	00000000 nano-mallocr.c
00000000 l    df *ABS*	00000000 nano-mallocr.c
00000000 l    df *ABS*	00000000 nano-vfprintf_float.c
00000000 l    df *ABS*	00000000 nano-vfprintf_i.c
00000000 l    df *ABS*	00000000 nano-vfscanf_float.c
00000000 l    df *ABS*	00000000 printf.c
00000000 l    df *ABS*	00000000 puts.c
00000000 l    df *ABS*	00000000 rand.c
00000000 l    df *ABS*	00000000 realloc.c
00000000 l    df *ABS*	00000000 refill.c
0001e21c l     F .text	00000012 lflush
00000000 l    df *ABS*	00000000 s_fpclassify.c
00000000 l    df *ABS*	00000000 sbrkr.c
00000000 l    df *ABS*	00000000 scanf.c
00000000 l    df *ABS*	00000000 setvbuf.c
00000000 l    df *ABS*	00000000 sf_nan.c
00000000 l    df *ABS*	00000000 signal.c
00000000 l    df *ABS*	00000000 signalr.c
00000000 l    df *ABS*	00000000 sprintf.c
00000000 l    df *ABS*	00000000 stdio.c
00000000 l    df *ABS*	00000000 strcasecmp.c
00000000 l    df *ABS*	00000000 strcat.c
00000000 l    df *ABS*	00000000 strchr.c
00000000 l    df *ABS*	00000000 lib_a-strcmp.o
00000000 l    df *ABS*	00000000 strcpy.c
00000000 l    df *ABS*	00000000 strlen.c
00000000 l    df *ABS*	00000000 strncasecmp.c
00000000 l    df *ABS*	00000000 strncmp.c
00000000 l    df *ABS*	00000000 strncpy.c
00000000 l    df *ABS*	00000000 strrchr.c
00000000 l    df *ABS*	00000000 strstr.c
00000000 l    df *ABS*	00000000 strtod.c
0001e7ec l     F .text	00000026 match
0001e812 l     F .text	00000042 sulp
00025d94 l     O .text	00000014 fpi.5242
00025da8 l     O .text	00000028 tinytens
00025dd0 l     O .text	00000014 fpinan.5278
00000000 l    df *ABS*	00000000 strtok_r.c
00000000 l    df *ABS*	00000000 strtol.c
00000000 l    df *ABS*	00000000 syswrite.c
00000000 l    df *ABS*	00000000 time.c
00000000 l    df *ABS*	00000000 tolower.c
00000000 l    df *ABS*	00000000 toupper.c
00000000 l    df *ABS*	00000000 tzcalc_limits.c
00000000 l    df *ABS*	00000000 tzlock.c
00000000 l    df *ABS*	00000000 vsnprintf.c
00000000 l    df *ABS*	00000000 vsscanf.c
00000000 l    df *ABS*	00000000 wbuf.c
00000000 l    df *ABS*	00000000 writer.c
00000000 l    df *ABS*	00000000 wsetup.c
00000000 l    df *ABS*	00000000 asctime.c
00000000 l    df *ABS*	00000000 asctime_r.c
00025de4 l     O .text	00000024 mon_name.4612
00025e28 l     O .text	00000015 day_name.4611
00000000 l    df *ABS*	00000000 closer.c
00000000 l    df *ABS*	00000000 div.c
00000000 l    df *ABS*	00000000 dtoa.c
0001fb18 l     F .text	00000114 quorem
00000000 l    df *ABS*	00000000 fflush.c
00000000 l    df *ABS*	00000000 gdtoa-gethex.c
00020928 l     F .text	0000006c rshift
00000000 l    df *ABS*	00000000 gdtoa-hexnan.c
00020e08 l     F .text	00000024 L_shift
00000000 l    df *ABS*	00000000 gettimeofdayr.c
00000000 l    df *ABS*	00000000 gettzinfo.c
2007c144 l     O .data	00000040 tzinfo
00000000 l    df *ABS*	00000000 gmtime_r.c
00025e4c l     O .text	00000010 days_per_year
00000000 l    df *ABS*	00000000 locale.c
2007c184 l     O .data	00000038 lconv
00000000 l    df *ABS*	00000000 lseekr.c
00000000 l    df *ABS*	00000000 makebuf.c
00000000 l    df *ABS*	00000000 mprec.c
00025f58 l     O .text	0000000c p05.5277
00000000 l    df *ABS*	00000000 nano-mallocr.c
00000000 l    df *ABS*	00000000 nano-mallocr.c
00000000 l    df *ABS*	00000000 nano-vfprintf.c
00000000 l    df *ABS*	00000000 nano-vfscanf.c
00000000 l    df *ABS*	00000000 nano-vfprintf.c
00021f60 l     F .text	0000002c __sfputc_r
00000000 l    df *ABS*	00000000 nano-vfscanf.c
00000000 l    df *ABS*	00000000 nano-vfscanf_i.c
00000000 l    df *ABS*	00000000 readr.c
00000000 l    df *ABS*	00000000 sccl.c
00000000 l    df *ABS*	00000000 strtoul.c
00000000 l    df *ABS*	00000000 ungetc.c
00000000 l    df *ABS*	00000000 fstatr.c
00000000 l    df *ABS*	00000000 isattyr.c
00000000 l    df *ABS*	00000000 nano-mallocr.c
00000000 l    df *ABS*	00000000 _arm_muldivdf3.o
00000000 l    df *ABS*	00000000 _arm_cmpdf2.o
00000000 l    df *ABS*	00000000 _arm_fixdfsi.o
00000000 l    df *ABS*	00000000 ctype_.c
00000000 l    df *ABS*	00000000 impure.c
2007c0e0 l     O .data	00000060 impure_data
00000000 l    df *ABS*	00000000 month_lengths.c
00000000 l    df *ABS*	00000000 eh_term_handler.cc
00000000 l    df *ABS*	00000000 reent.c
00000000 l    df *ABS*	00000000 
00025fac l       .ARM.exidx	00000000 __exidx_end
00025fac l       .ARM.exidx	00000000 _etext
00025fa4 l       .text	00000000 __exidx_start
00018fac g     F .text	0000001c Uart3::Uart3()
00017fa0 g     F .text	00000044 scheduler_start(bool, bool)
00022a68 g     F .text	00000014 _malloc_usable_size_r
00010efc g     F .text	00000030 rebootHandler(str&, CharDev&, void*)
0001d3b4 g     F .text	000000bc __cvt
000181c2 g     F .text	0000002e str::beginsWith(char const*) const
0001adbc g     F .text	00000054 lpc_sys_setup_system_timer
000224ac g     F .text	000000bc _scanf_chars
0001b908 g     F .text	00000004 std::type_info::__is_function_p() const
00018bdc g     F .text	000000d0 rtc_init
000218ce g     F .text	00000044 __any_on
00022a48 g     F .text	00000020 _isatty_r
00022f74 g     F .text	00000012 .hidden __aeabi_dcmple
000183aa g     F .text	00000006 str::operator int() const
0001e6da g     F .text	00000010 strcpy
0001fa58 g     F .text	0000002c asctime
0001c344 g     F .text	00000030 .hidden __gnu_uldivmod_helper
0001b938 g     F .text	00000018 .hidden __ashldi3
00010370 g     F .text	00000004 _getpid
0001e078 g     F .text	000000bc _puts_r
00010148  w    F .text	00000010 TIMER2_IRQHandler
00017f84 g     F .text	0000001c scheduler_add_task(scheduler_task*)
00022eb0 g     F .text	0000007a .hidden __cmpdf2
0002106c g     F .text	00000024 _lseek_r
00015786 g     F .text	000000a6 get_fat
0001896c g     F .text	0000001c RIT_IRQHandler
00013220 g     F .text	000000fc mesh_form_pkt
00018256 g     F .text	00000028 str::eraseFirst(int)
000183a2 g     F .text	00000004 str::operator==(char const*) const
00022eb0 g     F .text	0000007a .hidden __eqdf2
0001c378 g     F .text	000002aa .hidden __divdi3
000150ec g     F .text	00000010 flash_supports_metadata
000256e1 g     O .text	00000009 typeinfo name for UartDev
000100cc g       .text	00000000 __section_table_start
00020f40 g     F .text	00000024 _gettimeofday_r
0001a978 g     F .text	00000014 vPortExitCritical
0001f4ee g     F .text	00000006 strtok_r
0001bc64 g     F .text	0000005a .hidden __floatdidf
00010148  w    F .text	00000010 I2C0_IRQHandler
00018a70  w    F .text	00000012 NordicStream::~NordicStream()
2007c20c  w    O .bss	00000004 SingletonTemplate<LED>::mpSingletonInstance
0001e554 g     F .text	00000024 _kill_r
0001e048 g     F .text	00000030 printf
0001ae10 g     F .text	00000028 sys_get_uptime_us
00012d98  w    F .text	0000000c wirelessTask::~wirelessTask()
0001e622 g     F .text	00000024 __sseek
0001c938 g     F .text	00000060 __sinit
00018f44  w    F .text	00000014 Uart3::~Uart3()
0001f8b4 g     F .text	000000a8 __swbuf_r
2007c63c g     O .bss	00000004 _daylight
0001a93c g     F .text	00000010 ulPortSetInterruptMask
000105f8 g     F .text	00000022 memInfoHandler(str&, CharDev&, void*)
2007c1dc  w    O .bss	00000004 Storage::getFlashDrive()::pFlashDrive
0001b7c8 g     F .text	00000014 __cxxabiv1::__si_class_type_info::~__si_class_type_info()
00025abc g     O .text	00000025 typeinfo name for __cxxabiv1::__si_class_type_info
00025690  w    O .text	0000001c vtable for Uart3
0001c90c g     F .text	0000002c __sfmoreglue
0001f850 g     F .text	00000048 _vsiscanf_r
00017968 g     F .text	00000138 logger_log
0001421e g     F .text	00000032 I2C_Temp::getCelsius()
0001b69a g     F .text	0000012e __cxxabiv1::__vmi_class_type_info::__do_upcast(__cxxabiv1::__class_type_info const*, void const*, __cxxabiv1::__class_type_info::__upcast_result&) const
0001169c g     F .text	00000074 wsRteHandler(str&, CharDev&, void*)
0001e858 g     F .text	00000c3c _strtod_r
0001c124 g     F .text	00000136 .hidden __divsf3
00014970 g     F .text	0000009c sd_read
00025648  w    O .text	0000001c typeinfo name for SingletonTemplate<Uart3>
00020994 g     F .text	0000002a __hexdig_fun
000252b8  w    O .text	00000020 vtable for scheduler_task
00012d8c  w    F .text	00000002 wirelessTask::~wirelessTask()
00019540 g     F .text	0000006c UartDev::getChar(char*, unsigned int)
00025640  w    O .text	00000008 typeinfo for SingletonTemplate<Uart3>
000189a8 g     F .text	00000050 lpc_timer_enable
00010148  w    F .text	00000010 PWM1_IRQHandler
0001cd2a g     F .text	00000036 memmove
00013a00 g     F .text	00000008 nordic_clear_packet_sent_flag
2007c1e8  w    O .bss	00000004 SingletonTemplate<I2C2>::mpSingletonInstance
00019b5e g     F .text	00000076 xQueueGenericSendFromISR
00021128 g     F .text	0000006a _Balloc
000180ae g     F .text	0000004c str::tokenize(char const*, int, ...)
00012ad8 g     F .text	000000ec periodicSchedulerTask::periodicSchedulerTask()
0001f498 g     F .text	00000056 __strtok_r
00018b24 g     F .text	00000050 rtc_gettime
0001c25c g     F .text	0000004c .hidden __fixsfsi
000100d8 g       .text	00000000 __data_section_table_end
00012454 g     F .text	00000074 terminalTask::handleEchoAndBackspace(terminalTask::cmdChan_t*, char)
00012bc4 g     F .text	00000088 periodicSchedulerTask::handlePeriodicSemaphore(unsigned char, unsigned char)
00018898 g     F .text	00000030 eint3_enable_port0
00010148  w    F .text	00000010 I2C1_IRQHandler
000254ec  w    O .text	00000024 typeinfo name for SingletonTemplate<NordicStream>
00018536 g     F .text	0000000e is_freertos_running
00010148  w    F .text	00000010 EINT2_IRQHandler
00010148  w    F .text	00000010 UART1_IRQHandler
00022ea0 g     F .text	0000008a .hidden __gtdf2
00012a44 g     F .text	00000020 period_task_1Hz(void*)
00017fe4 g     F .text	00000034 scheduler_task::scheduler_task(char const*, unsigned long, unsigned char, void*)
00025710 g     O .text	0000000c typeinfo for UartDev
0001b050 g     F .text	000000b0 sys_clock_configure()
00025540 g     O .text	00000020 typeinfo for NordicStream
0001d2ac g     F .text	0000005c _mallinfo_r
00019d3e g     F .text	00000018 xQueueSelectFromSet
0001a8b0 g     F .text	00000010 vRunTimeStatIsrExit
00011d64  w    F .text	00000028 SingletonTemplate<TemperatureSensor>::getInstance()
000112c4 g     F .text	00000054 myCmdHandler(str&, CharDev&, void*)
2007c5a4 g     O .bss	00000004 pxCurrentTCB
00014630 g     F .text	0000002e wait_ready
00010f2c g     F .text	00000034 learnIrHandler(str&, CharDev&, void*)
00018818 g     F .text	00000080 EINT3_IRQHandler
0001402c g     F .text	00000060 IR_Sensor::decodeIrCode()
000139b4 g     F .text	00000016 nordic_standby1_to_tx_mode1
0001808a g     F .text	00000008 str::clear()
00018e1c g     F .text	00000040 Uart0::init(unsigned int, int, int)
00013204 g     F .text	0000000c mesh_get_node_address
0001408c g     F .text	00000034 IR_Sensor::init()
00022a24 g     F .text	00000024 _fstat_r
00018328 g     F .text	00000040 str::trimStart(char const*)
000134c8 g     F .text	0000002c mesh_get_routing_entry
2007c640 g     O .bss	00000004 errno
00022568 g     F .text	000001e4 _scanf_i
0001e5e6 g     F .text	00000004 __seofread
0001050c g     F .text	000000ec taskListHandler(str&, CharDev&, void*)
00013a9c g     F .text	0000003e nordic_set_intr_signals
00022f3c g     F .text	00000010 .hidden __aeabi_cdcmple
2007c238  w    O .bss	00000004 SingletonTemplate<Uart2>::mpSingletonInstance
0001399e g     F .text	00000008 nordic_clear_all_intr_flags
00018018 g     F .text	00000018 scheduler_task::getSharedObject(unsigned char)
00019238 g     F .text	00000016 I2C_Base::writeReg(unsigned char, unsigned char, unsigned char)
0001bdac g     F .text	00000160 .hidden __aeabi_fadd
0001805c g     F .text	00000024 str::~str()
0001bda8 g     F .text	00000164 .hidden __subsf3
0001447c g     F .text	00000024 ff_wtoupper
00024308 g     O .text	00000020 vtable for terminalTask
00025520 g     O .text	0000001c vtable for NordicStream
00018420 g     F .text	0000000c str::str(int)
0001f898 g     F .text	0000001c vsscanf
0002245c g     F .text	00000050 _vfiscanf_r
000122f4  w    F .text	00000004 scheduler_task::taskEntry()
0001ad70 g     F .text	0000004c lpc_pclk
00010148  w    F .text	00000010 TIMER3_IRQHandler
00018934 g     F .text	00000014 I2C2::I2C2()
00013c1e g     F .text	0000000e nordic_set_rx_pipe0_addr
00018e78 g     F .text	00000024 UART0_IRQHandler
0001aa08 g     F .text	00000030 xPortStartScheduler
000104c4  w    F .text	00000048 Storage::getSDDrive()
0001a0a4 g     F .text	00000018 vTaskEndScheduler
00012ac8 g     F .text	00000004 periodicSchedulerTask::regTlm()
0001cd14 g     F .text	00000016 memcpy
0001a584 g     F .text	0000005c vTaskPlaceOnEventList
00020e2c g     F .text	00000114 __hexnan
00018cdc g     F .text	000000c4 ssp1_dma_transfer_block
00022f2c g     F .text	00000020 .hidden __aeabi_cdrcmple
2007c608 g     O .bss	00000004 gp_timer_ptr
00019eb0 g     F .text	000001a0 xTaskGenericCreate
0001e3dc g     F .text	00000110 setvbuf
0001047c  w    F .text	00000048 Storage::getFlashDrive()
000255d8  w    O .text	0000001c typeinfo name for SingletonTemplate<Uart2>
0001c8b8 g     F .text	0000000c _cleanup_r
0001b282 g     F .text	0000000c __cxxabiv1::__class_type_info::__do_find_public_src(int, void const*, __cxxabiv1::__class_type_info const*, void const*) const
00021a2c g     F .text	000001e4 _svfprintf_r
0001bbf4 g     F .text	00000022 .hidden __floatsidf
0001a9f4  w    F .text	00000014 vPortSetupTimerInterrupt
00025510 g     O .text	0000000f typeinfo name for NordicStream
00013a90 g     F .text	0000000c nordic_flush_rx_fifo
00022ea8 g     F .text	00000082 .hidden __ltdf2
000100fa  w    F .text	0000000e isr_nmi
0001a9d0 g     F .text	00000024 xPortSysTickHandler
000144fc g     F .text	00000026 disk_initialize
00013210 g     F .text	00000010 mesh_set_retry_count
0001b290 g     F .text	00000014 __cxxabiv1::__class_type_info::~__class_type_info()
0001c2e8 g     F .text	00000000 .hidden __aeabi_uldivmod
0001934c g     F .text	00000122 I2C_Base::i2cStateMachine()
0001e134 g     F .text	00000010 puts
00025a18 g     O .text	0000000c typeinfo for __cxxabiv1::__vmi_class_type_info
00012d8c  w    F .text	00000002 wirelessTask::~wirelessTask()
00019956 g     F .text	0000001a vPortFree
00011318 g     F .text	000000ac flashProgHandler(str&, CharDev&, void*)
0001e33c g     F .text	00000050 __fpclassifyd
0001f660 g     F .text	00000018 tolower
0002245c g     F .text	00000050 _vfscanf_r
0002184a g     F .text	00000050 __ratio
0001e3ac g     F .text	00000030 iscanf
00016cc4 g     F .text	00000120 f_rename
00014164 g     F .text	00000004 LED::init()
000144b4 g     F .text	00000004 ff_del_syncobj
00012348  w    F .text	00000048 terminalTask::~terminalTask()
000255a4  w    O .text	00000007 typeinfo name for Uart0
0001ccb8 g     F .text	00000010 malloc
00018fec  w    F .text	00000004 CharDev::flush()
000100e0  w    F .text	0000001a isr_hard_fault
000140c0 g     F .text	00000018 LED_Display::setLeftDigit(char)
0001e4f4 g     F .text	00000050 _raise_r
000103ce g     F .text	00000004 _fstat
00018da0 g     F .text	00000030 spi1_lock
0001bf14 g     F .text	0000001c .hidden __aeabi_i2f
00025e68 g     O .text	000000c8 __mprec_tens
0001a6bc g     F .text	00000020 uxTaskGetStackHighWaterMark
00010c50 g     F .text	000000b0 newFileHandler(str&, CharDev&, void*)
0001a98c g     F .text	00000044 xPortPendSVHandler
0001f830 g     F .text	00000020 vsnprintf
00010d00 g     F .text	00000140 dcpHandler(str&, CharDev&, void*)
0001bcc0 g     F .text	00000040 .hidden __fixunsdfsi
00019790 g     F .text	00000018 vListInsertEnd
00014804 g     F .text	0000015c sd_initialize
00013bfa g     F .text	00000016 nordic_set_addr_width
00019134 g     F .text	000000da I2C_Base::transfer(unsigned char, unsigned char, unsigned char*, unsigned long)
00021c8a g     F .text	0000003a __ssrefill_r
00013c2c g     F .text	000000c8 nordic_init
0001e578 g     F .text	00000004 _getpid_r
00014522 g     F .text	00000010 disk_status
00013ef0 g     F .text	0000004c wireless_init
0001bbd4 g     F .text	0000001e .hidden __aeabi_ui2d
000188c8 g     F .text	0000006c I2C2::init(unsigned int)
00021064 g     F .text	00000008 _localeconv_r
00024a80  w    O .text	0000000c typeinfo for wirelessTask
0001b350 g     F .text	00000014 __cxxabiv1::__vmi_class_type_info::~__vmi_class_type_info()
00021356 g     F .text	00000012 __i2b
0001b2ce g     F .text	0000002a __cxxabiv1::__class_type_info::__do_catch(std::type_info const*, void**, unsigned int) const
00013b40 g     F .text	00000024 nordic_set_channel
0001b950 g     F .text	00000000 .hidden __aeabi_drsub
00010192 g     F .text	0000006e isr_reset
0001e38c g     F .text	00000020 _sbrk_r
00013470 g     F .text	0000003e mesh_send
000106e0 g     F .text	00000190 logHandler(str&, CharDev&, void*)
000255d0  w    O .text	00000008 typeinfo for SingletonTemplate<Uart2>
0002274c g     F .text	00000024 _read_r
00024998 g     O .text	0000000f typeinfo name for terminalTask
0001978a g     F .text	00000006 vListInitialiseItem
000145a2 g     F .text	00000032 disk_ioctl
00010148  w    F .text	00000010 PLL0_IRQHandler
00022f60 g     F .text	00000012 .hidden __aeabi_dcmplt
00018aa4 g     F .text	00000040 NordicStream::getChar(char*, unsigned int)
0001878c g     F .text	00000028 CAN_IRQHandler
00020904 g     F .text	00000024 fflush
0001a970 g     F .text	00000006 vPortClearInterruptMask
00010118  w    F .text	00000010 isr_bus_fault
0001785c g     F .text	0000000c logger_get_highest_file_write_time_ms
00012a28 g     F .text	00000004 period_reg_tlm
00010148  w    F .text	00000010 PLL1_IRQHandler
000256d8 g     O .text	00000009 typeinfo name for CharDev
000140f0 g     F .text	00000038 LED_Display::init()
0001bc18 g     F .text	0000003a .hidden __extendsfdf2
00021cc4 g     F .text	0000029c __ssvfscanf_r
00022cd0 g     F .text	000001d0 .hidden __aeabi_ddiv
00010148  w    F .text	00000010 SSP0_IRQHandler
00013b64 g     F .text	0000002c nordic_set_air_data_rate
0001b95c g     F .text	00000276 .hidden __adddf3
00010b7c g     F .text	0000003c mkdirHandler(str&, CharDev&, void*)
00012a2e g     F .text	0000000e period_10Hz
00010148  w    F .text	00000010 CANAct_IRQHandler
00025a80 g     O .text	0000002c vtable for __cxxabiv1::__si_class_type_info
00013808 g     F .text	00000024 mesh_get_max_timeout_before_packet_fails
00017aa0 g     F .text	00000040 logger_log_raw
00021708 g     F .text	0000009e __b2d
00022a7c g     F .text	00000254 .hidden __aeabi_dmul
0001aae8 g     F .text	0000000c sys_get_boot_type
000103d4 g     F .text	00000024 _isatty
0001b2b6 g     F .text	00000018 __cxxabiv1::__class_type_info::__do_upcast(__cxxabiv1::__class_type_info const*, void const*, __cxxabiv1::__class_type_info::__upcast_result&) const
00013c10 g     F .text	0000000e nordic_set_tx_address
0001027c g     F .text	00000004 operator delete(void*)
00025c98 g     O .text	00000004 _global_impure_ptr
0001b364 g     F .text	00000012 __cxxabiv1::__vmi_class_type_info::~__vmi_class_type_info()
0002192e g     F .text	0000004c _realloc_r
0001ca80 g     F .text	0000004c __libc_init_array
0001e6fc g     F .text	00000044 strncasecmp
000174c4 g     F .text	00000144 CommandProcessor::handleCommand(str&, CharDev&)
00014708 g     F .text	0000004c xmit_datablock
000194c6 g     F .text	0000005a UartDev::putChar(char, unsigned int)
00012c80 g     F .text	0000000c setFlag()
0001c624 g     F .text	0000026e .hidden __udivdi3
00013a7a g     F .text	00000016 nordic_read_rx_fifo
00010f80 g     F .text	00000198 i2cIoHandler(str&, CharDev&, void*)
00017868 g     F .text	0000000c logger_get_num_buffers_watermark
00025f30 g     O .text	00000028 __mprec_bigtens
0002123c g     F .text	00000080 __s2b
0001c894 g     F .text	0000000e abort
0001bbd4 g     F .text	0000001e .hidden __floatunsidf
00014ef0 g     F .text	00000098 flash_initialize
00010200 g     F .text	00000078 _sbrk
00018a5c  w    F .text	00000014 NordicStream::~NordicStream()
000215ca g     F .text	00000038 __mcmp
00019938 g     F .text	0000001e pvPortMalloc
00012aa4 g     F .text	00000020 period_task_1000Hz(void*)
00020f6c g     F .text	000000f8 gmtime_r
00025614  w    O .text	00000007 typeinfo name for Uart2
00016ab6 g     F .text	000000ba f_unlink
00018e08  w    F .text	00000012 Uart0::~Uart0()
00010148  w    F .text	00000010 I2S_IRQHandler
00010374 g     F .text	00000004 _init
000122f8  w    F .text	00000018 SingletonTemplate<IR_Sensor>::getInstance()
0001a920 g     F .text	00000002 vPortEndScheduler
00018948 g     F .text	00000024 I2C2_IRQHandler
00019774 g     F .text	00000016 vListInitialise
000103cc g     F .text	00000002 syscalls_init
00018f44  w    F .text	00000014 Uart3::~Uart3()
000100cc g       .text	00000000 __data_section_table
0001f600 g     F .text	0000001c strtol
00018e9c  w    F .text	00000014 Uart2::~Uart2()
0001b8f8 g     F .text	0000000a std::terminate()
0001bd00 g     F .text	0000009e .hidden __aeabi_d2f
00019084 g     F .text	00000078 CharDev::printf(char const*, ...)
0001a0cc g     F .text	00000018 xTaskGetTickCount
00019a2c g     F .text	000000e6 xQueueGenericSend
0001bda8 g     F .text	00000164 .hidden __aeabi_fsub
00017bbc g     F .text	000000a4 RTC_IRQHandler
00024aa0  w    O .text	00000020 vtable for wirelessTask
2007c644 g       .bss	00000000 _ebss
00017d80 g     F .text	00000118 scheduler_c_task_private(void*)
0001b376 g     F .text	00000076 __cxxabiv1::__vmi_class_type_info::__do_find_public_src(int, void const*, __cxxabiv1::__class_type_info const*, void const*) const
00010148  w    F .text	00000010 TIMER0_IRQHandler
0001aad4 g     F .text	00000006 __set_PSP
000123a4 g     F .text	000000b0 terminalTask::terminalTask(unsigned char)
00019034 g     F .text	00000050 CharDev::gets(char*, int, unsigned int)
00019520 g     F .text	00000020 UartDev::flush()
0001f830 g     F .text	00000020 vsniprintf
000259f4 g     O .text	00000022 typeinfo name for __cxxabiv1::__class_type_info
0001f7da g     F .text	00000002 __tz_unlock
00010148  w    F .text	00000010 SPI_IRQHandler
0001e796 g     F .text	00000026 strrchr
000212bc g     F .text	00000040 __hi0bits
00010158  w    F .text	00000012 isr_sys_tick
00013be6 g     F .text	00000014 nordic_set_payload_for_pipe
0001a38c g     F .text	00000088 uxTaskGetSystemState
00022fb0 g     F .text	0000004e .hidden __fixdfsi
0001a790 g     F .text	00000070 xTaskPriorityDisinherit
00010bb8 g     F .text	0000003c rmHandler(str&, CharDev&, void*)
00018ae4 g     F .text	00000040 NordicStream::NordicStream()
00015054 g     F .text	00000044 flash_write_permanent_id
2007c478 g     O .bss	00000004 g_adc_result_queue
0001bf40 g     F .text	0000007c .hidden __floatdisf
00025620  w    O .text	0000001c vtable for Uart2
00011da4 g     F .text	00000548 high_level_init()
0001969c g     F .text	00000028 UartDev::UartDev(unsigned int*)
0001a818 g     F .text	00000070 vTaskResetRunTimeStats
00018030 g     F .text	0000002c str::str(char*, int)
0001b902 g     F .text	00000002 std::type_info::~type_info()
000108f0 g     F .text	0000010c catHandler(str&, CharDev&, void*)
0001b100 g     F .text	000000a4 sys_get_cpu_clock
0001f61c g     F .text	0000001c write
00013fc6  w    F .text	00000028 i2c2_device::get16BitRegister(unsigned char)
0001ab08 g     F .text	00000238 low_level_init()
00011d24  w    F .text	00000024 SingletonTemplate<LED_Display>::getInstance()
0001794c g     F .text	0000001c logger_set_printf
0001aab0 g     F .text	00000024 vApplicationMallocFailedHook
0001a5e0 g     F .text	0000006c xTaskRemoveFromEventList
0001af68 g     F .text	00000058 isr_hard_fault_handler
00018e5c g     F .text	0000001c Uart0::Uart0()
000183b0 g     F .text	00000014 str::operator[](int)
0001b95c g     F .text	00000276 .hidden __aeabi_dadd
00012a3c g     F .text	00000002 period_100Hz
00022ea8 g     F .text	00000082 .hidden __ledf2
0001c8aa g     F .text	0000000e ctime
2007c218  w    O .bss	00000004 SingletonTemplate<Acceleration_Sensor>::mpSingletonInstance
00019216 g     F .text	0000001a I2C_Base::readReg(unsigned char, unsigned char)
000172d4 g     F .text	0000002a c_list_for_each_elm
0001e68c g     F .text	0000001e strcat
00021488 g     F .text	0000009c __pow5mult
0001bc54 g     F .text	0000006a .hidden __aeabi_ul2d
000139dc g     F .text	00000024 nordic_standby1_to_rx
00010148  w    F .text	00000010 EINT1_IRQHandler
000249a8 g     O .text	00000004 PERIOD_TASKS_STACK_SIZE_BYTES
0001ae70 g     F .text	000000bc TIMER1_IRQHandler
000141e4 g     F .text	00000018 Switches::getSwitchValues()
00025c74 g     O .text	00000020 __sf_fake_stderr
000255f4  w    O .text	00000020 typeinfo for Uart2
00017300 g     F .text	0000007c CommandProcessor::addHandler(bool (*)(str&, CharDev&, void*), char const*, char const*, void*)
0001b8e8 g     F .text	00000010 std::get_terminate()
000184c0 g     F .text	0000001a str::operator+=(char)
00012700  w    F .text	00000022 Uart0::getcharIntrDriven(char)
000181f0 g     F .text	0000002e str::beginsWithIgnoreCase(char const*) const
00012d8e  w    F .text	0000000a wirelessTask::run(void*)
00013a14 g     F .text	0000004c nordic_mode1_send_single_packet
00010e40 g     F .text	000000bc storageHandler(str&, CharDev&, void*)
00014684 g     F .text	00000084 rcvr_datablock
00018f20 g     F .text	00000024 UART2_IRQHandler
000194a0  w    F .text	00000014 UartDev::~UartDev()
0001aa4c g     F .text	00000014 uxGetTimerForRunTimeStats
000134f4 g     F .text	0000001c mesh_get_num_routing_entries
0002197a g     F .text	000000b2 __ssputs_r
000131ec g     F .text	00000018 mesh_set_node_address
0001a800 g     F .text	00000018 pvTaskIncrementMutexHeldCount
00018df4  w    F .text	00000014 Uart0::~Uart0()
0001b2f8 g     F .text	00000038 __cxxabiv1::__class_type_info::__do_dyncast(int, __cxxabiv1::__class_type_info::__sub_kind, __cxxabiv1::__class_type_info const*, void const*, __cxxabiv1::__class_type_info const*, void const*, __cxxabiv1::__class_type_info::__dyncast_result&) const
0001b350 g     F .text	00000014 __cxxabiv1::__vmi_class_type_info::~__vmi_class_type_info()
000122ec  w    F .text	00000004 scheduler_task::init()
0001827e g     F .text	00000020 str::eraseLast(int)
00022f9c g     F .text	00000012 .hidden __aeabi_dcmpgt
0001b24e g     F .text	00000034 __cxxabiv1::__class_type_info::__do_upcast(__cxxabiv1::__class_type_info const*, void**) const
2007c1e0  w    O .bss	00000004 SingletonTemplate<TemperatureSensor>::mpSingletonInstance
00021f8c g     F .text	00000024 __sfputs_r
000141c8 g     F .text	00000006 Light_Sensor::getRawValue()
0001ccd8 g     F .text	0000001c memchr
0001d4d4  w    F .text	00000486 _printf_float
00018dd0 g     F .text	00000024 spi1_unlock
00012a40  w    F .text	00000002 periodicSchedulerTask::~periodicSchedulerTask()
0001a664 g     F .text	0000004c xTaskCheckForTimeOut
0001d224 g     F .text	00000088 _free_r
0001737c g     F .text	0000009c CommandProcessor::getRegisteredCommandList(CharDev&)
00022f88 g     F .text	00000012 .hidden __aeabi_dcmpge
00018f04 g     F .text	0000001c Uart2::Uart2()
000181ac g     F .text	00000016 str::firstIndexOf(char const*) const
00010f60  w    F .text	00000020 SingletonTemplate<I2C2>::getInstance()
0001b1a4 g     F .text	00000060 uart0_init
2007c1c0 g       .bss	00000000 _bss
0001847c g     F .text	00000022 str::ensureMemoryToInsertNChars(int)
00021c10 g     F .text	0000007a _sungetc_r
00011d8c  w    F .text	00000018 SingletonTemplate<Switches>::getInstance()
00016796 g     F .text	00000024 f_close
00014960 g     F .text	00000010 sd_status
0001b958 g     F .text	0000027a .hidden __aeabi_dsub
0001cf1c g     F .text	000002f4 mktime
00010148 g     F .text	00000010 isr_default_handler
00013a72 g     F .text	00000008 nordic_clear_packet_available_flag
00025560  w    O .text	00000008 typeinfo for SingletonTemplate<Uart0>
0001a0bc g     F .text	00000010 vTaskSuspendAll
0001e7bc g     F .text	00000030 strstr
2007c234  w    O .bss	00000004 SingletonTemplate<Uart3>::mpSingletonInstance
00025b24 g     O .text	0000000d typeinfo name for std::type_info
0001a0e4 g     F .text	00000018 xTaskGetTickCountFromISR
00012acc  w    F .text	0000000c periodicSchedulerTask::~periodicSchedulerTask()
0001bc54 g     F .text	0000006a .hidden __floatundidf
000150e0 g     F .text	0000000c flash_get_page_size
0001e194 g     F .text	00000074 rand
000103f8 g     F .text	00000004 _lseek
0001b8cc g     F .text	00000014 __cxa_pure_virtual
00012cbc g     F .text	00000030 uart_tx()
00021524 g     F .text	000000a6 __lshift
000249ac g     O .text	00000004 PERIOD_DISPATCHER_TASK_STACK_SIZE_BYTES
00012cec g     F .text	00000058 uart_rx()
000124c8 g     F .text	00000040 terminalTask::addCommandChannel(CharDev*, bool)
0001bf14 g     F .text	0000001c .hidden __floatsisf
000197d8 g     F .text	00000020 uxListRemove
00013fb0  w    F .text	00000016 i2c2_device::writeReg(unsigned char, unsigned char)
00018ec4 g     F .text	00000040 Uart2::init(unsigned int, int, int)
0001436e g     F .text	00000046 Storage::read(char const*, void*, unsigned int, unsigned int)
000163e6 g     F .text	0000017c f_read
00018ae4 g     F .text	00000040 NordicStream::NordicStream()
0001e740 g     F .text	00000032 strncmp
0001858c g     F .text	0000003c ADC_IRQHandler
0001b826 g     F .text	0000007c __cxxabiv1::__si_class_type_info::__do_dyncast(int, __cxxabiv1::__class_type_info::__sub_kind, __cxxabiv1::__class_type_info const*, void const*, __cxxabiv1::__class_type_info const*, void const*, __cxxabiv1::__class_type_info::__dyncast_result&) const
0001b204 g     F .text	00000018 uart0_getchar
0001843a g     F .text	00000042 str::printf(char const*, ...)
000180fa g     F .text	00000014 str::compareTo(char const*) const
000109fc g     F .text	00000180 lsHandler(str&, CharDev&, void*)
00021368 g     F .text	00000120 __multiply
0001698e g     F .text	0000005e f_readdir
000118f0  w    F .text	00000020 SingletonTemplate<NordicStream>::getInstance()
0001a6fc g     F .text	00000094 vTaskPriorityInherit
20083fe0 g       *ABS*	00000000 _vStackTop
000144a0 g     F .text	00000014 ff_cre_syncobj
0001c25c g     F .text	0000004c .hidden __aeabi_f2iz
00025cfc g     O .text	00000060 __month_lengths
0001805c g     F .text	00000024 str::~str()
0001e772 g     F .text	00000024 strncpy
00018080 g     F .text	00000006 str::getLen() const
2007c60c g     O .bss	00000028 __malloc_current_mallinfo
00018368 g     F .text	0000003a str::trimEnd(char const*)
000217a6 g     F .text	000000a4 __d2b
0001e650 g     F .text	0000003c strcasecmp
2007c1d8  w    O .bss	00000004 Storage::getSDDrive()::pSDCardDrive
0001a414 g     F .text	000000cc vTaskSwitchContext
0001b902 g     F .text	00000002 std::type_info::~type_info()
00010148  w    F .text	00000010 SSP1_IRQHandler
00018e5c g     F .text	0000001c Uart0::Uart0()
000256b0 g     O .text	0000001c vtable for CharDev
00019230 g     F .text	00000008 I2C_Base::writeRegisters(unsigned char, unsigned char, unsigned char*, unsigned long)
0001b8a2 g     F .text	0000002a __cxxabiv1::__si_class_type_info::__do_upcast(__cxxabiv1::__class_type_info const*, void const*, __cxxabiv1::__class_type_info::__upcast_result&) const
00012390  w    F .text	00000012 terminalTask::~terminalTask()
0001e208 g     F .text	00000014 realloc
00018ff0 g     F .text	00000026 CharDev::put(char const*, unsigned int)
00025a24 g     O .text	00000026 typeinfo name for __cxxabiv1::__vmi_class_type_info
000129bc g     F .text	0000006c period_init
00013f64 g     F .text	0000004c wireless_service
000227d4 g     F .text	000000f8 _strtoul_r
00014f88 g     F .text	0000004c flash_read_sectors
00013a60 g     F .text	00000012 nordic_is_packet_available
000100e0 g       .text	00000000 __bss_section_table_end
0001783c g     F .text	00000014 logger_get_logged_call_count
0001c124 g     F .text	00000136 .hidden __aeabi_fdiv
00018086 g     F .text	00000004 str::getCapacity() const
0001fad0 g     F .text	00000020 _close_r
2007c1ec  w    O .bss	00000004 SingletonTemplate<Uart0>::mpSingletonInstance
000141ce g     F .text	00000012 Light_Sensor::getPercentValue()
0001bbf4 g     F .text	00000022 .hidden __aeabi_i2d
00010870 g     F .text	00000080 cpHandler(str&, CharDev&, void*)
00010180 g     F .text	00000012 bss_init(unsigned int, unsigned int)
0001336c g     F .text	00000104 mesh_init
00019470 g     F .text	00000030 I2C_Base::handleInterrupt()
0001ccf4 g     F .text	00000020 memcmp
2007c200  w    O .bss	00000004 SingletonTemplate<NordicStream>::mpSingletonInstance
00018516 g     F .text	00000004 str::operator=(char const*)
00010148  w    F .text	00000010 USB_IRQHandler
0001bf30 g     F .text	0000008c .hidden __floatundisf
0001b7c8 g     F .text	00000014 __cxxabiv1::__si_class_type_info::~__si_class_type_info()
0001f980 g     F .text	000000d8 __swsetup_r
00012508 g     F .text	00000126 terminalTask::getCommand()
2007c47c g     O .bss	00000004 g_adc_mutex
0001aa78 g     F .text	00000038 vApplicationStackOverflowHook
0001c374  w    F .text	00000002 .hidden __aeabi_ldiv0
0001a4e0 g     F .text	000000a4 vTaskSuspend
00022cd0 g     F .text	000001d0 .hidden __divdf3
0001c998 g     F .text	00000074 __sfp
0002189a g     F .text	00000034 __copybits
0001b904 g     F .text	00000004 std::type_info::__is_pointer_p() const
0001a0fc g     F .text	0000000c uxTaskGetNumberOfTasks
000113c4 g     F .text	00000130 getFileHandler(str&, CharDev&, void*)
00011d48  w    F .text	0000001c SingletonTemplate<LED>::getInstance()
00010148  w    F .text	00000010 BOD_IRQHandler
0001bf0c g     F .text	00000024 .hidden __aeabi_ui2f
2007c008 g     O .data	00000040 g_can_structs
0001f7dc g     F .text	00000052 _vsnprintf_r
00022a7c g     F .text	00000254 .hidden __muldf3
0001e5c4 g     F .text	00000022 __sread
00017488 g     F .text	0000003c CommandProcessor::prepareCmdParam(str&, char const*)
00015204 g     F .text	00000052 get_fattime
0001851a g     F .text	0000001c delay_us
00024a44 g     O .text	00000018 typeinfo name for periodicSchedulerTask
000194b4  w    F .text	00000012 UartDev::~UartDev()
00013ada g     F .text	00000038 nordic_set_crc
0001b234 g     F .text	0000001a uart0_puts
0001a924 g     F .text	00000018 vPortYield
00018e9c  w    F .text	00000014 Uart2::~Uart2()
000190fc g     F .text	00000020 CharDev::CharDev()
000259b8 g     O .text	0000002c vtable for __cxxabiv1::__class_type_info
000208b0 g     F .text	00000054 _fflush_r
00013f50 g     F .text	00000014 wireless_get_ack_pkt
0001849e g     F .text	00000022 str::insertAtEnd(char const*)
00021912 g     F .text	0000001c _calloc_r
000192c0 g     F .text	0000008c I2C_Base::init(unsigned long, unsigned long)
0001aaf4 g     F .text	00000014 sys_get_boot_time
00025c34 g     O .text	00000020 __sf_fake_stdin
0001f7d8 g     F .text	00000002 __tz_lock
0001382c g     F .text	00000014 mesh_get_stats
00012a3e g     F .text	00000002 period_1000Hz
0001fa84 g     F .text	0000004c asctime_r
00013f3c g     F .text	00000014 wireless_get_rx_pkt
0001cacc g     F .text	00000024 localtime
0001cd60 g     F .text	00000010 memset
0001016a g     F .text	00000016 data_init(unsigned int, unsigned int, unsigned int)
00012da4 g     F .text	00000064 main
00025568  w    O .text	0000001c typeinfo name for SingletonTemplate<Uart0>
00018544 g     F .text	00000022 delay_ms
0001842c g     F .text	0000000e str::reserve(int)
00013990 g     F .text	0000000e nordic_is_tx_fifo_empty
000141e0 g     F .text	00000004 Switches::init()
00014274 g     F .text	000000fa Storage::copy(char const*, char const*, unsigned int*, unsigned int*, unsigned int*)
00010284 g     F .text	000000b0 sys_get_mem_info
2007c214  w    O .bss	00000004 SingletonTemplate<IR_Sensor>::mpSingletonInstance
00013a08 g     F .text	0000000c nordic_flush_tx_fifo
0001bf40 g     F .text	0000007c .hidden __aeabi_l2f
0001e144 g     F .text	00000050 srand
00017fe4 g     F .text	00000034 scheduler_task::scheduler_task(char const*, unsigned long, unsigned char, void*)
0001969c g     F .text	00000028 UartDev::UartDev(unsigned int*)
00019264 g     F .text	0000005c I2C_Base::I2C_Base(LPC_I2C_TypeDef*)
0001670a g     F .text	0000008c f_sync
00010148  w    F .text	00000010 WDT_IRQHandler
000140d8 g     F .text	00000018 LED_Display::setRightDigit(char)
00013510 g     F .text	000002c4 mesh_service
000197a8 g     F .text	00000030 vListInsert
000126c8  w    F .text	00000020 SingletonTemplate<Uart0>::getInstance()
0001e646 g     F .text	00000008 __sclose
00010280 g     F .text	00000004 operator delete[](void*)
0001819e g     F .text	0000000e str::containsIgnoreCase(char const*) const
2007c1f0  w    O .bss	00000004 guard variable for Storage::getSDDrive()::pSDCardDrive
0001f4f4 g     F .text	0000010c _strtol_r
0001bd00 g     F .text	0000009e .hidden __truncdfsf2
000185c8 g     F .text	00000074 adc0_init
00025fa4 g       .text	00000000 __init_array_end
0001a8fc g     F .text	00000024 vPortSVCHandler
0001fc30 g     F .text	00000b74 _dtoa_r
0001d308 g     F .text	000000ac _malloc_r
0001f638 g     F .text	00000028 time
0001331c g     F .text	00000050 mesh_send_formed_pkt
00016de4 g     F .text	000004f0 f_mkfs
0001bc64 g     F .text	0000005a .hidden __aeabi_l2d
00014168 g     F .text	0000005c LED::setAll(unsigned char)
0001821e g     F .text	00000038 str::beginsWithWholeWordIgnoreCase(char const*, char) const
00016238 g     F .text	0000007c f_mount
0001a2c4 g     F .text	00000074 vTaskDelayUntil
000228cc g     F .text	00000072 __submore
000259e8 g     O .text	0000000c typeinfo for __cxxabiv1::__class_type_info
00014010 g     F .text	0000001c IR_Sensor::storeIrCode(unsigned long)
0001ca0c g     F .text	00000038 _fwalk
00012630 g     F .text	00000098 terminalTask::run(void*)
000143fa g     F .text	0000004a Storage::append(char const*, void const*, unsigned int, unsigned int)
00016906 g     F .text	00000088 f_opendir
00019cd6 g     F .text	00000052 xQueueReceiveFromISR
0001bf30 g     F .text	0000008c .hidden __aeabi_ul2f
00014a0c g     F .text	000000b4 sd_write
000199ca g     F .text	00000050 xQueueGenericCreate
00025664  w    O .text	00000020 typeinfo for Uart3
0001bfbc g     F .text	00000168 .hidden __mulsf3
00017808 g     F .text	00000034 logger_send_flush_request
00010108  w    F .text	00000010 isr_mem_fault
0001920e g     F .text	00000008 I2C_Base::readRegisters(unsigned char, unsigned char, unsigned char*, unsigned long)
0001e6c6 g     F .text	00000014 strcmp
00019a1a g     F .text	00000012 xQueueCreateCountingSemaphore
00011130 g     F .text	00000194 healthHandler(str&, CharDev&, void*)
000123a4 g     F .text	000000b0 terminalTask::terminalTask(unsigned char)
00017418 g     F .text	00000070 CommandProcessor::getHelpText(str&, CharDev&)
00013b12 g     F .text	00000018 nordic_power_up
00010344 g     F .text	0000000c sys_set_inchar_func
00024a8c  w    O .text	0000000f typeinfo name for wirelessTask
000158ae g     F .text	000000d0 put_fat
00010148  w    F .text	00000010 QEI_IRQHandler
000100d8 g       .text	00000000 __bss_section_table
00022eb0 g     F .text	0000007a .hidden __nedf2
000256d0 g     O .text	00000008 typeinfo for CharDev
00012348  w    F .text	00000048 terminalTask::~terminalTask()
00011118  w    F .text	00000018 SingletonTemplate<Light_Sensor>::getInstance()
0001e048 g     F .text	00000030 iprintf
000144de g     F .text	0000001e ff_rel_grant
00018fac g     F .text	0000001c Uart3::Uart3()
0001b7dc g     F .text	00000012 __cxxabiv1::__si_class_type_info::~__si_class_type_info()
0001a204 g     F .text	000000c0 xTaskResumeAll
000221c0 g     F .text	0000029c __svfiscanf_r
000167ba g     F .text	0000014c f_lseek
0001e57c g     F .text	00000048 sprintf
000194a0  w    F .text	00000014 UartDev::~UartDev()
0001a050 g     F .text	00000054 vTaskStartScheduler
0001d470 g     F .text	00000062 __exponent
00025684  w    O .text	00000007 typeinfo name for Uart3
00013fee g     F .text	00000020 Acceleration_Sensor::init()
000190fc g     F .text	00000020 CharDev::CharDev()
0001b348 g     F .text	00000006 __cxa_guard_release
0001f95c g     F .text	00000024 _write_r
000256f0 g     O .text	0000001c vtable for UartDev
000195ac g     F .text	0000003c UartDev::setBaudRate(unsigned int)
0001aa38 g     F .text	00000014 vConfigureTimerForRunTimeStats
0001e3ac g     F .text	00000030 scanf
2007c1e4  w    O .bss	00000004 SingletonTemplate<Light_Sensor>::mpSingletonInstance
0001bda0 g     F .text	0000016c .hidden __aeabi_frsub
00025a50 g     O .text	0000002c vtable for __cxxabiv1::__vmi_class_type_info
00010148  w    F .text	00000010 EINT0_IRQHandler
00010338 g     F .text	0000000c sys_set_outchar_func
000151dc g     F .text	00000028 flash_chip_erase
0001e4ec g     F .text	00000008 nanf
0001d95c g     F .text	000000ea _printf_common
0001863c g     F .text	00000078 adc0_get_reading
2007c140 g     O .data	00000004 _impure_ptr
00017afe g     F .text	0000003c u0_dbg_printf
000207a8 g     F .text	00000106 __sflush_r
00012a64 g     F .text	00000020 period_task_10Hz(void*)
0001bfbc g     F .text	00000168 .hidden __aeabi_fmul
000255b0  w    O .text	0000001c vtable for Uart0
00025fa0 g       .text	00000000 __preinit_array_end
00021a2c g     F .text	000001e4 _svfiprintf_r
0001e230 g     F .text	0000010c __srefill_r
00014660 g     F .text	00000024 power_off
00014250 g     F .text	00000024 I2C_Temp::getFarenheit()
2007c000 g       .data	00000000 _data
0001aada g     F .text	00000006 __set_MSP
00018934 g     F .text	00000014 I2C2::I2C2()
000216c0 g     F .text	00000048 __ulp
00012724 g     F .text	00000298 terminalTask::taskEntry()
00024a38 g     O .text	0000000c typeinfo for periodicSchedulerTask
00018030 g     F .text	0000002c str::str(char*, int)
00018f58  w    F .text	00000012 Uart3::~Uart3()
00018eb0  w    F .text	00000012 Uart2::~Uart2()
0001a6b0 g     F .text	0000000c vTaskMissedYield
000139a6 g     F .text	0000000e nordic_queue_tx_fifo
00018a5c  w    F .text	00000014 NordicStream::~NordicStream()
0002498c g     O .text	0000000c typeinfo for terminalTask
2007c644 g       .bss	00000000 _pvHeapStart
0001b21c g     F .text	00000018 uart0_putchar
000100e0 g       .text	00000000 __section_table_end
0001d210 g     F .text	00000014 mallinfo
00018f6c g     F .text	00000040 Uart3::init(unsigned int, int, int)
00017ae0 g     F .text	0000001e u0_dbg_put
00012c8c g     F .text	00000030 uart_init()
0001810e g     F .text	00000010 str::compareToIgnoreCase(char const*) const
000195e8 g     F .text	000000b4 UartDev::handleInterrupt()
0001924e g     F .text	00000016 I2C_Base::checkDeviceResponse(unsigned char)
0001f7dc g     F .text	00000052 _vsniprintf_r
00019d28 g     F .text	00000012 uxQueueMessagesWaiting
00019bd4 g     F .text	00000102 xQueueGenericReceive
0001bcc0 g     F .text	00000040 .hidden __aeabi_d2uiz
00019264 g     F .text	0000005c I2C_Base::I2C_Base(LPC_I2C_TypeDef*)
0001caf0 g     F .text	000001c8 localtime_r
00014754 g     F .text	0000008c send_cmd
0001b290 g     F .text	00000014 __cxxabiv1::__class_type_info::~__class_type_info()
00018df4  w    F .text	00000014 Uart0::~Uart0()
0001a108 g     F .text	000000fc xTaskIncrementTick
00021cc4 g     F .text	0000029c __ssvfiscanf_r
00013b2a g     F .text	00000016 nordic_power_down
00018b74 g     F .text	00000068 rtc_settime
0001829e g     F .text	00000038 str::eraseAfter(int, int)
2007c1f4  w    O .bss	00000004 guard variable for Storage::getFlashDrive()::pFlashDrive
00015770 g     F .text	00000016 clust2sect
0001b938 g     F .text	00000018 .hidden __aeabi_llsl
0001ae38 g     F .text	00000038 sys_get_mem_info_str
000254e4  w    O .text	00000008 typeinfo for SingletonTemplate<NordicStream>
2007c0d8 g     O .data	00000004 __cxxabiv1::__terminate_handler
00017850 g     F .text	0000000c logger_get_blocked_call_count
0001aae0 g     F .text	00000006 __set_BASEPRI
00022f4c g     F .text	00000012 .hidden __aeabi_dcmpeq
00018cc0 g     F .text	0000001c ssp1_dma_init
00018f04 g     F .text	0000001c Uart2::Uart2()
00025ab0 g     O .text	0000000c typeinfo for __cxxabiv1::__si_class_type_info
00019970 g     F .text	0000005a xQueueGenericReset
00010378 g     F .text	00000028 _write
2007c1bc g       .data	00000000 _edata
0001b416 g     F .text	00000284 __cxxabiv1::__vmi_class_type_info::__do_dyncast(int, __cxxabiv1::__class_type_info::__sub_kind, __cxxabiv1::__class_type_info const*, void const*, __cxxabiv1::__class_type_info const*, void const*, __cxxabiv1::__class_type_info::__dyncast_result&) const
000137d4 g     F .text	00000034 mesh_get_pnd_pkt_count
00014128 g     F .text	0000003c LED_Display::setNumber(char)
000143b4 g     F .text	00000046 Storage::write(char const*, void*, unsigned int, unsigned int)
000150c0 g     F .text	00000020 flash_get_page_count
00012ad8 g     F .text	000000ec periodicSchedulerTask::periodicSchedulerTask()
00016562 g     F .text	000001a8 f_write
000183a6 g     F .text	00000004 str::operator()() const
00014fd4 g     F .text	00000048 flash_write_sectors
000141fc g     F .text	00000022 I2C_Temp::init()
0001f850 g     F .text	00000048 _vsscanf_r
0001c2a8 g     F .text	0000003e .hidden __aeabi_f2uiz
0001911c g     F .text	00000018 CharDev::~CharDev()
00012a2c g     F .text	00000002 period_1Hz
0001811e g     F .text	00000080 str::firstIndexOfIgnoreCase(char const*) const
00018a82 g     F .text	00000022 NordicStream::putChar(char, unsigned int)
000189f8 g     F .text	00000062 NordicStream::flush()
0001e5ea g     F .text	00000038 __swrite
00010278 g     F .text	00000004 operator new(unsigned int)
000162b4 g     F .text	00000132 f_open
000182d6 g     F .text	00000028 str::erase(char const*)
0001b3ec  w    F .text	0000002a __cxxabiv1::__class_type_info::__find_public_src(int, void const*, __cxxabiv1::__class_type_info const*, void const*) const
0001456a g     F .text	00000038 disk_write
0001501c g     F .text	00000038 flash_ioctl
00013bb4 g     F .text	00000032 nordic_set_auto_transmit_options
00021fb0 g     F .text	00000210 _vfiprintf_r
00010000 g     O .text	000000cc g_pfnVectors
000122f0  w    F .text	00000004 scheduler_task::regTlm()
00010bf4 g     F .text	0000005c mvHandler(str&, CharDev&, void*)
0001ca44 g     F .text	0000003c _fwalk_reent
0001b7ee g     F .text	00000038 __cxxabiv1::__si_class_type_info::__do_find_public_src(int, void const*, __cxxabiv1::__class_type_info const*, void const*) const
0001bf0c g     F .text	00000024 .hidden __floatunsisf
00021602 g     F .text	000000be __mdiff
0001911c g     F .text	00000018 CharDev::~CharDev()
00022fb0 g     F .text	0000004e .hidden __aeabi_d2iz
0001b8e0 g     F .text	00000008 __cxxabiv1::__terminate(void (*)())
000144b8 g     F .text	00000026 ff_req_grant
0001f898 g     F .text	0000001c vsiscanf
2007c208  w    O .bss	00000004 SingletonTemplate<Switches>::mpSingletonInstance
00010350 g     F .text	00000010 _kill
2007c0dc g     O .data	00000004 __ctype_ptr__
000183c4 g     F .text	0000004c str::reAllocateMem(int)
00010148  w    F .text	00000010 DMA_IRQHandler
00012310 g     F .text	00000004 terminalTask::regTlm()
0001a338 g     F .text	00000054 vTaskDelay
000126e8  w    F .text	00000018 Uart0::putcharIntrDriven(char)
00017e98 g     F .text	000000ec scheduler_init_all(bool)
00025c54 g     O .text	00000020 __sf_fake_stdout
0001e57c g     F .text	00000048 siprintf
00022770 g     F .text	00000062 __sccl
00012ac4 g     F .text	00000004 periodicSchedulerTask::init()
0001c8a2 g     F .text	00000008 atoi
00010400 g     F .text	0000007a _gettimeofday
0001a6dc g     F .text	00000020 xTaskGetSchedulerState
00025b31 g     O .text	00000101 _ctype_
000103a0 g     F .text	0000002c _read
00025fa0 g       .text	00000000 __init_array_start
0001c374  w    F .text	00000002 .hidden __aeabi_idiv0
0001061c g     F .text	000000c4 timeHandler(str&, CharDev&, void*)
000242e4  w    O .text	00000008 typeinfo for scheduler_task
00017874 g     F .text	000000d8 logger_init
00016b70 g     F .text	00000154 f_mkdir
0001c2a8 g     F .text	0000003e .hidden __fixunssfsi
00018092 g     F .text	0000001c str::scanf(char const*, ...)
00010360 g     F .text	00000010 _exit
00010128  w    F .text	00000010 isr_usage_fault
000141c4 g     F .text	00000004 Light_Sensor::init()
00021090 g     F .text	00000098 __smakebuf_r
00018420 g     F .text	0000000c str::str(int)
0001e6ea g     F .text	00000010 strlen
00014532 g     F .text	00000038 disk_read
0001a8e0 g     F .text	0000001c pxPortInitialiseStack
0001da48 g     F .text	00000234 _printf_i
00025b1c g     O .text	00000008 typeinfo for std::type_info
00019018 g     F .text	0000001c CharDev::putline(char const*, unsigned int)
0001f678 g     F .text	00000018 toupper
00022f3c g     F .text	00000010 .hidden __aeabi_cdcmpeq
00022ea0 g     F .text	0000008a .hidden __gedf2
00018fc8 g     F .text	00000024 UART3_IRQHandler
000209be g     F .text	0000044a __gethex
2007c634 g     O .bss	00000004 __malloc_sbrk_start
00010148  w    F .text	00000010 MCPWM_IRQHandler
00012a84 g     F .text	00000020 period_task_100Hz(void*)
00011790 g     F .text	00000160 wirelessHandler(str&, CharDev&, void*)
0001c314 g     F .text	00000030 .hidden __gnu_ldivmod_helper
0001faf0 g     F .text	00000028 div
0001e6aa g     F .text	0000001c strchr
000169ec g     F .text	000000ca f_getfree
00012a40  w    F .text	00000002 periodicSchedulerTask::~periodicSchedulerTask()
0001a64c g     F .text	00000018 vTaskSetTimeOutState
00014444 g     F .text	00000038 ff_convert
0001bc18 g     F .text	0000003a .hidden __aeabi_f2d
000184da g     F .text	0000003c str::copyFrom(char const*)
0001a954 g     F .text	0000001c vPortEnterCritical
000182fe g     F .text	0000002a str::eraseFirstWords(int, char)
00012c4c g     F .text	00000034 periodicSchedulerTask::run(void*)
000147e0 g     F .text	00000024 sd_update_card_status
0001aa60 g     F .text	00000014 resetRunTimeCounter
00015098 g     F .text	00000028 flash_read_permanent_id
00015188 g     F .text	00000054 flash_get_page_write_count
2007c638 g     O .bss	00000004 __malloc_free_list
00018410  w    F .text	00000010 str::init(int)
2007c210  w    O .bss	00000004 SingletonTemplate<LED_Display>::mpSingletonInstance
000139cc g     F .text	00000010 nordic_rx_to_Stanby1
00019d3a g     F .text	00000004 uxQueueMessagesWaitingFromISR
00018cac g     F .text	00000014 rtc_get_date_time_str
00024a60 g     O .text	00000020 vtable for periodicSchedulerTask
0001b958 g     F .text	0000027a .hidden __subdf3
00021fb0 g     F .text	00000210 _vfprintf_r
00025fa0 g       .text	00000000 __preinit_array_start
000242ec  w    O .text	00000011 typeinfo name for scheduler_task
000212fc g     F .text	0000005a __lo0bits
000221c0 g     F .text	0000029c __svfscanf_r
0001f690 g     F .text	00000148 __tzcalc_limits
0001a888 g     F .text	00000028 vRunTimeStatIsrEntry
00022940 g     F .text	000000e4 _ungetc_r
0001b90c g     F .text	0000002c std::type_info::operator==(std::type_info const&) const
0001b330 g     F .text	00000018 __cxa_guard_acquire
00010148  w    F .text	00000010 ENET_IRQHandler
00010148  w    F .text	00000010 USBAct_IRQHandler
00019b12 g     F .text	0000004c xQueueCreateMutex
0001bdac g     F .text	00000160 .hidden __addsf3
00013b90 g     F .text	00000024 nordic_set_power_level
00010138  w    F .text	00000010 isr_debug_mon
00020f64 g     F .text	00000008 __gettzinfo
0001e544 g     F .text	00000010 raise
000103fc g     F .text	00000004 _close
0001ccc8 g     F .text	00000010 free
00025584  w    O .text	00000020 typeinfo for Uart0
0001dc7c  w    F .text	000003cc _scanf_float
00014ac0 g     F .text	00000228 sd_ioctl
00010334 g     F .text	00000002 __gnu_cxx::__verbose_terminate_handler()
000211c0 g     F .text	0000007c __multadd
0001b2a4 g     F .text	00000012 __cxxabiv1::__class_type_info::~__class_type_info()
00021192 g     F .text	0000002e _Bfree
000196c4 g     F .text	000000b0 UartDev::init(unsigned int, unsigned int, int, int)
0001ad40 g     F .text	00000030 lpc_pconp
0001aa74 g     F .text	00000004 vApplicationIdleHook



Disassembly of section .text:

00010000 <g_pfnVectors>:
$d():
   10000:	e0 3f 08 20 93 01 01 00 fb 00 01 00 e1 00 01 00     .?. ............
   10010:	09 01 01 00 19 01 01 00 29 01 01 00 00 00 00 00     ........).......
	...
   1002c:	fd a8 01 00 39 01 01 00 00 00 00 00 8d a9 01 00     ....9...........
   1003c:	59 01 01 00 2d af 01 00 2d af 01 00 2d af 01 00     Y...-...-...-...
   1004c:	2d af 01 00 2d af 01 00 2d af 01 00 2d af 01 00     -...-...-...-...
   1005c:	2d af 01 00 2d af 01 00 2d af 01 00 2d af 01 00     -...-...-...-...
   1006c:	2d af 01 00 2d af 01 00 2d af 01 00 2d af 01 00     -...-...-...-...
   1007c:	2d af 01 00 2d af 01 00 2d af 01 00 2d af 01 00     -...-...-...-...
   1008c:	2d af 01 00 2d af 01 00 2d af 01 00 2d af 01 00     -...-...-...-...
   1009c:	2d af 01 00 2d af 01 00 2d af 01 00 2d af 01 00     -...-...-...-...
   100ac:	2d af 01 00 2d af 01 00 2d af 01 00 2d af 01 00     -...-...-...-...
   100bc:	2d af 01 00 2d af 01 00 2d af 01 00 2d af 01 00     -...-...-...-...

000100cc <__data_section_table>:
__section_table_start():
   100cc:	00025fac 	.word	0x00025fac
   100d0:	2007c000 	.word	0x2007c000
   100d4:	000001bc 	.word	0x000001bc

000100d8 <__bss_section_table>:
__data_section_table_end():
   100d8:	2007c1c0 	.word	0x2007c1c0
   100dc:	00000484 	.word	0x00000484

000100e0 <isr_hard_fault>:
isr_hard_fault():
   100e0:	2004      	movs	r0, #4
   100e2:	4671      	mov	r1, lr
   100e4:	4208      	tst	r0, r1
   100e6:	d003      	beq.n	100f0 <_MSP>
   100e8:	f3ef 8009 	mrs	r0, PSP
   100ec:	f00a bf3c 	b.w	1af68 <isr_hard_fault_handler>

000100f0 <_MSP>:
   100f0:	f3ef 8008 	mrs	r0, MSP
   100f4:	f00a bf38 	b.w	1af68 <isr_hard_fault_handler>
   100f8:	4770      	bx	lr

000100fa <isr_nmi>:
isr_nmi():
   100fa:	b508      	push	{r3, lr}
   100fc:	4801      	ldr	r0, [pc, #4]	; (10104 <isr_nmi+0xa>)
   100fe:	f007 fcef 	bl	17ae0 <u0_dbg_put>
   10102:	e7fe      	b.n	10102 <isr_nmi+0x8>
   10104:	0002593a 	.word	0x0002593a

00010108 <isr_mem_fault>:
isr_mem_fault():
   10108:	b508      	push	{r3, lr}
   1010a:	4802      	ldr	r0, [pc, #8]	; (10114 <isr_mem_fault+0xc>)
   1010c:	f007 fce8 	bl	17ae0 <u0_dbg_put>
   10110:	e7fe      	b.n	10110 <isr_mem_fault+0x8>
   10112:	bf00      	nop
   10114:	00025945 	.word	0x00025945

00010118 <isr_bus_fault>:
isr_bus_fault():
   10118:	b508      	push	{r3, lr}
   1011a:	4802      	ldr	r0, [pc, #8]	; (10124 <isr_bus_fault+0xc>)
   1011c:	f007 fce0 	bl	17ae0 <u0_dbg_put>
   10120:	e7fe      	b.n	10120 <isr_bus_fault+0x8>
   10122:	bf00      	nop
   10124:	00025950 	.word	0x00025950

00010128 <isr_usage_fault>:
isr_usage_fault():
   10128:	b508      	push	{r3, lr}
   1012a:	4802      	ldr	r0, [pc, #8]	; (10134 <isr_usage_fault+0xc>)
   1012c:	f007 fcd8 	bl	17ae0 <u0_dbg_put>
   10130:	e7fe      	b.n	10130 <isr_usage_fault+0x8>
   10132:	bf00      	nop
   10134:	0002595b 	.word	0x0002595b

00010138 <isr_debug_mon>:
isr_debug_mon():
   10138:	b508      	push	{r3, lr}
   1013a:	4802      	ldr	r0, [pc, #8]	; (10144 <isr_debug_mon+0xc>)
   1013c:	f007 fcd0 	bl	17ae0 <u0_dbg_put>
   10140:	e7fe      	b.n	10140 <isr_debug_mon+0x8>
   10142:	bf00      	nop
   10144:	00025968 	.word	0x00025968

00010148 <isr_default_handler>:
TIMER2_IRQHandler():
   10148:	b508      	push	{r3, lr}
   1014a:	4802      	ldr	r0, [pc, #8]	; (10154 <isr_default_handler+0xc>)
   1014c:	f007 fcc8 	bl	17ae0 <u0_dbg_put>
   10150:	e7fe      	b.n	10150 <isr_default_handler+0x8>
   10152:	bf00      	nop
   10154:	00025976 	.word	0x00025976

00010158 <isr_sys_tick>:
isr_sys_tick():
   10158:	b508      	push	{r3, lr}
   1015a:	f00a fb95 	bl	1a888 <vRunTimeStatIsrEntry>
   1015e:	f00a fc37 	bl	1a9d0 <xPortSysTickHandler>
   10162:	e8bd 4008 	ldmia.w	sp!, {r3, lr}
   10166:	f00a bba3 	b.w	1a8b0 <vRunTimeStatIsrExit>

0001016a <data_init(unsigned int, unsigned int, unsigned int)>:
_Z9data_initjjj():
   1016a:	460b      	mov	r3, r1
   1016c:	b510      	push	{r4, lr}
   1016e:	1a5c      	subs	r4, r3, r1
   10170:	4294      	cmp	r4, r2
   10172:	d204      	bcs.n	1017e <data_init(unsigned int, unsigned int, unsigned int)+0x14>
   10174:	1a44      	subs	r4, r0, r1
   10176:	58e4      	ldr	r4, [r4, r3]
   10178:	f843 4b04 	str.w	r4, [r3], #4
   1017c:	e7f7      	b.n	1016e <data_init(unsigned int, unsigned int, unsigned int)+0x4>
   1017e:	bd10      	pop	{r4, pc}

00010180 <bss_init(unsigned int, unsigned int)>:
_Z8bss_initjj():
   10180:	4603      	mov	r3, r0
   10182:	1a1a      	subs	r2, r3, r0
   10184:	428a      	cmp	r2, r1
   10186:	d203      	bcs.n	10190 <bss_init(unsigned int, unsigned int)+0x10>
   10188:	2200      	movs	r2, #0
   1018a:	f843 2b04 	str.w	r2, [r3], #4
   1018e:	e7f8      	b.n	10182 <bss_init(unsigned int, unsigned int)+0x2>
   10190:	4770      	bx	lr

00010192 <isr_reset>:
isr_reset():
   10192:	4816      	ldr	r0, [pc, #88]	; (101ec <isr_reset+0x5a>)
   10194:	f00a fc9e 	bl	1aad4 <__set_PSP>
   10198:	4814      	ldr	r0, [pc, #80]	; (101ec <isr_reset+0x5a>)
   1019a:	f00a fc9e 	bl	1aada <__set_MSP>
   1019e:	4c14      	ldr	r4, [pc, #80]	; (101f0 <isr_reset+0x5e>)
   101a0:	4b14      	ldr	r3, [pc, #80]	; (101f4 <isr_reset+0x62>)
   101a2:	429c      	cmp	r4, r3
   101a4:	d207      	bcs.n	101b6 <isr_reset+0x24>
   101a6:	e894 0003 	ldmia.w	r4, {r0, r1}
   101aa:	340c      	adds	r4, #12
   101ac:	f854 2c04 	ldr.w	r2, [r4, #-4]
   101b0:	f7ff ffdb 	bl	1016a <data_init(unsigned int, unsigned int, unsigned int)>
   101b4:	e7f4      	b.n	101a0 <isr_reset+0xe>
   101b6:	4b10      	ldr	r3, [pc, #64]	; (101f8 <isr_reset+0x66>)
   101b8:	429c      	cmp	r4, r3
   101ba:	d206      	bcs.n	101ca <isr_reset+0x38>
   101bc:	f854 0b08 	ldr.w	r0, [r4], #8
   101c0:	f854 1c04 	ldr.w	r1, [r4, #-4]
   101c4:	f7ff ffdc 	bl	10180 <bss_init(unsigned int, unsigned int)>
   101c8:	e7f5      	b.n	101b6 <isr_reset+0x24>
   101ca:	f00c fc59 	bl	1ca80 <__libc_init_array>
   101ce:	f00a fc9b 	bl	1ab08 <low_level_init()>
   101d2:	f001 fde7 	bl	11da4 <high_level_init()>
   101d6:	f002 fde5 	bl	12da4 <main>
   101da:	f44f 4016 	mov.w	r0, #38400	; 0x9600
   101de:	f00a ffe1 	bl	1b1a4 <uart0_init>
   101e2:	4806      	ldr	r0, [pc, #24]	; (101fc <isr_reset+0x6a>)
   101e4:	f007 fc7c 	bl	17ae0 <u0_dbg_put>
   101e8:	e7fe      	b.n	101e8 <isr_reset+0x56>
   101ea:	bf00      	nop
   101ec:	20083fe0 	.word	0x20083fe0
   101f0:	000100cc 	.word	0x000100cc
   101f4:	000100d8 	.word	0x000100d8
   101f8:	000100e0 	.word	0x000100e0
   101fc:	0002598a 	.word	0x0002598a

00010200 <_sbrk>:
_sbrk():
   10200:	4a14      	ldr	r2, [pc, #80]	; (10254 <_sbrk+0x54>)
   10202:	b570      	push	{r4, r5, r6, lr}
   10204:	6813      	ldr	r3, [r2, #0]
   10206:	4601      	mov	r1, r0
   10208:	b913      	cbnz	r3, 10210 <_sbrk+0x10>
   1020a:	f04f 5380 	mov.w	r3, #268435456	; 0x10000000
   1020e:	6013      	str	r3, [r2, #0]
   10210:	6810      	ldr	r0, [r2, #0]
   10212:	4b11      	ldr	r3, [pc, #68]	; (10258 <_sbrk+0x58>)
   10214:	1845      	adds	r5, r0, r1
   10216:	4e11      	ldr	r6, [pc, #68]	; (1025c <_sbrk+0x5c>)
   10218:	442b      	add	r3, r5
   1021a:	42b3      	cmp	r3, r6
   1021c:	bf98      	it	ls
   1021e:	4b10      	ldrls	r3, [pc, #64]	; (10260 <_sbrk+0x60>)
   10220:	4c0c      	ldr	r4, [pc, #48]	; (10254 <_sbrk+0x54>)
   10222:	bf96      	itet	ls
   10224:	18c8      	addls	r0, r1, r3
   10226:	6025      	strhi	r5, [r4, #0]
   10228:	6020      	strls	r0, [r4, #0]
   1022a:	6812      	ldr	r2, [r2, #0]
   1022c:	bf98      	it	ls
   1022e:	4618      	movls	r0, r3
   10230:	4b0c      	ldr	r3, [pc, #48]	; (10264 <_sbrk+0x64>)
   10232:	429a      	cmp	r2, r3
   10234:	bf81      	itttt	hi
   10236:	4a0c      	ldrhi	r2, [pc, #48]	; (10268 <_sbrk+0x68>)
   10238:	4b06      	ldrhi	r3, [pc, #24]	; (10254 <_sbrk+0x54>)
   1023a:	2000      	movhi	r0, #0
   1023c:	601a      	strhi	r2, [r3, #0]
   1023e:	b139      	cbz	r1, 10250 <_sbrk+0x50>
   10240:	4a0a      	ldr	r2, [pc, #40]	; (1026c <_sbrk+0x6c>)
   10242:	6813      	ldr	r3, [r2, #0]
   10244:	3301      	adds	r3, #1
   10246:	6013      	str	r3, [r2, #0]
   10248:	4b09      	ldr	r3, [pc, #36]	; (10270 <_sbrk+0x70>)
   1024a:	6018      	str	r0, [r3, #0]
   1024c:	4b09      	ldr	r3, [pc, #36]	; (10274 <_sbrk+0x74>)
   1024e:	6019      	str	r1, [r3, #0]
   10250:	bd70      	pop	{r4, r5, r6, pc}
   10252:	bf00      	nop
   10254:	2007c1c4 	.word	0x2007c1c4
   10258:	efff7fff 	.word	0xefff7fff
   1025c:	10073ffe 	.word	0x10073ffe
   10260:	2007c644 	.word	0x2007c644
   10264:	20083fff 	.word	0x20083fff
   10268:	20084000 	.word	0x20084000
   1026c:	2007c1cc 	.word	0x2007c1cc
   10270:	2007c1c0 	.word	0x2007c1c0
   10274:	2007c1c8 	.word	0x2007c1c8

00010278 <operator new(unsigned int)>:
_Znwj():
   10278:	f00c bd1e 	b.w	1ccb8 <malloc>

0001027c <operator delete(void*)>:
_ZdlPv():
   1027c:	f00c bd24 	b.w	1ccc8 <free>

00010280 <operator delete[](void*)>:
_ZdaPv():
   10280:	f00c bd22 	b.w	1ccc8 <free>

00010284 <sys_get_mem_info>:
sys_get_mem_info():
   10284:	b510      	push	{r4, lr}
   10286:	4604      	mov	r4, r0
   10288:	b08a      	sub	sp, #40	; 0x28
   1028a:	4668      	mov	r0, sp
   1028c:	f00c ffc0 	bl	1d210 <mallinfo>
   10290:	4a20      	ldr	r2, [pc, #128]	; (10314 <sys_get_mem_info+0x90>)
   10292:	4b21      	ldr	r3, [pc, #132]	; (10318 <sys_get_mem_info+0x94>)
   10294:	6022      	str	r2, [r4, #0]
   10296:	9a08      	ldr	r2, [sp, #32]
   10298:	4920      	ldr	r1, [pc, #128]	; (1031c <sys_get_mem_info+0x98>)
   1029a:	60a2      	str	r2, [r4, #8]
   1029c:	9a07      	ldr	r2, [sp, #28]
   1029e:	6062      	str	r2, [r4, #4]
   102a0:	b952      	cbnz	r2, 102b8 <sys_get_mem_info+0x34>
   102a2:	680a      	ldr	r2, [r1, #0]
   102a4:	481e      	ldr	r0, [pc, #120]	; (10320 <sys_get_mem_info+0x9c>)
   102a6:	4282      	cmp	r2, r0
   102a8:	bf8a      	itet	hi
   102aa:	f102 4260 	addhi.w	r2, r2, #3758096384	; 0xe0000000
   102ae:	f102 4270 	addls.w	r2, r2, #4026531840	; 0xf0000000
   102b2:	f5a2 22e8 	subhi.w	r2, r2, #475136	; 0x74000
   102b6:	6062      	str	r2, [r4, #4]
   102b8:	6862      	ldr	r2, [r4, #4]
   102ba:	f5b2 3f80 	cmp.w	r2, #65536	; 0x10000
   102be:	bf82      	ittt	hi
   102c0:	f102 4270 	addhi.w	r2, r2, #4026531840	; 0xf0000000
   102c4:	f5a2 22e8 	subhi.w	r2, r2, #475136	; 0x74000
   102c8:	6062      	strhi	r2, [r4, #4]
   102ca:	2200      	movs	r2, #0
   102cc:	60e2      	str	r2, [r4, #12]
   102ce:	680a      	ldr	r2, [r1, #0]
   102d0:	4913      	ldr	r1, [pc, #76]	; (10320 <sys_get_mem_info+0x9c>)
   102d2:	428a      	cmp	r2, r1
   102d4:	d805      	bhi.n	102e2 <sys_get_mem_info+0x5e>
   102d6:	f1c3 5340 	rsb	r3, r3, #805306368	; 0x30000000
   102da:	f503 230c 	add.w	r3, r3, #573440	; 0x8c000
   102de:	1a9b      	subs	r3, r3, r2
   102e0:	e009      	b.n	102f6 <sys_get_mem_info+0x72>
   102e2:	4910      	ldr	r1, [pc, #64]	; (10324 <sys_get_mem_info+0xa0>)
   102e4:	428a      	cmp	r2, r1
   102e6:	d807      	bhi.n	102f8 <sys_get_mem_info+0x74>
   102e8:	f1c3 4380 	rsb	r3, r3, #1073741824	; 0x40000000
   102ec:	f503 1380 	add.w	r3, r3, #1048576	; 0x100000
   102f0:	1a9b      	subs	r3, r3, r2
   102f2:	2b00      	cmp	r3, #0
   102f4:	dd00      	ble.n	102f8 <sys_get_mem_info+0x74>
   102f6:	60e3      	str	r3, [r4, #12]
   102f8:	4620      	mov	r0, r4
   102fa:	4b0b      	ldr	r3, [pc, #44]	; (10328 <sys_get_mem_info+0xa4>)
   102fc:	61e2      	str	r2, [r4, #28]
   102fe:	681b      	ldr	r3, [r3, #0]
   10300:	61a3      	str	r3, [r4, #24]
   10302:	4b0a      	ldr	r3, [pc, #40]	; (1032c <sys_get_mem_info+0xa8>)
   10304:	681b      	ldr	r3, [r3, #0]
   10306:	6163      	str	r3, [r4, #20]
   10308:	4b09      	ldr	r3, [pc, #36]	; (10330 <sys_get_mem_info+0xac>)
   1030a:	681b      	ldr	r3, [r3, #0]
   1030c:	6123      	str	r3, [r4, #16]
   1030e:	b00a      	add	sp, #40	; 0x28
   10310:	bd10      	pop	{r4, pc}
   10312:	bf00      	nop
   10314:	00000644 	.word	0x00000644
   10318:	2007c644 	.word	0x2007c644
   1031c:	2007c1c4 	.word	0x2007c1c4
   10320:	10008000 	.word	0x10008000
   10324:	20083fff 	.word	0x20083fff
   10328:	2007c1c0 	.word	0x2007c1c0
   1032c:	2007c1c8 	.word	0x2007c1c8
   10330:	2007c1cc 	.word	0x2007c1cc

00010334 <__gnu_cxx::__verbose_terminate_handler()>:
_ZN9__gnu_cxx27__verbose_terminate_handlerEv():
   10334:	e7fe      	b.n	10334 <__gnu_cxx::__verbose_terminate_handler()>
	...

00010338 <sys_set_outchar_func>:
sys_set_outchar_func():
   10338:	4b01      	ldr	r3, [pc, #4]	; (10340 <sys_set_outchar_func+0x8>)
   1033a:	6018      	str	r0, [r3, #0]
   1033c:	4770      	bx	lr
   1033e:	bf00      	nop
   10340:	2007c1d4 	.word	0x2007c1d4

00010344 <sys_set_inchar_func>:
sys_set_inchar_func():
   10344:	4b01      	ldr	r3, [pc, #4]	; (1034c <sys_set_inchar_func+0x8>)
   10346:	6018      	str	r0, [r3, #0]
   10348:	4770      	bx	lr
   1034a:	bf00      	nop
   1034c:	2007c1d0 	.word	0x2007c1d0

00010350 <_kill>:
_kill():
   10350:	b508      	push	{r3, lr}
   10352:	4802      	ldr	r0, [pc, #8]	; (1035c <_kill+0xc>)
   10354:	f00d feee 	bl	1e134 <puts>
   10358:	e7fe      	b.n	10358 <_kill+0x8>
   1035a:	bf00      	nop
   1035c:	00023000 	.word	0x00023000

00010360 <_exit>:
_exit():
   10360:	b508      	push	{r3, lr}
   10362:	4802      	ldr	r0, [pc, #8]	; (1036c <_exit+0xc>)
   10364:	f00d fee6 	bl	1e134 <puts>
   10368:	e7fe      	b.n	10368 <_exit+0x8>
   1036a:	bf00      	nop
   1036c:	0002301a 	.word	0x0002301a

00010370 <_getpid>:
_getpid():
   10370:	2000      	movs	r0, #0
   10372:	4770      	bx	lr

00010374 <_init>:
_init():
   10374:	2001      	movs	r0, #1
   10376:	4770      	bx	lr

00010378 <_write>:
_write():
   10378:	b5f8      	push	{r3, r4, r5, r6, r7, lr}
   1037a:	4b08      	ldr	r3, [pc, #32]	; (1039c <_write+0x24>)
   1037c:	4616      	mov	r6, r2
   1037e:	681a      	ldr	r2, [r3, #0]
   10380:	460f      	mov	r7, r1
   10382:	461c      	mov	r4, r3
   10384:	b142      	cbz	r2, 10398 <_write+0x20>
   10386:	460d      	mov	r5, r1
   10388:	1beb      	subs	r3, r5, r7
   1038a:	42b3      	cmp	r3, r6
   1038c:	da04      	bge.n	10398 <_write+0x20>
   1038e:	6823      	ldr	r3, [r4, #0]
   10390:	f815 0b01 	ldrb.w	r0, [r5], #1
   10394:	4798      	blx	r3
   10396:	e7f7      	b.n	10388 <_write+0x10>
   10398:	4630      	mov	r0, r6
   1039a:	bdf8      	pop	{r3, r4, r5, r6, r7, pc}
   1039c:	2007c1d4 	.word	0x2007c1d4

000103a0 <_read>:
_read():
   103a0:	b5f8      	push	{r3, r4, r5, r6, r7, lr}
   103a2:	4b09      	ldr	r3, [pc, #36]	; (103c8 <_read+0x28>)
   103a4:	460f      	mov	r7, r1
   103a6:	6818      	ldr	r0, [r3, #0]
   103a8:	4616      	mov	r6, r2
   103aa:	461c      	mov	r4, r3
   103ac:	b158      	cbz	r0, 103c6 <_read+0x26>
   103ae:	460d      	mov	r5, r1
   103b0:	1beb      	subs	r3, r5, r7
   103b2:	42b3      	cmp	r3, r6
   103b4:	da05      	bge.n	103c2 <_read+0x22>
   103b6:	6823      	ldr	r3, [r4, #0]
   103b8:	2000      	movs	r0, #0
   103ba:	4798      	blx	r3
   103bc:	f805 0b01 	strb.w	r0, [r5], #1
   103c0:	e7f6      	b.n	103b0 <_read+0x10>
   103c2:	ea26 70e6 	bic.w	r0, r6, r6, asr #31
   103c6:	bdf8      	pop	{r3, r4, r5, r6, r7, pc}
   103c8:	2007c1d0 	.word	0x2007c1d0

000103cc <syscalls_init>:
syscalls_init():
   103cc:	4770      	bx	lr

000103ce <_fstat>:
_fstat():
   103ce:	2000      	movs	r0, #0
   103d0:	4770      	bx	lr
	...

000103d4 <_isatty>:
_isatty():
   103d4:	4b07      	ldr	r3, [pc, #28]	; (103f4 <_isatty+0x20>)
   103d6:	681b      	ldr	r3, [r3, #0]
   103d8:	689a      	ldr	r2, [r3, #8]
   103da:	4282      	cmp	r2, r0
   103dc:	d007      	beq.n	103ee <_isatty+0x1a>
   103de:	685a      	ldr	r2, [r3, #4]
   103e0:	4282      	cmp	r2, r0
   103e2:	d004      	beq.n	103ee <_isatty+0x1a>
   103e4:	68db      	ldr	r3, [r3, #12]
   103e6:	1a1b      	subs	r3, r3, r0
   103e8:	4258      	negs	r0, r3
   103ea:	4158      	adcs	r0, r3
   103ec:	4770      	bx	lr
   103ee:	2001      	movs	r0, #1
   103f0:	4770      	bx	lr
   103f2:	bf00      	nop
   103f4:	2007c140 	.word	0x2007c140

000103f8 <_lseek>:
_lseek():
   103f8:	2000      	movs	r0, #0
   103fa:	4770      	bx	lr

000103fc <_close>:
_close():
   103fc:	2000      	movs	r0, #0
   103fe:	4770      	bx	lr

00010400 <_gettimeofday>:
_gettimeofday():
   10400:	b530      	push	{r4, r5, lr}
   10402:	4604      	mov	r4, r0
   10404:	b08d      	sub	sp, #52	; 0x34
   10406:	b3a8      	cbz	r0, 10474 <_gettimeofday+0x74>
   10408:	4668      	mov	r0, sp
   1040a:	f008 fb8b 	bl	18b24 <rtc_gettime>
   1040e:	f89d 3000 	ldrb.w	r3, [sp]
   10412:	2500      	movs	r5, #0
   10414:	f003 033f 	and.w	r3, r3, #63	; 0x3f
   10418:	9303      	str	r3, [sp, #12]
   1041a:	f89d 3001 	ldrb.w	r3, [sp, #1]
   1041e:	a803      	add	r0, sp, #12
   10420:	f003 033f 	and.w	r3, r3, #63	; 0x3f
   10424:	9304      	str	r3, [sp, #16]
   10426:	f89d 3002 	ldrb.w	r3, [sp, #2]
   1042a:	950b      	str	r5, [sp, #44]	; 0x2c
   1042c:	f003 031f 	and.w	r3, r3, #31
   10430:	9305      	str	r3, [sp, #20]
   10432:	f89d 3004 	ldrb.w	r3, [sp, #4]
   10436:	f003 031f 	and.w	r3, r3, #31
   1043a:	9306      	str	r3, [sp, #24]
   1043c:	f89d 3005 	ldrb.w	r3, [sp, #5]
   10440:	f003 030f 	and.w	r3, r3, #15
   10444:	3b01      	subs	r3, #1
   10446:	9307      	str	r3, [sp, #28]
   10448:	f8bd 3006 	ldrh.w	r3, [sp, #6]
   1044c:	f3c3 030b 	ubfx	r3, r3, #0, #12
   10450:	f2a3 736c 	subw	r3, r3, #1900	; 0x76c
   10454:	9308      	str	r3, [sp, #32]
   10456:	f89d 3003 	ldrb.w	r3, [sp, #3]
   1045a:	f003 0307 	and.w	r3, r3, #7
   1045e:	9309      	str	r3, [sp, #36]	; 0x24
   10460:	f8bd 3008 	ldrh.w	r3, [sp, #8]
   10464:	f3c3 030b 	ubfx	r3, r3, #0, #12
   10468:	3b01      	subs	r3, #1
   1046a:	930a      	str	r3, [sp, #40]	; 0x28
   1046c:	f00c fd56 	bl	1cf1c <mktime>
   10470:	e884 0021 	stmia.w	r4, {r0, r5}
   10474:	2000      	movs	r0, #0
   10476:	b00d      	add	sp, #52	; 0x34
   10478:	bd30      	pop	{r4, r5, pc}
	...

0001047c <Storage::getFlashDrive()>:
_ZN7Storage13getFlashDriveEv():
   1047c:	b570      	push	{r4, r5, r6, lr}
   1047e:	4d0f      	ldr	r5, [pc, #60]	; (104bc <Storage::getFlashDrive()+0x40>)
   10480:	4e0f      	ldr	r6, [pc, #60]	; (104c0 <Storage::getFlashDrive()+0x44>)
   10482:	682c      	ldr	r4, [r5, #0]
   10484:	f014 0401 	ands.w	r4, r4, #1
   10488:	d115      	bne.n	104b6 <Storage::getFlashDrive()+0x3a>
   1048a:	4628      	mov	r0, r5
   1048c:	f00a ff50 	bl	1b330 <__cxa_guard_acquire>
   10490:	b188      	cbz	r0, 104b6 <Storage::getFlashDrive()+0x3a>
   10492:	f44f 700e 	mov.w	r0, #568	; 0x238
   10496:	f7ff feef 	bl	10278 <operator new(unsigned int)>
   1049a:	2330      	movs	r3, #48	; 0x30
   1049c:	f880 3235 	strb.w	r3, [r0, #565]	; 0x235
   104a0:	233a      	movs	r3, #58	; 0x3a
   104a2:	f880 4234 	strb.w	r4, [r0, #564]	; 0x234
   104a6:	f880 3236 	strb.w	r3, [r0, #566]	; 0x236
   104aa:	f880 4237 	strb.w	r4, [r0, #567]	; 0x237
   104ae:	6030      	str	r0, [r6, #0]
   104b0:	4628      	mov	r0, r5
   104b2:	f00a ff49 	bl	1b348 <__cxa_guard_release>
   104b6:	6830      	ldr	r0, [r6, #0]
   104b8:	bd70      	pop	{r4, r5, r6, pc}
   104ba:	bf00      	nop
   104bc:	2007c1f4 	.word	0x2007c1f4
   104c0:	2007c1dc 	.word	0x2007c1dc

000104c4 <Storage::getSDDrive()>:
_ZN7Storage10getSDDriveEv():
   104c4:	b570      	push	{r4, r5, r6, lr}
   104c6:	4d0f      	ldr	r5, [pc, #60]	; (10504 <Storage::getSDDrive()+0x40>)
   104c8:	4e0f      	ldr	r6, [pc, #60]	; (10508 <Storage::getSDDrive()+0x44>)
   104ca:	682b      	ldr	r3, [r5, #0]
   104cc:	f013 0401 	ands.w	r4, r3, #1
   104d0:	d116      	bne.n	10500 <Storage::getSDDrive()+0x3c>
   104d2:	4628      	mov	r0, r5
   104d4:	f00a ff2c 	bl	1b330 <__cxa_guard_acquire>
   104d8:	b190      	cbz	r0, 10500 <Storage::getSDDrive()+0x3c>
   104da:	f44f 700e 	mov.w	r0, #568	; 0x238
   104de:	f7ff fecb 	bl	10278 <operator new(unsigned int)>
   104e2:	2301      	movs	r3, #1
   104e4:	f880 3234 	strb.w	r3, [r0, #564]	; 0x234
   104e8:	2331      	movs	r3, #49	; 0x31
   104ea:	f880 3235 	strb.w	r3, [r0, #565]	; 0x235
   104ee:	233a      	movs	r3, #58	; 0x3a
   104f0:	f880 3236 	strb.w	r3, [r0, #566]	; 0x236
   104f4:	f880 4237 	strb.w	r4, [r0, #567]	; 0x237
   104f8:	6030      	str	r0, [r6, #0]
   104fa:	4628      	mov	r0, r5
   104fc:	f00a ff24 	bl	1b348 <__cxa_guard_release>
   10500:	6830      	ldr	r0, [r6, #0]
   10502:	bd70      	pop	{r4, r5, r6, pc}
   10504:	2007c1f0 	.word	0x2007c1f0
   10508:	2007c1d8 	.word	0x2007c1d8

0001050c <taskListHandler(str&, CharDev&, void*)>:
_Z15taskListHandlerR3strR7CharDevPv():
   1050c:	e92d 47f0 	stmdb	sp!, {r4, r5, r6, r7, r8, r9, sl, lr}
   10510:	f5ad 7d0a 	sub.w	sp, sp, #552	; 0x228
   10514:	460f      	mov	r7, r1
   10516:	f007 ff48 	bl	183aa <str::operator int() const>
   1051a:	1e04      	subs	r4, r0, #0
   1051c:	dd04      	ble.n	10528 <taskListHandler(str&, CharDev&, void*)+0x1c>
   1051e:	f00a f97b 	bl	1a818 <vTaskResetRunTimeStats>
   10522:	4620      	mov	r0, r4
   10524:	f009 ff08 	bl	1a338 <vTaskDelay>
   10528:	f10d 0814 	add.w	r8, sp, #20
   1052c:	4644      	mov	r4, r8
   1052e:	4d2b      	ldr	r5, [pc, #172]	; (105dc <taskListHandler(str&, CharDev&, void*)+0xd0>)
   10530:	cd0f      	ldmia	r5!, {r0, r1, r2, r3}
   10532:	c40f      	stmia	r4!, {r0, r1, r2, r3}
   10534:	682b      	ldr	r3, [r5, #0]
   10536:	2110      	movs	r1, #16
   10538:	6023      	str	r3, [r4, #0]
   1053a:	eb0d 0201 	add.w	r2, sp, r1
   1053e:	2400      	movs	r4, #0
   10540:	a80a      	add	r0, sp, #40	; 0x28
   10542:	9404      	str	r4, [sp, #16]
   10544:	f009 ff22 	bl	1a38c <uxTaskGetSystemState>
   10548:	4925      	ldr	r1, [pc, #148]	; (105e0 <taskListHandler(str&, CharDev&, void*)+0xd4>)
   1054a:	4681      	mov	r9, r0
   1054c:	4a25      	ldr	r2, [pc, #148]	; (105e4 <taskListHandler(str&, CharDev&, void*)+0xd8>)
   1054e:	4638      	mov	r0, r7
   10550:	f008 fd98 	bl	19084 <CharDev::printf(char const*, ...)>
   10554:	4626      	mov	r6, r4
   10556:	ad0a      	add	r5, sp, #40	; 0x28
   10558:	f04f 0a00 	mov.w	sl, #0
   1055c:	45ca      	cmp	sl, r9
   1055e:	d01e      	beq.n	1059e <taskListHandler(str&, CharDev&, void*)+0x92>
   10560:	696b      	ldr	r3, [r5, #20]
   10562:	42a3      	cmp	r3, r4
   10564:	d117      	bne.n	10596 <taskListHandler(str&, CharDev&, void*)+0x8a>
   10566:	69aa      	ldr	r2, [r5, #24]
   10568:	9b04      	ldr	r3, [sp, #16]
   1056a:	4416      	add	r6, r2
   1056c:	b123      	cbz	r3, 10578 <taskListHandler(str&, CharDev&, void*)+0x6c>
   1056e:	2164      	movs	r1, #100	; 0x64
   10570:	fbb3 f3f1 	udiv	r3, r3, r1
   10574:	fbb2 f3f3 	udiv	r3, r2, r3
   10578:	f895 e00c 	ldrb.w	lr, [r5, #12]
   1057c:	9400      	str	r4, [sp, #0]
   1057e:	8ba9      	ldrh	r1, [r5, #28]
   10580:	9302      	str	r3, [sp, #8]
   10582:	0089      	lsls	r1, r1, #2
   10584:	9101      	str	r1, [sp, #4]
   10586:	9203      	str	r2, [sp, #12]
   10588:	4638      	mov	r0, r7
   1058a:	4917      	ldr	r1, [pc, #92]	; (105e8 <taskListHandler(str&, CharDev&, void*)+0xdc>)
   1058c:	686a      	ldr	r2, [r5, #4]
   1058e:	f858 302e 	ldr.w	r3, [r8, lr, lsl #2]
   10592:	f008 fd77 	bl	19084 <CharDev::printf(char const*, ...)>
   10596:	f10a 0a01 	add.w	sl, sl, #1
   1059a:	3520      	adds	r5, #32
   1059c:	e7de      	b.n	1055c <taskListHandler(str&, CharDev&, void*)+0x50>
   1059e:	3401      	adds	r4, #1
   105a0:	2c0a      	cmp	r4, #10
   105a2:	d1d8      	bne.n	10556 <taskListHandler(str&, CharDev&, void*)+0x4a>
   105a4:	9b04      	ldr	r3, [sp, #16]
   105a6:	2264      	movs	r2, #100	; 0x64
   105a8:	1b9e      	subs	r6, r3, r6
   105aa:	fbb3 f3f2 	udiv	r3, r3, r2
   105ae:	490f      	ldr	r1, [pc, #60]	; (105ec <taskListHandler(str&, CharDev&, void*)+0xe0>)
   105b0:	4a0f      	ldr	r2, [pc, #60]	; (105f0 <taskListHandler(str&, CharDev&, void*)+0xe4>)
   105b2:	fbb6 f3f3 	udiv	r3, r6, r3
   105b6:	9600      	str	r6, [sp, #0]
   105b8:	4638      	mov	r0, r7
   105ba:	f008 fd63 	bl	19084 <CharDev::printf(char const*, ...)>
   105be:	f009 fd9d 	bl	1a0fc <uxTaskGetNumberOfTasks>
   105c2:	2810      	cmp	r0, #16
   105c4:	d904      	bls.n	105d0 <taskListHandler(str&, CharDev&, void*)+0xc4>
   105c6:	4638      	mov	r0, r7
   105c8:	490a      	ldr	r1, [pc, #40]	; (105f4 <taskListHandler(str&, CharDev&, void*)+0xe8>)
   105ca:	2210      	movs	r2, #16
   105cc:	f008 fd5a 	bl	19084 <CharDev::printf(char const*, ...)>
   105d0:	2001      	movs	r0, #1
   105d2:	f50d 7d0a 	add.w	sp, sp, #552	; 0x228
   105d6:	e8bd 87f0 	ldmia.w	sp!, {r4, r5, r6, r7, r8, r9, sl, pc}
   105da:	bf00      	nop
   105dc:	00023034 	.word	0x00023034
   105e0:	00023053 	.word	0x00023053
   105e4:	0002307a 	.word	0x0002307a
   105e8:	0002307f 	.word	0x0002307f
   105ec:	0002309c 	.word	0x0002309c
   105f0:	000230bb 	.word	0x000230bb
   105f4:	000230c6 	.word	0x000230c6

000105f8 <memInfoHandler(str&, CharDev&, void*)>:
_Z14memInfoHandlerR3strR7CharDevPv():
   105f8:	b510      	push	{r4, lr}
   105fa:	460c      	mov	r4, r1
   105fc:	f5ad 7d00 	sub.w	sp, sp, #512	; 0x200
   10600:	4668      	mov	r0, sp
   10602:	f00a fc19 	bl	1ae38 <sys_get_mem_info_str>
   10606:	4620      	mov	r0, r4
   10608:	4669      	mov	r1, sp
   1060a:	f04f 32ff 	mov.w	r2, #4294967295
   1060e:	f008 fd03 	bl	19018 <CharDev::putline(char const*, unsigned int)>
   10612:	2001      	movs	r0, #1
   10614:	f50d 7d00 	add.w	sp, sp, #512	; 0x200
   10618:	bd10      	pop	{r4, pc}
	...

0001061c <timeHandler(str&, CharDev&, void*)>:
_Z11timeHandlerR3strR7CharDevPv():
   1061c:	b530      	push	{r4, r5, lr}
   1061e:	460c      	mov	r4, r1
   10620:	b091      	sub	sp, #68	; 0x44
   10622:	492c      	ldr	r1, [pc, #176]	; (106d4 <timeHandler(str&, CharDev&, void*)+0xb8>)
   10624:	4605      	mov	r5, r0
   10626:	f007 fdcc 	bl	181c2 <str::beginsWith(char const*) const>
   1062a:	2800      	cmp	r0, #0
   1062c:	d047      	beq.n	106be <timeHandler(str&, CharDev&, void*)+0xa2>
   1062e:	ab08      	add	r3, sp, #32
   10630:	9300      	str	r3, [sp, #0]
   10632:	ab09      	add	r3, sp, #36	; 0x24
   10634:	9301      	str	r3, [sp, #4]
   10636:	ab0a      	add	r3, sp, #40	; 0x28
   10638:	9302      	str	r3, [sp, #8]
   1063a:	ab0b      	add	r3, sp, #44	; 0x2c
   1063c:	9303      	str	r3, [sp, #12]
   1063e:	ab0c      	add	r3, sp, #48	; 0x30
   10640:	9304      	str	r3, [sp, #16]
   10642:	4628      	mov	r0, r5
   10644:	4924      	ldr	r1, [pc, #144]	; (106d8 <timeHandler(str&, CharDev&, void*)+0xbc>)
   10646:	aa06      	add	r2, sp, #24
   10648:	ab07      	add	r3, sp, #28
   1064a:	f007 fd22 	bl	18092 <str::scanf(char const*, ...)>
   1064e:	2807      	cmp	r0, #7
   10650:	d001      	beq.n	10656 <timeHandler(str&, CharDev&, void*)+0x3a>
   10652:	2000      	movs	r0, #0
   10654:	e03b      	b.n	106ce <timeHandler(str&, CharDev&, void*)+0xb2>
   10656:	f89d 3039 	ldrb.w	r3, [sp, #57]	; 0x39
   1065a:	9a06      	ldr	r2, [sp, #24]
   1065c:	a80d      	add	r0, sp, #52	; 0x34
   1065e:	f362 0303 	bfi	r3, r2, #0, #4
   10662:	f88d 3039 	strb.w	r3, [sp, #57]	; 0x39
   10666:	9a07      	ldr	r2, [sp, #28]
   10668:	f89d 3038 	ldrb.w	r3, [sp, #56]	; 0x38
   1066c:	f362 0304 	bfi	r3, r2, #0, #5
   10670:	f88d 3038 	strb.w	r3, [sp, #56]	; 0x38
   10674:	9a08      	ldr	r2, [sp, #32]
   10676:	f8bd 303a 	ldrh.w	r3, [sp, #58]	; 0x3a
   1067a:	f362 030b 	bfi	r3, r2, #0, #12
   1067e:	f8ad 303a 	strh.w	r3, [sp, #58]	; 0x3a
   10682:	9a09      	ldr	r2, [sp, #36]	; 0x24
   10684:	f89d 3036 	ldrb.w	r3, [sp, #54]	; 0x36
   10688:	f362 0304 	bfi	r3, r2, #0, #5
   1068c:	f88d 3036 	strb.w	r3, [sp, #54]	; 0x36
   10690:	9a0a      	ldr	r2, [sp, #40]	; 0x28
   10692:	f89d 3035 	ldrb.w	r3, [sp, #53]	; 0x35
   10696:	f362 0305 	bfi	r3, r2, #0, #6
   1069a:	f88d 3035 	strb.w	r3, [sp, #53]	; 0x35
   1069e:	9a0b      	ldr	r2, [sp, #44]	; 0x2c
   106a0:	f89d 3034 	ldrb.w	r3, [sp, #52]	; 0x34
   106a4:	f362 0305 	bfi	r3, r2, #0, #6
   106a8:	f88d 3034 	strb.w	r3, [sp, #52]	; 0x34
   106ac:	9a0c      	ldr	r2, [sp, #48]	; 0x30
   106ae:	f89d 3037 	ldrb.w	r3, [sp, #55]	; 0x37
   106b2:	f362 0302 	bfi	r3, r2, #0, #3
   106b6:	f88d 3037 	strb.w	r3, [sp, #55]	; 0x37
   106ba:	f008 fa5b 	bl	18b74 <rtc_settime>
   106be:	f008 faf5 	bl	18cac <rtc_get_date_time_str>
   106c2:	4906      	ldr	r1, [pc, #24]	; (106dc <timeHandler(str&, CharDev&, void*)+0xc0>)
   106c4:	4602      	mov	r2, r0
   106c6:	4620      	mov	r0, r4
   106c8:	f008 fcdc 	bl	19084 <CharDev::printf(char const*, ...)>
   106cc:	2001      	movs	r0, #1
   106ce:	b011      	add	sp, #68	; 0x44
   106d0:	bd30      	pop	{r4, r5, pc}
   106d2:	bf00      	nop
   106d4:	000230f0 	.word	0x000230f0
   106d8:	000230f4 	.word	0x000230f4
   106dc:	00025159 	.word	0x00025159

000106e0 <logHandler(str&, CharDev&, void*)>:
_Z10logHandlerR3strR7CharDevPv():
   106e0:	b5f7      	push	{r0, r1, r2, r4, r5, r6, r7, lr}
   106e2:	460d      	mov	r5, r1
   106e4:	494e      	ldr	r1, [pc, #312]	; (10820 <logHandler(str&, CharDev&, void*)+0x140>)
   106e6:	4604      	mov	r4, r0
   106e8:	f007 fe5b 	bl	183a2 <str::operator==(char const*) const>
   106ec:	4606      	mov	r6, r0
   106ee:	b140      	cbz	r0, 10702 <logHandler(str&, CharDev&, void*)+0x22>
   106f0:	f007 f88a 	bl	17808 <logger_send_flush_request>
   106f4:	4628      	mov	r0, r5
   106f6:	494b      	ldr	r1, [pc, #300]	; (10824 <logHandler(str&, CharDev&, void*)+0x144>)
   106f8:	f04f 32ff 	mov.w	r2, #4294967295
   106fc:	f008 fc8c 	bl	19018 <CharDev::putline(char const*, unsigned int)>
   10700:	e08b      	b.n	1081a <logHandler(str&, CharDev&, void*)+0x13a>
   10702:	4620      	mov	r0, r4
   10704:	4948      	ldr	r1, [pc, #288]	; (10828 <logHandler(str&, CharDev&, void*)+0x148>)
   10706:	f007 fe4c 	bl	183a2 <str::operator==(char const*) const>
   1070a:	b360      	cbz	r0, 10766 <logHandler(str&, CharDev&, void*)+0x86>
   1070c:	f007 f8a0 	bl	17850 <logger_get_blocked_call_count>
   10710:	4946      	ldr	r1, [pc, #280]	; (1082c <logHandler(str&, CharDev&, void*)+0x14c>)
   10712:	4602      	mov	r2, r0
   10714:	4628      	mov	r0, r5
   10716:	f008 fcb5 	bl	19084 <CharDev::printf(char const*, ...)>
   1071a:	f007 f8a5 	bl	17868 <logger_get_num_buffers_watermark>
   1071e:	4944      	ldr	r1, [pc, #272]	; (10830 <logHandler(str&, CharDev&, void*)+0x150>)
   10720:	4602      	mov	r2, r0
   10722:	4628      	mov	r0, r5
   10724:	f008 fcae 	bl	19084 <CharDev::printf(char const*, ...)>
   10728:	f007 f898 	bl	1785c <logger_get_highest_file_write_time_ms>
   1072c:	4941      	ldr	r1, [pc, #260]	; (10834 <logHandler(str&, CharDev&, void*)+0x154>)
   1072e:	4602      	mov	r2, r0
   10730:	4628      	mov	r0, r5
   10732:	f008 fca7 	bl	19084 <CharDev::printf(char const*, ...)>
   10736:	4630      	mov	r0, r6
   10738:	f007 f880 	bl	1783c <logger_get_logged_call_count>
   1073c:	4606      	mov	r6, r0
   1073e:	2001      	movs	r0, #1
   10740:	f007 f87c 	bl	1783c <logger_get_logged_call_count>
   10744:	4604      	mov	r4, r0
   10746:	2002      	movs	r0, #2
   10748:	f007 f878 	bl	1783c <logger_get_logged_call_count>
   1074c:	4607      	mov	r7, r0
   1074e:	2003      	movs	r0, #3
   10750:	f007 f874 	bl	1783c <logger_get_logged_call_count>
   10754:	9700      	str	r7, [sp, #0]
   10756:	9001      	str	r0, [sp, #4]
   10758:	4937      	ldr	r1, [pc, #220]	; (10838 <logHandler(str&, CharDev&, void*)+0x158>)
   1075a:	4628      	mov	r0, r5
   1075c:	4632      	mov	r2, r6
   1075e:	4623      	mov	r3, r4
   10760:	f008 fc90 	bl	19084 <CharDev::printf(char const*, ...)>
   10764:	e059      	b.n	1081a <logHandler(str&, CharDev&, void*)+0x13a>
   10766:	4620      	mov	r0, r4
   10768:	4934      	ldr	r1, [pc, #208]	; (1083c <logHandler(str&, CharDev&, void*)+0x15c>)
   1076a:	f007 fd2a 	bl	181c2 <str::beginsWith(char const*) const>
   1076e:	b150      	cbz	r0, 10786 <logHandler(str&, CharDev&, void*)+0xa6>
   10770:	2101      	movs	r1, #1
   10772:	2220      	movs	r2, #32
   10774:	4620      	mov	r0, r4
   10776:	f007 fdc2 	bl	182fe <str::eraseFirstWords(int, char)>
   1077a:	4620      	mov	r0, r4
   1077c:	f007 fe13 	bl	183a6 <str::operator()() const>
   10780:	f007 f98e 	bl	17aa0 <logger_log_raw>
   10784:	e049      	b.n	1081a <logHandler(str&, CharDev&, void*)+0x13a>
   10786:	4620      	mov	r0, r4
   10788:	492d      	ldr	r1, [pc, #180]	; (10840 <logHandler(str&, CharDev&, void*)+0x160>)
   1078a:	f007 fd1a 	bl	181c2 <str::beginsWith(char const*) const>
   1078e:	4606      	mov	r6, r0
   10790:	b920      	cbnz	r0, 1079c <logHandler(str&, CharDev&, void*)+0xbc>
   10792:	4620      	mov	r0, r4
   10794:	492b      	ldr	r1, [pc, #172]	; (10844 <logHandler(str&, CharDev&, void*)+0x164>)
   10796:	f007 fd14 	bl	181c2 <str::beginsWith(char const*) const>
   1079a:	b360      	cbz	r0, 107f6 <logHandler(str&, CharDev&, void*)+0x116>
   1079c:	4620      	mov	r0, r4
   1079e:	492a      	ldr	r1, [pc, #168]	; (10848 <logHandler(str&, CharDev&, void*)+0x168>)
   107a0:	f007 fcfd 	bl	1819e <str::containsIgnoreCase(char const*) const>
   107a4:	b960      	cbnz	r0, 107c0 <logHandler(str&, CharDev&, void*)+0xe0>
   107a6:	4620      	mov	r0, r4
   107a8:	4928      	ldr	r1, [pc, #160]	; (1084c <logHandler(str&, CharDev&, void*)+0x16c>)
   107aa:	f007 fcf8 	bl	1819e <str::containsIgnoreCase(char const*) const>
   107ae:	b928      	cbnz	r0, 107bc <logHandler(str&, CharDev&, void*)+0xdc>
   107b0:	4620      	mov	r0, r4
   107b2:	4927      	ldr	r1, [pc, #156]	; (10850 <logHandler(str&, CharDev&, void*)+0x170>)
   107b4:	f007 fcf3 	bl	1819e <str::containsIgnoreCase(char const*) const>
   107b8:	4604      	mov	r4, r0
   107ba:	e002      	b.n	107c2 <logHandler(str&, CharDev&, void*)+0xe2>
   107bc:	2403      	movs	r4, #3
   107be:	e000      	b.n	107c2 <logHandler(str&, CharDev&, void*)+0xe2>
   107c0:	2402      	movs	r4, #2
   107c2:	4620      	mov	r0, r4
   107c4:	4631      	mov	r1, r6
   107c6:	f007 f8c1 	bl	1794c <logger_set_printf>
   107ca:	4a22      	ldr	r2, [pc, #136]	; (10854 <logHandler(str&, CharDev&, void*)+0x174>)
   107cc:	4b22      	ldr	r3, [pc, #136]	; (10858 <logHandler(str&, CharDev&, void*)+0x178>)
   107ce:	2e00      	cmp	r6, #0
   107d0:	bf18      	it	ne
   107d2:	461a      	movne	r2, r3
   107d4:	b13c      	cbz	r4, 107e6 <logHandler(str&, CharDev&, void*)+0x106>
   107d6:	2c01      	cmp	r4, #1
   107d8:	d007      	beq.n	107ea <logHandler(str&, CharDev&, void*)+0x10a>
   107da:	491c      	ldr	r1, [pc, #112]	; (1084c <logHandler(str&, CharDev&, void*)+0x16c>)
   107dc:	4b1a      	ldr	r3, [pc, #104]	; (10848 <logHandler(str&, CharDev&, void*)+0x168>)
   107de:	2c02      	cmp	r4, #2
   107e0:	bf18      	it	ne
   107e2:	460b      	movne	r3, r1
   107e4:	e002      	b.n	107ec <logHandler(str&, CharDev&, void*)+0x10c>
   107e6:	4b1d      	ldr	r3, [pc, #116]	; (1085c <logHandler(str&, CharDev&, void*)+0x17c>)
   107e8:	e000      	b.n	107ec <logHandler(str&, CharDev&, void*)+0x10c>
   107ea:	4b19      	ldr	r3, [pc, #100]	; (10850 <logHandler(str&, CharDev&, void*)+0x170>)
   107ec:	4628      	mov	r0, r5
   107ee:	491c      	ldr	r1, [pc, #112]	; (10860 <logHandler(str&, CharDev&, void*)+0x180>)
   107f0:	f008 fc48 	bl	19084 <CharDev::printf(char const*, ...)>
   107f4:	e011      	b.n	1081a <logHandler(str&, CharDev&, void*)+0x13a>
   107f6:	4620      	mov	r0, r4
   107f8:	f007 fdd5 	bl	183a6 <str::operator()() const>
   107fc:	4919      	ldr	r1, [pc, #100]	; (10864 <logHandler(str&, CharDev&, void*)+0x184>)
   107fe:	4a1a      	ldr	r2, [pc, #104]	; (10868 <logHandler(str&, CharDev&, void*)+0x188>)
   10800:	9000      	str	r0, [sp, #0]
   10802:	23f5      	movs	r3, #245	; 0xf5
   10804:	2001      	movs	r0, #1
   10806:	f007 f8af 	bl	17968 <logger_log>
   1080a:	4620      	mov	r0, r4
   1080c:	f007 fdcb 	bl	183a6 <str::operator()() const>
   10810:	4916      	ldr	r1, [pc, #88]	; (1086c <logHandler(str&, CharDev&, void*)+0x18c>)
   10812:	4602      	mov	r2, r0
   10814:	4628      	mov	r0, r5
   10816:	f008 fc35 	bl	19084 <CharDev::printf(char const*, ...)>
   1081a:	2001      	movs	r0, #1
   1081c:	b003      	add	sp, #12
   1081e:	bdf0      	pop	{r4, r5, r6, r7, pc}
   10820:	0002312f 	.word	0x0002312f
   10824:	00023135 	.word	0x00023135
   10828:	0002314e 	.word	0x0002314e
   1082c:	00023155 	.word	0x00023155
   10830:	0002316a 	.word	0x0002316a
   10834:	0002317f 	.word	0x0002317f
   10838:	0002319e 	.word	0x0002319e
   1083c:	000231ce 	.word	0x000231ce
   10840:	000231d2 	.word	0x000231d2
   10844:	000231da 	.word	0x000231da
   10848:	0002312a 	.word	0x0002312a
   1084c:	00023124 	.word	0x00023124
   10850:	000243d4 	.word	0x000243d4
   10854:	00023115 	.word	0x00023115
   10858:	0002310d 	.word	0x0002310d
   1085c:	0002311e 	.word	0x0002311e
   10860:	000231e3 	.word	0x000231e3
   10864:	000231fc 	.word	0x000231fc
   10868:	00023048 	.word	0x00023048
   1086c:	0002322f 	.word	0x0002322f

00010870 <cpHandler(str&, CharDev&, void*)>:
_Z9cpHandlerR3strR7CharDevPv():
   10870:	b530      	push	{r4, r5, lr}
   10872:	b089      	sub	sp, #36	; 0x24
   10874:	ab04      	add	r3, sp, #16
   10876:	2400      	movs	r4, #0
   10878:	9300      	str	r3, [sp, #0]
   1087a:	460d      	mov	r5, r1
   1087c:	2202      	movs	r2, #2
   1087e:	4919      	ldr	r1, [pc, #100]	; (108e4 <cpHandler(str&, CharDev&, void*)+0x74>)
   10880:	ab03      	add	r3, sp, #12
   10882:	9403      	str	r4, [sp, #12]
   10884:	9404      	str	r4, [sp, #16]
   10886:	f007 fc12 	bl	180ae <str::tokenize(char const*, int, ...)>
   1088a:	2802      	cmp	r0, #2
   1088c:	d127      	bne.n	108de <cpHandler(str&, CharDev&, void*)+0x6e>
   1088e:	ab07      	add	r3, sp, #28
   10890:	9300      	str	r3, [sp, #0]
   10892:	aa05      	add	r2, sp, #20
   10894:	9803      	ldr	r0, [sp, #12]
   10896:	9904      	ldr	r1, [sp, #16]
   10898:	ab06      	add	r3, sp, #24
   1089a:	9405      	str	r4, [sp, #20]
   1089c:	9406      	str	r4, [sp, #24]
   1089e:	9407      	str	r4, [sp, #28]
   108a0:	f003 fce8 	bl	14274 <Storage::copy(char const*, char const*, unsigned int*, unsigned int*, unsigned int*)>
   108a4:	4602      	mov	r2, r0
   108a6:	b138      	cbz	r0, 108b8 <cpHandler(str&, CharDev&, void*)+0x48>
   108a8:	9b04      	ldr	r3, [sp, #16]
   108aa:	4628      	mov	r0, r5
   108ac:	9300      	str	r3, [sp, #0]
   108ae:	490e      	ldr	r1, [pc, #56]	; (108e8 <cpHandler(str&, CharDev&, void*)+0x78>)
   108b0:	9b03      	ldr	r3, [sp, #12]
   108b2:	f008 fbe7 	bl	19084 <CharDev::printf(char const*, ...)>
   108b6:	e010      	b.n	108da <cpHandler(str&, CharDev&, void*)+0x6a>
   108b8:	9a05      	ldr	r2, [sp, #20]
   108ba:	9b06      	ldr	r3, [sp, #24]
   108bc:	2a00      	cmp	r2, #0
   108be:	9c07      	ldr	r4, [sp, #28]
   108c0:	bf08      	it	eq
   108c2:	2201      	moveq	r2, #1
   108c4:	2b00      	cmp	r3, #0
   108c6:	bf08      	it	eq
   108c8:	2301      	moveq	r3, #1
   108ca:	4628      	mov	r0, r5
   108cc:	4907      	ldr	r1, [pc, #28]	; (108ec <cpHandler(str&, CharDev&, void*)+0x7c>)
   108ce:	fbb4 f2f2 	udiv	r2, r4, r2
   108d2:	fbb4 f3f3 	udiv	r3, r4, r3
   108d6:	f008 fbd5 	bl	19084 <CharDev::printf(char const*, ...)>
   108da:	2001      	movs	r0, #1
   108dc:	e000      	b.n	108e0 <cpHandler(str&, CharDev&, void*)+0x70>
   108de:	4620      	mov	r0, r4
   108e0:	b009      	add	sp, #36	; 0x24
   108e2:	bd30      	pop	{r4, r5, pc}
   108e4:	00024332 	.word	0x00024332
   108e8:	0002323d 	.word	0x0002323d
   108ec:	0002325c 	.word	0x0002325c

000108f0 <catHandler(str&, CharDev&, void*)>:
_Z10catHandlerR3strR7CharDevPv():
   108f0:	e92d 47f0 	stmdb	sp!, {r4, r5, r6, r7, r8, r9, sl, lr}
   108f4:	460d      	mov	r5, r1
   108f6:	f5ad 6d85 	sub.w	sp, sp, #1064	; 0x428
   108fa:	493b      	ldr	r1, [pc, #236]	; (109e8 <catHandler(str&, CharDev&, void*)+0xf8>)
   108fc:	4606      	mov	r6, r0
   108fe:	f007 fcea 	bl	182d6 <str::erase(char const*)>
   10902:	493a      	ldr	r1, [pc, #232]	; (109ec <catHandler(str&, CharDev&, void*)+0xfc>)
   10904:	4681      	mov	r9, r0
   10906:	4630      	mov	r0, r6
   10908:	f007 fd0e 	bl	18328 <str::trimStart(char const*)>
   1090c:	4937      	ldr	r1, [pc, #220]	; (109ec <catHandler(str&, CharDev&, void*)+0xfc>)
   1090e:	4630      	mov	r0, r6
   10910:	f007 fd2a 	bl	18368 <str::trimEnd(char const*)>
   10914:	4630      	mov	r0, r6
   10916:	f007 fd46 	bl	183a6 <str::operator()() const>
   1091a:	2201      	movs	r2, #1
   1091c:	4601      	mov	r1, r0
   1091e:	a881      	add	r0, sp, #516	; 0x204
   10920:	f005 fcc8 	bl	162b4 <f_open>
   10924:	4604      	mov	r4, r0
   10926:	b140      	cbz	r0, 1093a <catHandler(str&, CharDev&, void*)+0x4a>
   10928:	4630      	mov	r0, r6
   1092a:	f007 fd3c 	bl	183a6 <str::operator()() const>
   1092e:	4930      	ldr	r1, [pc, #192]	; (109f0 <catHandler(str&, CharDev&, void*)+0x100>)
   10930:	4602      	mov	r2, r0
   10932:	4628      	mov	r0, r5
   10934:	f008 fba6 	bl	19084 <CharDev::printf(char const*, ...)>
   10938:	e050      	b.n	109dc <catHandler(str&, CharDev&, void*)+0xec>
   1093a:	f10d 0a04 	add.w	sl, sp, #4
   1093e:	4621      	mov	r1, r4
   10940:	f44f 7200 	mov.w	r2, #512	; 0x200
   10944:	4650      	mov	r0, sl
   10946:	f00c fa0b 	bl	1cd60 <memset>
   1094a:	9400      	str	r4, [sp, #0]
   1094c:	f00a fa60 	bl	1ae10 <sys_get_uptime_us>
   10950:	46a0      	mov	r8, r4
   10952:	4606      	mov	r6, r0
   10954:	460f      	mov	r7, r1
   10956:	a881      	add	r0, sp, #516	; 0x204
   10958:	4651      	mov	r1, sl
   1095a:	f44f 7200 	mov.w	r2, #512	; 0x200
   1095e:	466b      	mov	r3, sp
   10960:	f005 fd41 	bl	163e6 <f_read>
   10964:	b908      	cbnz	r0, 1096a <catHandler(str&, CharDev&, void*)+0x7a>
   10966:	9b00      	ldr	r3, [sp, #0]
   10968:	bb33      	cbnz	r3, 109b8 <catHandler(str&, CharDev&, void*)+0xc8>
   1096a:	a881      	add	r0, sp, #516	; 0x204
   1096c:	f005 ff13 	bl	16796 <f_close>
   10970:	f1b9 0f00 	cmp.w	r9, #0
   10974:	d019      	beq.n	109aa <catHandler(str&, CharDev&, void*)+0xba>
   10976:	f00a fa4b 	bl	1ae10 <sys_get_uptime_us>
   1097a:	f44f 727a 	mov.w	r2, #1000	; 0x3e8
   1097e:	2300      	movs	r3, #0
   10980:	f00b fcb2 	bl	1c2e8 <__aeabi_uldivmod>
   10984:	2300      	movs	r3, #0
   10986:	4604      	mov	r4, r0
   10988:	f44f 727a 	mov.w	r2, #1000	; 0x3e8
   1098c:	4630      	mov	r0, r6
   1098e:	4639      	mov	r1, r7
   10990:	f00b fcaa 	bl	1c2e8 <__aeabi_uldivmod>
   10994:	1a20      	subs	r0, r4, r0
   10996:	bf14      	ite	ne
   10998:	4603      	movne	r3, r0
   1099a:	2301      	moveq	r3, #1
   1099c:	4628      	mov	r0, r5
   1099e:	4915      	ldr	r1, [pc, #84]	; (109f4 <catHandler(str&, CharDev&, void*)+0x104>)
   109a0:	4642      	mov	r2, r8
   109a2:	fbb8 f3f3 	udiv	r3, r8, r3
   109a6:	f008 fb6d 	bl	19084 <CharDev::printf(char const*, ...)>
   109aa:	4628      	mov	r0, r5
   109ac:	4912      	ldr	r1, [pc, #72]	; (109f8 <catHandler(str&, CharDev&, void*)+0x108>)
   109ae:	f04f 32ff 	mov.w	r2, #4294967295
   109b2:	f008 fb31 	bl	19018 <CharDev::putline(char const*, unsigned int)>
   109b6:	e011      	b.n	109dc <catHandler(str&, CharDev&, void*)+0xec>
   109b8:	4498      	add	r8, r3
   109ba:	f1b9 0f00 	cmp.w	r9, #0
   109be:	d1ca      	bne.n	10956 <catHandler(str&, CharDev&, void*)+0x66>
   109c0:	464c      	mov	r4, r9
   109c2:	9b00      	ldr	r3, [sp, #0]
   109c4:	429c      	cmp	r4, r3
   109c6:	d2c6      	bcs.n	10956 <catHandler(str&, CharDev&, void*)+0x66>
   109c8:	682b      	ldr	r3, [r5, #0]
   109ca:	f81a 1004 	ldrb.w	r1, [sl, r4]
   109ce:	685b      	ldr	r3, [r3, #4]
   109d0:	4628      	mov	r0, r5
   109d2:	f04f 32ff 	mov.w	r2, #4294967295
   109d6:	4798      	blx	r3
   109d8:	3401      	adds	r4, #1
   109da:	e7f2      	b.n	109c2 <catHandler(str&, CharDev&, void*)+0xd2>
   109dc:	2001      	movs	r0, #1
   109de:	f50d 6d85 	add.w	sp, sp, #1064	; 0x428
   109e2:	e8bd 87f0 	ldmia.w	sp!, {r4, r5, r6, r7, r8, r9, sl, pc}
   109e6:	bf00      	nop
   109e8:	0002328a 	.word	0x0002328a
   109ec:	00024332 	.word	0x00024332
   109f0:	00023293 	.word	0x00023293
   109f4:	000232a7 	.word	0x000232a7
   109f8:	000238a2 	.word	0x000238a2

000109fc <lsHandler(str&, CharDev&, void*)>:
_Z9lsHandlerR3strR7CharDevPv():
   109fc:	e92d 47f0 	stmdb	sp!, {r4, r5, r6, r7, r8, r9, sl, lr}
   10a00:	2300      	movs	r3, #0
   10a02:	b0be      	sub	sp, #248	; 0xf8
   10a04:	460c      	mov	r4, r1
   10a06:	4955      	ldr	r1, [pc, #340]	; (10b5c <lsHandler(str&, CharDev&, void*)+0x160>)
   10a08:	4605      	mov	r5, r0
   10a0a:	930c      	str	r3, [sp, #48]	; 0x30
   10a0c:	f007 fcc9 	bl	183a2 <str::operator==(char const*) const>
   10a10:	b920      	cbnz	r0, 10a1c <lsHandler(str&, CharDev&, void*)+0x20>
   10a12:	4628      	mov	r0, r5
   10a14:	f007 fcc7 	bl	183a6 <str::operator()() const>
   10a18:	4606      	mov	r6, r0
   10a1a:	e000      	b.n	10a1e <lsHandler(str&, CharDev&, void*)+0x22>
   10a1c:	4e50      	ldr	r6, [pc, #320]	; (10b60 <lsHandler(str&, CharDev&, void*)+0x164>)
   10a1e:	a815      	add	r0, sp, #84	; 0x54
   10a20:	4631      	mov	r1, r6
   10a22:	f005 ff70 	bl	16906 <f_opendir>
   10a26:	4605      	mov	r5, r0
   10a28:	4620      	mov	r0, r4
   10a2a:	b12d      	cbz	r5, 10a38 <lsHandler(str&, CharDev&, void*)+0x3c>
   10a2c:	494d      	ldr	r1, [pc, #308]	; (10b64 <lsHandler(str&, CharDev&, void*)+0x168>)
   10a2e:	4632      	mov	r2, r6
   10a30:	462b      	mov	r3, r5
   10a32:	f008 fb27 	bl	19084 <CharDev::printf(char const*, ...)>
   10a36:	e08c      	b.n	10b52 <lsHandler(str&, CharDev&, void*)+0x156>
   10a38:	494b      	ldr	r1, [pc, #300]	; (10b68 <lsHandler(str&, CharDev&, void*)+0x16c>)
   10a3a:	4632      	mov	r2, r6
   10a3c:	f008 fb22 	bl	19084 <CharDev::printf(char const*, ...)>
   10a40:	46a8      	mov	r8, r5
   10a42:	af1e      	add	r7, sp, #120	; 0x78
   10a44:	2380      	movs	r3, #128	; 0x80
   10a46:	a815      	add	r0, sp, #84	; 0x54
   10a48:	a90d      	add	r1, sp, #52	; 0x34
   10a4a:	9713      	str	r7, [sp, #76]	; 0x4c
   10a4c:	9314      	str	r3, [sp, #80]	; 0x50
   10a4e:	f005 ff9e 	bl	1698e <f_readdir>
   10a52:	2800      	cmp	r0, #0
   10a54:	d165      	bne.n	10b22 <lsHandler(str&, CharDev&, void*)+0x126>
   10a56:	f89d 303d 	ldrb.w	r3, [sp, #61]	; 0x3d
   10a5a:	2b00      	cmp	r3, #0
   10a5c:	d061      	beq.n	10b22 <lsHandler(str&, CharDev&, void*)+0x126>
   10a5e:	f89d 103c 	ldrb.w	r1, [sp, #60]	; 0x3c
   10a62:	f8dd c034 	ldr.w	ip, [sp, #52]	; 0x34
   10a66:	f011 0f10 	tst.w	r1, #16
   10a6a:	bf09      	itett	eq
   10a6c:	9b0c      	ldreq	r3, [sp, #48]	; 0x30
   10a6e:	2244      	movne	r2, #68	; 0x44
   10a70:	4463      	addeq	r3, ip
   10a72:	930c      	streq	r3, [sp, #48]	; 0x30
   10a74:	bf0a      	itet	eq
   10a76:	222d      	moveq	r2, #45	; 0x2d
   10a78:	3501      	addne	r5, #1
   10a7a:	f108 0801 	addeq.w	r8, r8, #1
   10a7e:	f011 0f01 	tst.w	r1, #1
   10a82:	bf14      	ite	ne
   10a84:	2352      	movne	r3, #82	; 0x52
   10a86:	232d      	moveq	r3, #45	; 0x2d
   10a88:	f011 0f02 	tst.w	r1, #2
   10a8c:	bf14      	ite	ne
   10a8e:	f04f 0a48 	movne.w	sl, #72	; 0x48
   10a92:	f04f 0a2d 	moveq.w	sl, #45	; 0x2d
   10a96:	f011 0f04 	tst.w	r1, #4
   10a9a:	bf14      	ite	ne
   10a9c:	f04f 0953 	movne.w	r9, #83	; 0x53
   10aa0:	f04f 092d 	moveq.w	r9, #45	; 0x2d
   10aa4:	f011 0f20 	tst.w	r1, #32
   10aa8:	f8bd 1038 	ldrh.w	r1, [sp, #56]	; 0x38
   10aac:	bf14      	ite	ne
   10aae:	f04f 0e41 	movne.w	lr, #65	; 0x41
   10ab2:	f04f 0e2d 	moveq.w	lr, #45	; 0x2d
   10ab6:	f8cd e008 	str.w	lr, [sp, #8]
   10aba:	ea4f 2e61 	mov.w	lr, r1, asr #9
   10abe:	f8bd 003a 	ldrh.w	r0, [sp, #58]	; 0x3a
   10ac2:	f20e 7ebc 	addw	lr, lr, #1980	; 0x7bc
   10ac6:	f8cd e00c 	str.w	lr, [sp, #12]
   10aca:	f3c1 1e43 	ubfx	lr, r1, #5, #4
   10ace:	f001 011f 	and.w	r1, r1, #31
   10ad2:	9105      	str	r1, [sp, #20]
   10ad4:	12c1      	asrs	r1, r0, #11
   10ad6:	9106      	str	r1, [sp, #24]
   10ad8:	f3c0 1045 	ubfx	r0, r0, #5, #6
   10adc:	f10d 013d 	add.w	r1, sp, #61	; 0x3d
   10ae0:	f8cd e010 	str.w	lr, [sp, #16]
   10ae4:	f8cd c020 	str.w	ip, [sp, #32]
   10ae8:	9007      	str	r0, [sp, #28]
   10aea:	9109      	str	r1, [sp, #36]	; 0x24
   10aec:	f8cd a000 	str.w	sl, [sp]
   10af0:	f8cd 9004 	str.w	r9, [sp, #4]
   10af4:	4620      	mov	r0, r4
   10af6:	491d      	ldr	r1, [pc, #116]	; (10b6c <lsHandler(str&, CharDev&, void*)+0x170>)
   10af8:	f008 fac4 	bl	19084 <CharDev::printf(char const*, ...)>
   10afc:	4620      	mov	r0, r4
   10afe:	491c      	ldr	r1, [pc, #112]	; (10b70 <lsHandler(str&, CharDev&, void*)+0x174>)
   10b00:	f04f 32ff 	mov.w	r2, #4294967295
   10b04:	f008 fa74 	bl	18ff0 <CharDev::put(char const*, unsigned int)>
   10b08:	4639      	mov	r1, r7
   10b0a:	4620      	mov	r0, r4
   10b0c:	f04f 32ff 	mov.w	r2, #4294967295
   10b10:	f008 fa6e 	bl	18ff0 <CharDev::put(char const*, unsigned int)>
   10b14:	4620      	mov	r0, r4
   10b16:	4911      	ldr	r1, [pc, #68]	; (10b5c <lsHandler(str&, CharDev&, void*)+0x160>)
   10b18:	f04f 32ff 	mov.w	r2, #4294967295
   10b1c:	f008 fa7c 	bl	19018 <CharDev::putline(char const*, unsigned int)>
   10b20:	e78f      	b.n	10a42 <lsHandler(str&, CharDev&, void*)+0x46>
   10b22:	9500      	str	r5, [sp, #0]
   10b24:	ad3e      	add	r5, sp, #248	; 0xf8
   10b26:	f855 3dc8 	ldr.w	r3, [r5, #-200]!
   10b2a:	4912      	ldr	r1, [pc, #72]	; (10b74 <lsHandler(str&, CharDev&, void*)+0x178>)
   10b2c:	4642      	mov	r2, r8
   10b2e:	4620      	mov	r0, r4
   10b30:	f008 faa8 	bl	19084 <CharDev::printf(char const*, ...)>
   10b34:	4630      	mov	r0, r6
   10b36:	4629      	mov	r1, r5
   10b38:	aa0b      	add	r2, sp, #44	; 0x2c
   10b3a:	f005 ff57 	bl	169ec <f_getfree>
   10b3e:	b940      	cbnz	r0, 10b52 <lsHandler(str&, CharDev&, void*)+0x156>
   10b40:	9b0b      	ldr	r3, [sp, #44]	; 0x2c
   10b42:	4620      	mov	r0, r4
   10b44:	789a      	ldrb	r2, [r3, #2]
   10b46:	9b0c      	ldr	r3, [sp, #48]	; 0x30
   10b48:	490b      	ldr	r1, [pc, #44]	; (10b78 <lsHandler(str&, CharDev&, void*)+0x17c>)
   10b4a:	435a      	muls	r2, r3
   10b4c:	0852      	lsrs	r2, r2, #1
   10b4e:	f008 fa99 	bl	19084 <CharDev::printf(char const*, ...)>
   10b52:	2001      	movs	r0, #1
   10b54:	b03e      	add	sp, #248	; 0xf8
   10b56:	e8bd 87f0 	ldmia.w	sp!, {r4, r5, r6, r7, r8, r9, sl, pc}
   10b5a:	bf00      	nop
   10b5c:	000238a2 	.word	0x000238a2
   10b60:	000232c2 	.word	0x000232c2
   10b64:	000232c5 	.word	0x000232c5
   10b68:	000232e9 	.word	0x000232e9
   10b6c:	00023304 	.word	0x00023304
   10b70:	00023331 	.word	0x00023331
   10b74:	00023335 	.word	0x00023335
   10b78:	0002335f 	.word	0x0002335f

00010b7c <mkdirHandler(str&, CharDev&, void*)>:
_Z12mkdirHandlerR3strR7CharDevPv():
   10b7c:	b570      	push	{r4, r5, r6, lr}
   10b7e:	460d      	mov	r5, r1
   10b80:	4606      	mov	r6, r0
   10b82:	f007 fc10 	bl	183a6 <str::operator()() const>
   10b86:	4604      	mov	r4, r0
   10b88:	4630      	mov	r0, r6
   10b8a:	f007 fc0c 	bl	183a6 <str::operator()() const>
   10b8e:	f005 ffef 	bl	16b70 <f_mkdir>
   10b92:	4a06      	ldr	r2, [pc, #24]	; (10bac <mkdirHandler(str&, CharDev&, void*)+0x30>)
   10b94:	4b06      	ldr	r3, [pc, #24]	; (10bb0 <mkdirHandler(str&, CharDev&, void*)+0x34>)
   10b96:	4907      	ldr	r1, [pc, #28]	; (10bb4 <mkdirHandler(str&, CharDev&, void*)+0x38>)
   10b98:	2800      	cmp	r0, #0
   10b9a:	bf18      	it	ne
   10b9c:	4613      	movne	r3, r2
   10b9e:	4628      	mov	r0, r5
   10ba0:	4622      	mov	r2, r4
   10ba2:	f008 fa6f 	bl	19084 <CharDev::printf(char const*, ...)>
   10ba6:	2001      	movs	r0, #1
   10ba8:	bd70      	pop	{r4, r5, r6, pc}
   10baa:	bf00      	nop
   10bac:	0002351f 	.word	0x0002351f
   10bb0:	00023515 	.word	0x00023515
   10bb4:	00023373 	.word	0x00023373

00010bb8 <rmHandler(str&, CharDev&, void*)>:
_Z9rmHandlerR3strR7CharDevPv():
   10bb8:	b570      	push	{r4, r5, r6, lr}
   10bba:	460d      	mov	r5, r1
   10bbc:	4606      	mov	r6, r0
   10bbe:	f007 fbf2 	bl	183a6 <str::operator()() const>
   10bc2:	4604      	mov	r4, r0
   10bc4:	4630      	mov	r0, r6
   10bc6:	f007 fbee 	bl	183a6 <str::operator()() const>
   10bca:	f005 ff74 	bl	16ab6 <f_unlink>
   10bce:	4a06      	ldr	r2, [pc, #24]	; (10be8 <rmHandler(str&, CharDev&, void*)+0x30>)
   10bd0:	4b06      	ldr	r3, [pc, #24]	; (10bec <rmHandler(str&, CharDev&, void*)+0x34>)
   10bd2:	4907      	ldr	r1, [pc, #28]	; (10bf0 <rmHandler(str&, CharDev&, void*)+0x38>)
   10bd4:	2800      	cmp	r0, #0
   10bd6:	bf18      	it	ne
   10bd8:	4613      	movne	r3, r2
   10bda:	4628      	mov	r0, r5
   10bdc:	4622      	mov	r2, r4
   10bde:	f008 fa51 	bl	19084 <CharDev::printf(char const*, ...)>
   10be2:	2001      	movs	r0, #1
   10be4:	bd70      	pop	{r4, r5, r6, pc}
   10be6:	bf00      	nop
   10be8:	0002351f 	.word	0x0002351f
   10bec:	00023515 	.word	0x00023515
   10bf0:	0002338f 	.word	0x0002338f

00010bf4 <mvHandler(str&, CharDev&, void*)>:
_Z9mvHandlerR3strR7CharDevPv():
   10bf4:	b57f      	push	{r0, r1, r2, r3, r4, r5, r6, lr}
   10bf6:	ab03      	add	r3, sp, #12
   10bf8:	2400      	movs	r4, #0
   10bfa:	9300      	str	r3, [sp, #0]
   10bfc:	460e      	mov	r6, r1
   10bfe:	2202      	movs	r2, #2
   10c00:	490f      	ldr	r1, [pc, #60]	; (10c40 <mvHandler(str&, CharDev&, void*)+0x4c>)
   10c02:	ab02      	add	r3, sp, #8
   10c04:	9402      	str	r4, [sp, #8]
   10c06:	9403      	str	r4, [sp, #12]
   10c08:	f007 fa51 	bl	180ae <str::tokenize(char const*, int, ...)>
   10c0c:	2802      	cmp	r0, #2
   10c0e:	d114      	bne.n	10c3a <mvHandler(str&, CharDev&, void*)+0x46>
   10c10:	9d02      	ldr	r5, [sp, #8]
   10c12:	9c03      	ldr	r4, [sp, #12]
   10c14:	4628      	mov	r0, r5
   10c16:	4621      	mov	r1, r4
   10c18:	f006 f854 	bl	16cc4 <f_rename>
   10c1c:	4b09      	ldr	r3, [pc, #36]	; (10c44 <mvHandler(str&, CharDev&, void*)+0x50>)
   10c1e:	490a      	ldr	r1, [pc, #40]	; (10c48 <mvHandler(str&, CharDev&, void*)+0x54>)
   10c20:	462a      	mov	r2, r5
   10c22:	2800      	cmp	r0, #0
   10c24:	bf0c      	ite	eq
   10c26:	4608      	moveq	r0, r1
   10c28:	4618      	movne	r0, r3
   10c2a:	4908      	ldr	r1, [pc, #32]	; (10c4c <mvHandler(str&, CharDev&, void*)+0x58>)
   10c2c:	9000      	str	r0, [sp, #0]
   10c2e:	4623      	mov	r3, r4
   10c30:	4630      	mov	r0, r6
   10c32:	f008 fa27 	bl	19084 <CharDev::printf(char const*, ...)>
   10c36:	2001      	movs	r0, #1
   10c38:	e000      	b.n	10c3c <mvHandler(str&, CharDev&, void*)+0x48>
   10c3a:	4620      	mov	r0, r4
   10c3c:	b004      	add	sp, #16
   10c3e:	bd70      	pop	{r4, r5, r6, pc}
   10c40:	00024332 	.word	0x00024332
   10c44:	0002351f 	.word	0x0002351f
   10c48:	00023515 	.word	0x00023515
   10c4c:	000233a1 	.word	0x000233a1

00010c50 <newFileHandler(str&, CharDev&, void*)>:
_Z14newFileHandlerR3strR7CharDevPv():
   10c50:	b530      	push	{r4, r5, lr}
   10c52:	f5ad 7d0d 	sub.w	sp, sp, #564	; 0x234
   10c56:	460c      	mov	r4, r1
   10c58:	4605      	mov	r5, r0
   10c5a:	f007 fba4 	bl	183a6 <str::operator()() const>
   10c5e:	220a      	movs	r2, #10
   10c60:	4601      	mov	r1, r0
   10c62:	a803      	add	r0, sp, #12
   10c64:	f005 fb26 	bl	162b4 <f_open>
   10c68:	b140      	cbz	r0, 10c7c <newFileHandler(str&, CharDev&, void*)+0x2c>
   10c6a:	4628      	mov	r0, r5
   10c6c:	f007 fb9b 	bl	183a6 <str::operator()() const>
   10c70:	491f      	ldr	r1, [pc, #124]	; (10cf0 <newFileHandler(str&, CharDev&, void*)+0xa0>)
   10c72:	4602      	mov	r2, r0
   10c74:	4620      	mov	r0, r4
   10c76:	f008 fa05 	bl	19084 <CharDev::printf(char const*, ...)>
   10c7a:	e035      	b.n	10ce8 <newFileHandler(str&, CharDev&, void*)+0x98>
   10c7c:	f88d 0007 	strb.w	r0, [sp, #7]
   10c80:	9002      	str	r0, [sp, #8]
   10c82:	491c      	ldr	r1, [pc, #112]	; (10cf4 <newFileHandler(str&, CharDev&, void*)+0xa4>)
   10c84:	4620      	mov	r0, r4
   10c86:	227e      	movs	r2, #126	; 0x7e
   10c88:	f242 7310 	movw	r3, #10000	; 0x2710
   10c8c:	f008 f9fa 	bl	19084 <CharDev::printf(char const*, ...)>
   10c90:	4620      	mov	r0, r4
   10c92:	4919      	ldr	r1, [pc, #100]	; (10cf8 <newFileHandler(str&, CharDev&, void*)+0xa8>)
   10c94:	f008 f9f6 	bl	19084 <CharDev::printf(char const*, ...)>
   10c98:	6823      	ldr	r3, [r4, #0]
   10c9a:	4620      	mov	r0, r4
   10c9c:	681b      	ldr	r3, [r3, #0]
   10c9e:	f10d 0107 	add.w	r1, sp, #7
   10ca2:	f242 7210 	movw	r2, #10000	; 0x2710
   10ca6:	4798      	blx	r3
   10ca8:	b118      	cbz	r0, 10cb2 <newFileHandler(str&, CharDev&, void*)+0x62>
   10caa:	f89d 3007 	ldrb.w	r3, [sp, #7]
   10cae:	2b7e      	cmp	r3, #126	; 0x7e
   10cb0:	d103      	bne.n	10cba <newFileHandler(str&, CharDev&, void*)+0x6a>
   10cb2:	a803      	add	r0, sp, #12
   10cb4:	f005 fd6f 	bl	16796 <f_close>
   10cb8:	e016      	b.n	10ce8 <newFileHandler(str&, CharDev&, void*)+0x98>
   10cba:	a803      	add	r0, sp, #12
   10cbc:	f10d 0107 	add.w	r1, sp, #7
   10cc0:	2201      	movs	r2, #1
   10cc2:	ab02      	add	r3, sp, #8
   10cc4:	f005 fc4d 	bl	16562 <f_write>
   10cc8:	b910      	cbnz	r0, 10cd0 <newFileHandler(str&, CharDev&, void*)+0x80>
   10cca:	9b02      	ldr	r3, [sp, #8]
   10ccc:	2b01      	cmp	r3, #1
   10cce:	d002      	beq.n	10cd6 <newFileHandler(str&, CharDev&, void*)+0x86>
   10cd0:	4620      	mov	r0, r4
   10cd2:	490a      	ldr	r1, [pc, #40]	; (10cfc <newFileHandler(str&, CharDev&, void*)+0xac>)
   10cd4:	e7de      	b.n	10c94 <newFileHandler(str&, CharDev&, void*)+0x44>
   10cd6:	6823      	ldr	r3, [r4, #0]
   10cd8:	4620      	mov	r0, r4
   10cda:	685b      	ldr	r3, [r3, #4]
   10cdc:	f89d 1007 	ldrb.w	r1, [sp, #7]
   10ce0:	f04f 32ff 	mov.w	r2, #4294967295
   10ce4:	4798      	blx	r3
   10ce6:	e7d7      	b.n	10c98 <newFileHandler(str&, CharDev&, void*)+0x48>
   10ce8:	2001      	movs	r0, #1
   10cea:	f50d 7d0d 	add.w	sp, sp, #564	; 0x234
   10cee:	bd30      	pop	{r4, r5, pc}
   10cf0:	000233b9 	.word	0x000233b9
   10cf4:	000233e0 	.word	0x000233e0
   10cf8:	00023418 	.word	0x00023418
   10cfc:	00023438 	.word	0x00023438

00010d00 <dcpHandler(str&, CharDev&, void*)>:
_Z10dcpHandlerR3strR7CharDevPv():
   10d00:	e92d 47f0 	stmdb	sp!, {r4, r5, r6, r7, r8, r9, sl, lr}
   10d04:	f5ad 7d40 	sub.w	sp, sp, #768	; 0x300
   10d08:	2300      	movs	r3, #0
   10d0a:	ac04      	add	r4, sp, #16
   10d0c:	6023      	str	r3, [r4, #0]
   10d0e:	9303      	str	r3, [sp, #12]
   10d10:	460d      	mov	r5, r1
   10d12:	9400      	str	r4, [sp, #0]
   10d14:	4942      	ldr	r1, [pc, #264]	; (10e20 <dcpHandler(str&, CharDev&, void*)+0x120>)
   10d16:	2202      	movs	r2, #2
   10d18:	ab03      	add	r3, sp, #12
   10d1a:	f007 f9c8 	bl	180ae <str::tokenize(char const*, int, ...)>
   10d1e:	2802      	cmp	r0, #2
   10d20:	d006      	beq.n	10d30 <dcpHandler(str&, CharDev&, void*)+0x30>
   10d22:	4628      	mov	r0, r5
   10d24:	493f      	ldr	r1, [pc, #252]	; (10e24 <dcpHandler(str&, CharDev&, void*)+0x124>)
   10d26:	f04f 32ff 	mov.w	r2, #4294967295
   10d2a:	f008 f975 	bl	19018 <CharDev::putline(char const*, unsigned int)>
   10d2e:	e071      	b.n	10e14 <dcpHandler(str&, CharDev&, void*)+0x114>
   10d30:	a817      	add	r0, sp, #92	; 0x5c
   10d32:	6821      	ldr	r1, [r4, #0]
   10d34:	f005 fde7 	bl	16906 <f_opendir>
   10d38:	b118      	cbz	r0, 10d42 <dcpHandler(str&, CharDev&, void*)+0x42>
   10d3a:	4628      	mov	r0, r5
   10d3c:	493a      	ldr	r1, [pc, #232]	; (10e28 <dcpHandler(str&, CharDev&, void*)+0x128>)
   10d3e:	6822      	ldr	r2, [r4, #0]
   10d40:	e007      	b.n	10d52 <dcpHandler(str&, CharDev&, void*)+0x52>
   10d42:	a817      	add	r0, sp, #92	; 0x5c
   10d44:	9903      	ldr	r1, [sp, #12]
   10d46:	f005 fdde 	bl	16906 <f_opendir>
   10d4a:	b128      	cbz	r0, 10d58 <dcpHandler(str&, CharDev&, void*)+0x58>
   10d4c:	4628      	mov	r0, r5
   10d4e:	4937      	ldr	r1, [pc, #220]	; (10e2c <dcpHandler(str&, CharDev&, void*)+0x12c>)
   10d50:	9a03      	ldr	r2, [sp, #12]
   10d52:	f008 f997 	bl	19084 <CharDev::printf(char const*, ...)>
   10d56:	e05d      	b.n	10e14 <dcpHandler(str&, CharDev&, void*)+0x114>
   10d58:	a940      	add	r1, sp, #256	; 0x100
   10d5a:	f44f 7280 	mov.w	r2, #256	; 0x100
   10d5e:	a805      	add	r0, sp, #20
   10d60:	f007 f966 	bl	18030 <str::str(char*, int)>
   10d64:	a80a      	add	r0, sp, #40	; 0x28
   10d66:	a980      	add	r1, sp, #512	; 0x200
   10d68:	f44f 7280 	mov.w	r2, #256	; 0x100
   10d6c:	f007 f960 	bl	18030 <str::str(char*, int)>
   10d70:	ab20      	add	r3, sp, #128	; 0x80
   10d72:	9315      	str	r3, [sp, #84]	; 0x54
   10d74:	a817      	add	r0, sp, #92	; 0x5c
   10d76:	2380      	movs	r3, #128	; 0x80
   10d78:	a90f      	add	r1, sp, #60	; 0x3c
   10d7a:	9316      	str	r3, [sp, #88]	; 0x58
   10d7c:	f005 fe07 	bl	1698e <f_readdir>
   10d80:	2800      	cmp	r0, #0
   10d82:	d141      	bne.n	10e08 <dcpHandler(str&, CharDev&, void*)+0x108>
   10d84:	f89d 3045 	ldrb.w	r3, [sp, #69]	; 0x45
   10d88:	2b00      	cmp	r3, #0
   10d8a:	d03d      	beq.n	10e08 <dcpHandler(str&, CharDev&, void*)+0x108>
   10d8c:	f89d 3044 	ldrb.w	r3, [sp, #68]	; 0x44
   10d90:	f003 0310 	and.w	r3, r3, #16
   10d94:	f003 06ff 	and.w	r6, r3, #255	; 0xff
   10d98:	2b00      	cmp	r3, #0
   10d9a:	d1e9      	bne.n	10d70 <dcpHandler(str&, CharDev&, void*)+0x70>
   10d9c:	9a03      	ldr	r2, [sp, #12]
   10d9e:	f10d 0345 	add.w	r3, sp, #69	; 0x45
   10da2:	a805      	add	r0, sp, #20
   10da4:	4922      	ldr	r1, [pc, #136]	; (10e30 <dcpHandler(str&, CharDev&, void*)+0x130>)
   10da6:	f007 fb48 	bl	1843a <str::printf(char const*, ...)>
   10daa:	6822      	ldr	r2, [r4, #0]
   10dac:	f10d 0345 	add.w	r3, sp, #69	; 0x45
   10db0:	491f      	ldr	r1, [pc, #124]	; (10e30 <dcpHandler(str&, CharDev&, void*)+0x130>)
   10db2:	a80a      	add	r0, sp, #40	; 0x28
   10db4:	f007 fb41 	bl	1843a <str::printf(char const*, ...)>
   10db8:	a805      	add	r0, sp, #20
   10dba:	f007 faf4 	bl	183a6 <str::operator()() const>
   10dbe:	4680      	mov	r8, r0
   10dc0:	a80a      	add	r0, sp, #40	; 0x28
   10dc2:	f007 faf0 	bl	183a6 <str::operator()() const>
   10dc6:	4607      	mov	r7, r0
   10dc8:	a805      	add	r0, sp, #20
   10dca:	f8dd 903c 	ldr.w	r9, [sp, #60]	; 0x3c
   10dce:	f007 faea 	bl	183a6 <str::operator()() const>
   10dd2:	4682      	mov	sl, r0
   10dd4:	a80a      	add	r0, sp, #40	; 0x28
   10dd6:	f007 fae6 	bl	183a6 <str::operator()() const>
   10dda:	4632      	mov	r2, r6
   10ddc:	4601      	mov	r1, r0
   10dde:	4633      	mov	r3, r6
   10de0:	9600      	str	r6, [sp, #0]
   10de2:	4650      	mov	r0, sl
   10de4:	f003 fa46 	bl	14274 <Storage::copy(char const*, char const*, unsigned int*, unsigned int*, unsigned int*)>
   10de8:	4a12      	ldr	r2, [pc, #72]	; (10e34 <dcpHandler(str&, CharDev&, void*)+0x134>)
   10dea:	4b13      	ldr	r3, [pc, #76]	; (10e38 <dcpHandler(str&, CharDev&, void*)+0x138>)
   10dec:	f8cd 9000 	str.w	r9, [sp]
   10df0:	2800      	cmp	r0, #0
   10df2:	bf0c      	ite	eq
   10df4:	4618      	moveq	r0, r3
   10df6:	4610      	movne	r0, r2
   10df8:	4910      	ldr	r1, [pc, #64]	; (10e3c <dcpHandler(str&, CharDev&, void*)+0x13c>)
   10dfa:	9001      	str	r0, [sp, #4]
   10dfc:	4642      	mov	r2, r8
   10dfe:	4628      	mov	r0, r5
   10e00:	463b      	mov	r3, r7
   10e02:	f008 f93f 	bl	19084 <CharDev::printf(char const*, ...)>
   10e06:	e7b3      	b.n	10d70 <dcpHandler(str&, CharDev&, void*)+0x70>
   10e08:	a80a      	add	r0, sp, #40	; 0x28
   10e0a:	f007 f927 	bl	1805c <str::~str()>
   10e0e:	a805      	add	r0, sp, #20
   10e10:	f007 f924 	bl	1805c <str::~str()>
   10e14:	2001      	movs	r0, #1
   10e16:	f50d 7d40 	add.w	sp, sp, #768	; 0x300
   10e1a:	e8bd 87f0 	ldmia.w	sp!, {r4, r5, r6, r7, r8, r9, sl, pc}
   10e1e:	bf00      	nop
   10e20:	00024332 	.word	0x00024332
   10e24:	0002345f 	.word	0x0002345f
   10e28:	000234a4 	.word	0x000234a4
   10e2c:	000234c9 	.word	0x000234c9
   10e30:	000234e9 	.word	0x000234e9
   10e34:	0002351f 	.word	0x0002351f
   10e38:	00023515 	.word	0x00023515
   10e3c:	000234ef 	.word	0x000234ef

00010e40 <storageHandler(str&, CharDev&, void*)>:
_Z14storageHandlerR3strR7CharDevPv():
   10e40:	b5f8      	push	{r3, r4, r5, r6, r7, lr}
   10e42:	460d      	mov	r5, r1
   10e44:	4923      	ldr	r1, [pc, #140]	; (10ed4 <storageHandler(str&, CharDev&, void*)+0x94>)
   10e46:	4606      	mov	r6, r0
   10e48:	f007 faab 	bl	183a2 <str::operator==(char const*) const>
   10e4c:	4604      	mov	r4, r0
   10e4e:	4607      	mov	r7, r0
   10e50:	b128      	cbz	r0, 10e5e <storageHandler(str&, CharDev&, void*)+0x1e>
   10e52:	f7ff fb37 	bl	104c4 <Storage::getSDDrive()>
   10e56:	2100      	movs	r1, #0
   10e58:	f200 2035 	addw	r0, r0, #565	; 0x235
   10e5c:	e00a      	b.n	10e74 <storageHandler(str&, CharDev&, void*)+0x34>
   10e5e:	4630      	mov	r0, r6
   10e60:	491d      	ldr	r1, [pc, #116]	; (10ed8 <storageHandler(str&, CharDev&, void*)+0x98>)
   10e62:	f007 fa9e 	bl	183a2 <str::operator==(char const*) const>
   10e66:	4604      	mov	r4, r0
   10e68:	b150      	cbz	r0, 10e80 <storageHandler(str&, CharDev&, void*)+0x40>
   10e6a:	f7ff fb07 	bl	1047c <Storage::getFlashDrive()>
   10e6e:	4639      	mov	r1, r7
   10e70:	f200 2035 	addw	r0, r0, #565	; 0x235
   10e74:	460a      	mov	r2, r1
   10e76:	f005 ffb5 	bl	16de4 <f_mkfs>
   10e7a:	4918      	ldr	r1, [pc, #96]	; (10edc <storageHandler(str&, CharDev&, void*)+0x9c>)
   10e7c:	4b18      	ldr	r3, [pc, #96]	; (10ee0 <storageHandler(str&, CharDev&, void*)+0xa0>)
   10e7e:	e01e      	b.n	10ebe <storageHandler(str&, CharDev&, void*)+0x7e>
   10e80:	4630      	mov	r0, r6
   10e82:	4918      	ldr	r1, [pc, #96]	; (10ee4 <storageHandler(str&, CharDev&, void*)+0xa4>)
   10e84:	f007 fa8d 	bl	183a2 <str::operator==(char const*) const>
   10e88:	4604      	mov	r4, r0
   10e8a:	b148      	cbz	r0, 10ea0 <storageHandler(str&, CharDev&, void*)+0x60>
   10e8c:	f7ff fb1a 	bl	104c4 <Storage::getSDDrive()>
   10e90:	2201      	movs	r2, #1
   10e92:	f200 2135 	addw	r1, r0, #565	; 0x235
   10e96:	f005 f9cf 	bl	16238 <f_mount>
   10e9a:	4913      	ldr	r1, [pc, #76]	; (10ee8 <storageHandler(str&, CharDev&, void*)+0xa8>)
   10e9c:	4b13      	ldr	r3, [pc, #76]	; (10eec <storageHandler(str&, CharDev&, void*)+0xac>)
   10e9e:	e00e      	b.n	10ebe <storageHandler(str&, CharDev&, void*)+0x7e>
   10ea0:	4630      	mov	r0, r6
   10ea2:	4913      	ldr	r1, [pc, #76]	; (10ef0 <storageHandler(str&, CharDev&, void*)+0xb0>)
   10ea4:	f007 fa7d 	bl	183a2 <str::operator==(char const*) const>
   10ea8:	4604      	mov	r4, r0
   10eaa:	b180      	cbz	r0, 10ece <storageHandler(str&, CharDev&, void*)+0x8e>
   10eac:	f7ff fae6 	bl	1047c <Storage::getFlashDrive()>
   10eb0:	2201      	movs	r2, #1
   10eb2:	f200 2135 	addw	r1, r0, #565	; 0x235
   10eb6:	f005 f9bf 	bl	16238 <f_mount>
   10eba:	490e      	ldr	r1, [pc, #56]	; (10ef4 <storageHandler(str&, CharDev&, void*)+0xb4>)
   10ebc:	4b0e      	ldr	r3, [pc, #56]	; (10ef8 <storageHandler(str&, CharDev&, void*)+0xb8>)
   10ebe:	2800      	cmp	r0, #0
   10ec0:	bf08      	it	eq
   10ec2:	4619      	moveq	r1, r3
   10ec4:	f04f 32ff 	mov.w	r2, #4294967295
   10ec8:	4628      	mov	r0, r5
   10eca:	f008 f8a5 	bl	19018 <CharDev::putline(char const*, unsigned int)>
   10ece:	4620      	mov	r0, r4
   10ed0:	bdf8      	pop	{r3, r4, r5, r6, r7, pc}
   10ed2:	bf00      	nop
   10ed4:	00023576 	.word	0x00023576
   10ed8:	00023580 	.word	0x00023580
   10edc:	00023518 	.word	0x00023518
   10ee0:	0002350e 	.word	0x0002350e
   10ee4:	0002358d 	.word	0x0002358d
   10ee8:	00023535 	.word	0x00023535
   10eec:	00023525 	.word	0x00023525
   10ef0:	00023596 	.word	0x00023596
   10ef4:	0002355a 	.word	0x0002355a
   10ef8:	0002354c 	.word	0x0002354c

00010efc <rebootHandler(str&, CharDev&, void*)>:
_Z13rebootHandlerR3strR7CharDevPv():
   10efc:	b508      	push	{r3, lr}
   10efe:	4608      	mov	r0, r1
   10f00:	f04f 32ff 	mov.w	r2, #4294967295
   10f04:	4908      	ldr	r1, [pc, #32]	; (10f28 <rebootHandler(str&, CharDev&, void*)+0x2c>)
   10f06:	f008 f887 	bl	19018 <CharDev::putline(char const*, unsigned int)>
   10f0a:	f006 fc7d 	bl	17808 <logger_send_flush_request>
   10f0e:	f44f 60fa 	mov.w	r0, #2000	; 0x7d0
   10f12:	f009 fa11 	bl	1a338 <vTaskDelay>
   10f16:	f04f 4380 	mov.w	r3, #1073741824	; 0x40000000
   10f1a:	22aa      	movs	r2, #170	; 0xaa
   10f1c:	721a      	strb	r2, [r3, #8]
   10f1e:	2200      	movs	r2, #0
   10f20:	701a      	strb	r2, [r3, #0]
   10f22:	2001      	movs	r0, #1
   10f24:	bd08      	pop	{r3, pc}
   10f26:	bf00      	nop
   10f28:	000235a2 	.word	0x000235a2

00010f2c <learnIrHandler(str&, CharDev&, void*)>:
_Z14learnIrHandlerR3strR7CharDevPv():
   10f2c:	b510      	push	{r4, lr}
   10f2e:	2001      	movs	r0, #1
   10f30:	460c      	mov	r4, r1
   10f32:	f007 f871 	bl	18018 <scheduler_task::getSharedObject(unsigned char)>
   10f36:	b138      	cbz	r0, 10f48 <learnIrHandler(str&, CharDev&, void*)+0x1c>
   10f38:	2100      	movs	r1, #0
   10f3a:	460a      	mov	r2, r1
   10f3c:	460b      	mov	r3, r1
   10f3e:	f008 fd75 	bl	19a2c <xQueueGenericSend>
   10f42:	4620      	mov	r0, r4
   10f44:	4904      	ldr	r1, [pc, #16]	; (10f58 <learnIrHandler(str&, CharDev&, void*)+0x2c>)
   10f46:	e001      	b.n	10f4c <learnIrHandler(str&, CharDev&, void*)+0x20>
   10f48:	4620      	mov	r0, r4
   10f4a:	4904      	ldr	r1, [pc, #16]	; (10f5c <learnIrHandler(str&, CharDev&, void*)+0x30>)
   10f4c:	f04f 32ff 	mov.w	r2, #4294967295
   10f50:	f008 f862 	bl	19018 <CharDev::putline(char const*, unsigned int)>
   10f54:	2001      	movs	r0, #1
   10f56:	bd10      	pop	{r4, pc}
   10f58:	000235b3 	.word	0x000235b3
   10f5c:	000235c9 	.word	0x000235c9

00010f60 <SingletonTemplate<I2C2>::getInstance()>:
_ZN17SingletonTemplateI4I2C2E11getInstanceEv():
   10f60:	b538      	push	{r3, r4, r5, lr}
   10f62:	4c06      	ldr	r4, [pc, #24]	; (10f7c <SingletonTemplate<I2C2>::getInstance()+0x1c>)
   10f64:	6823      	ldr	r3, [r4, #0]
   10f66:	b933      	cbnz	r3, 10f76 <SingletonTemplate<I2C2>::getInstance()+0x16>
   10f68:	201c      	movs	r0, #28
   10f6a:	f7ff f985 	bl	10278 <operator new(unsigned int)>
   10f6e:	4605      	mov	r5, r0
   10f70:	f007 fce0 	bl	18934 <I2C2::I2C2()>
   10f74:	6025      	str	r5, [r4, #0]
   10f76:	6820      	ldr	r0, [r4, #0]
   10f78:	bd38      	pop	{r3, r4, r5, pc}
   10f7a:	bf00      	nop
   10f7c:	2007c1e8 	.word	0x2007c1e8

00010f80 <i2cIoHandler(str&, CharDev&, void*)>:
_Z12i2cIoHandlerR3strR7CharDevPv():
   10f80:	e92d 4ff0 	stmdb	sp!, {r4, r5, r6, r7, r8, r9, sl, fp, lr}
   10f84:	460d      	mov	r5, r1
   10f86:	b0c7      	sub	sp, #284	; 0x11c
   10f88:	4955      	ldr	r1, [pc, #340]	; (110e0 <i2cIoHandler(str&, CharDev&, void*)+0x160>)
   10f8a:	4681      	mov	r9, r0
   10f8c:	f007 f930 	bl	181f0 <str::beginsWithIgnoreCase(char const*) const>
   10f90:	4954      	ldr	r1, [pc, #336]	; (110e4 <i2cIoHandler(str&, CharDev&, void*)+0x164>)
   10f92:	4682      	mov	sl, r0
   10f94:	4648      	mov	r0, r9
   10f96:	f007 f92b 	bl	181f0 <str::beginsWithIgnoreCase(char const*) const>
   10f9a:	4953      	ldr	r1, [pc, #332]	; (110e8 <i2cIoHandler(str&, CharDev&, void*)+0x168>)
   10f9c:	4683      	mov	fp, r0
   10f9e:	4648      	mov	r0, r9
   10fa0:	f007 f926 	bl	181f0 <str::beginsWithIgnoreCase(char const*) const>
   10fa4:	2700      	movs	r7, #0
   10fa6:	f10d 0810 	add.w	r8, sp, #16
   10faa:	ae05      	add	r6, sp, #20
   10fac:	4604      	mov	r4, r0
   10fae:	9702      	str	r7, [sp, #8]
   10fb0:	9703      	str	r7, [sp, #12]
   10fb2:	f8c8 7000 	str.w	r7, [r8]
   10fb6:	6037      	str	r7, [r6, #0]
   10fb8:	f1ba 0f00 	cmp.w	sl, #0
   10fbc:	d045      	beq.n	1104a <i2cIoHandler(str&, CharDev&, void*)+0xca>
   10fbe:	9600      	str	r6, [sp, #0]
   10fc0:	4648      	mov	r0, r9
   10fc2:	494a      	ldr	r1, [pc, #296]	; (110ec <i2cIoHandler(str&, CharDev&, void*)+0x16c>)
   10fc4:	aa02      	add	r2, sp, #8
   10fc6:	ab03      	add	r3, sp, #12
   10fc8:	f007 f863 	bl	18092 <str::scanf(char const*, ...)>
   10fcc:	2801      	cmp	r0, #1
   10fce:	dc07      	bgt.n	10fe0 <i2cIoHandler(str&, CharDev&, void*)+0x60>
   10fd0:	4628      	mov	r0, r5
   10fd2:	4947      	ldr	r1, [pc, #284]	; (110f0 <i2cIoHandler(str&, CharDev&, void*)+0x170>)
   10fd4:	f04f 32ff 	mov.w	r2, #4294967295
   10fd8:	f008 f81e 	bl	19018 <CharDev::putline(char const*, unsigned int)>
   10fdc:	4638      	mov	r0, r7
   10fde:	e07c      	b.n	110da <i2cIoHandler(str&, CharDev&, void*)+0x15a>
   10fe0:	f10d 0818 	add.w	r8, sp, #24
   10fe4:	f44f 7480 	mov.w	r4, #256	; 0x100
   10fe8:	4640      	mov	r0, r8
   10fea:	4639      	mov	r1, r7
   10fec:	4622      	mov	r2, r4
   10fee:	f00b feb7 	bl	1cd60 <memset>
   10ff2:	6833      	ldr	r3, [r6, #0]
   10ff4:	b913      	cbnz	r3, 10ffc <i2cIoHandler(str&, CharDev&, void*)+0x7c>
   10ff6:	2301      	movs	r3, #1
   10ff8:	6033      	str	r3, [r6, #0]
   10ffa:	e003      	b.n	11004 <i2cIoHandler(str&, CharDev&, void*)+0x84>
   10ffc:	f5b3 7f80 	cmp.w	r3, #256	; 0x100
   11000:	bf88      	it	hi
   11002:	6034      	strhi	r4, [r6, #0]
   11004:	f7ff ffac 	bl	10f60 <SingletonTemplate<I2C2>::getInstance()>
   11008:	6833      	ldr	r3, [r6, #0]
   1100a:	f89d 1008 	ldrb.w	r1, [sp, #8]
   1100e:	f89d 200c 	ldrb.w	r2, [sp, #12]
   11012:	9300      	str	r3, [sp, #0]
   11014:	4643      	mov	r3, r8
   11016:	f008 f8fa 	bl	1920e <I2C_Base::readRegisters(unsigned char, unsigned char, unsigned char*, unsigned long)>
   1101a:	4a36      	ldr	r2, [pc, #216]	; (110f4 <i2cIoHandler(str&, CharDev&, void*)+0x174>)
   1101c:	4b36      	ldr	r3, [pc, #216]	; (110f8 <i2cIoHandler(str&, CharDev&, void*)+0x178>)
   1101e:	4937      	ldr	r1, [pc, #220]	; (110fc <i2cIoHandler(str&, CharDev&, void*)+0x17c>)
   11020:	2800      	cmp	r0, #0
   11022:	bf08      	it	eq
   11024:	4613      	moveq	r3, r2
   11026:	4628      	mov	r0, r5
   11028:	9a02      	ldr	r2, [sp, #8]
   1102a:	f008 f82b 	bl	19084 <CharDev::printf(char const*, ...)>
   1102e:	2400      	movs	r4, #0
   11030:	6833      	ldr	r3, [r6, #0]
   11032:	429c      	cmp	r4, r3
   11034:	d24e      	bcs.n	110d4 <i2cIoHandler(str&, CharDev&, void*)+0x154>
   11036:	9a03      	ldr	r2, [sp, #12]
   11038:	f818 3004 	ldrb.w	r3, [r8, r4]
   1103c:	4422      	add	r2, r4
   1103e:	4628      	mov	r0, r5
   11040:	492f      	ldr	r1, [pc, #188]	; (11100 <i2cIoHandler(str&, CharDev&, void*)+0x180>)
   11042:	f008 f81f 	bl	19084 <CharDev::printf(char const*, ...)>
   11046:	3401      	adds	r4, #1
   11048:	e7f2      	b.n	11030 <i2cIoHandler(str&, CharDev&, void*)+0xb0>
   1104a:	f1bb 0f00 	cmp.w	fp, #0
   1104e:	d02c      	beq.n	110aa <i2cIoHandler(str&, CharDev&, void*)+0x12a>
   11050:	f8cd 8000 	str.w	r8, [sp]
   11054:	4648      	mov	r0, r9
   11056:	492b      	ldr	r1, [pc, #172]	; (11104 <i2cIoHandler(str&, CharDev&, void*)+0x184>)
   11058:	aa02      	add	r2, sp, #8
   1105a:	ab03      	add	r3, sp, #12
   1105c:	f007 f819 	bl	18092 <str::scanf(char const*, ...)>
   11060:	2803      	cmp	r0, #3
   11062:	d007      	beq.n	11074 <i2cIoHandler(str&, CharDev&, void*)+0xf4>
   11064:	4628      	mov	r0, r5
   11066:	4928      	ldr	r1, [pc, #160]	; (11108 <i2cIoHandler(str&, CharDev&, void*)+0x188>)
   11068:	f04f 32ff 	mov.w	r2, #4294967295
   1106c:	f007 ffd4 	bl	19018 <CharDev::putline(char const*, unsigned int)>
   11070:	4650      	mov	r0, sl
   11072:	e032      	b.n	110da <i2cIoHandler(str&, CharDev&, void*)+0x15a>
   11074:	f7ff ff74 	bl	10f60 <SingletonTemplate<I2C2>::getInstance()>
   11078:	f89d 1008 	ldrb.w	r1, [sp, #8]
   1107c:	f89d 200c 	ldrb.w	r2, [sp, #12]
   11080:	f898 3000 	ldrb.w	r3, [r8]
   11084:	f008 f8d8 	bl	19238 <I2C_Base::writeReg(unsigned char, unsigned char, unsigned char)>
   11088:	b148      	cbz	r0, 1109e <i2cIoHandler(str&, CharDev&, void*)+0x11e>
   1108a:	9b03      	ldr	r3, [sp, #12]
   1108c:	4628      	mov	r0, r5
   1108e:	9300      	str	r3, [sp, #0]
   11090:	491e      	ldr	r1, [pc, #120]	; (1110c <i2cIoHandler(str&, CharDev&, void*)+0x18c>)
   11092:	f8d8 2000 	ldr.w	r2, [r8]
   11096:	9b02      	ldr	r3, [sp, #8]
   11098:	f007 fff4 	bl	19084 <CharDev::printf(char const*, ...)>
   1109c:	e01a      	b.n	110d4 <i2cIoHandler(str&, CharDev&, void*)+0x154>
   1109e:	4628      	mov	r0, r5
   110a0:	491b      	ldr	r1, [pc, #108]	; (11110 <i2cIoHandler(str&, CharDev&, void*)+0x190>)
   110a2:	9a02      	ldr	r2, [sp, #8]
   110a4:	f007 ffee 	bl	19084 <CharDev::printf(char const*, ...)>
   110a8:	e014      	b.n	110d4 <i2cIoHandler(str&, CharDev&, void*)+0x154>
   110aa:	b1a8      	cbz	r0, 110d8 <i2cIoHandler(str&, CharDev&, void*)+0x158>
   110ac:	2302      	movs	r3, #2
   110ae:	9302      	str	r3, [sp, #8]
   110b0:	9b02      	ldr	r3, [sp, #8]
   110b2:	2bfe      	cmp	r3, #254	; 0xfe
   110b4:	dc10      	bgt.n	110d8 <i2cIoHandler(str&, CharDev&, void*)+0x158>
   110b6:	f7ff ff53 	bl	10f60 <SingletonTemplate<I2C2>::getInstance()>
   110ba:	f89d 1008 	ldrb.w	r1, [sp, #8]
   110be:	f008 f8c6 	bl	1924e <I2C_Base::checkDeviceResponse(unsigned char)>
   110c2:	b120      	cbz	r0, 110ce <i2cIoHandler(str&, CharDev&, void*)+0x14e>
   110c4:	4628      	mov	r0, r5
   110c6:	4913      	ldr	r1, [pc, #76]	; (11114 <i2cIoHandler(str&, CharDev&, void*)+0x194>)
   110c8:	9a02      	ldr	r2, [sp, #8]
   110ca:	f007 ffdb 	bl	19084 <CharDev::printf(char const*, ...)>
   110ce:	9b02      	ldr	r3, [sp, #8]
   110d0:	3302      	adds	r3, #2
   110d2:	e7ec      	b.n	110ae <i2cIoHandler(str&, CharDev&, void*)+0x12e>
   110d4:	2001      	movs	r0, #1
   110d6:	e000      	b.n	110da <i2cIoHandler(str&, CharDev&, void*)+0x15a>
   110d8:	4620      	mov	r0, r4
   110da:	b047      	add	sp, #284	; 0x11c
   110dc:	e8bd 8ff0 	ldmia.w	sp!, {r4, r5, r6, r7, r8, r9, sl, fp, pc}
   110e0:	0002448f 	.word	0x0002448f
   110e4:	00023602 	.word	0x00023602
   110e8:	00023608 	.word	0x00023608
   110ec:	00023611 	.word	0x00023611
   110f0:	00023620 	.word	0x00023620
   110f4:	0002351f 	.word	0x0002351f
   110f8:	00023515 	.word	0x00023515
   110fc:	00023641 	.word	0x00023641
   11100:	00023665 	.word	0x00023665
   11104:	00023675 	.word	0x00023675
   11108:	00023685 	.word	0x00023685
   1110c:	000236ac 	.word	0x000236ac
   11110:	000236c6 	.word	0x000236c6
   11114:	000236e3 	.word	0x000236e3

00011118 <SingletonTemplate<Light_Sensor>::getInstance()>:
_ZN17SingletonTemplateI12Light_SensorE11getInstanceEv():
   11118:	b510      	push	{r4, lr}
   1111a:	4c04      	ldr	r4, [pc, #16]	; (1112c <SingletonTemplate<Light_Sensor>::getInstance()+0x14>)
   1111c:	6823      	ldr	r3, [r4, #0]
   1111e:	b91b      	cbnz	r3, 11128 <SingletonTemplate<Light_Sensor>::getInstance()+0x10>
   11120:	2001      	movs	r0, #1
   11122:	f7ff f8a9 	bl	10278 <operator new(unsigned int)>
   11126:	6020      	str	r0, [r4, #0]
   11128:	6820      	ldr	r0, [r4, #0]
   1112a:	bd10      	pop	{r4, pc}
   1112c:	2007c1e4 	.word	0x2007c1e4

00011130 <healthHandler(str&, CharDev&, void*)>:
_Z13healthHandlerR3strR7CharDevPv():
   11130:	e92d 4ff0 	stmdb	sp!, {r4, r5, r6, r7, r8, r9, sl, fp, lr}
   11134:	4c5c      	ldr	r4, [pc, #368]	; (112a8 <healthHandler(str&, CharDev&, void*)+0x178>)
   11136:	b091      	sub	sp, #68	; 0x44
   11138:	6823      	ldr	r3, [r4, #0]
   1113a:	460e      	mov	r6, r1
   1113c:	b933      	cbnz	r3, 1114c <healthHandler(str&, CharDev&, void*)+0x1c>
   1113e:	202c      	movs	r0, #44	; 0x2c
   11140:	f7ff f89a 	bl	10278 <operator new(unsigned int)>
   11144:	4605      	mov	r5, r0
   11146:	f007 fe89 	bl	18e5c <Uart0::Uart0()>
   1114a:	6025      	str	r5, [r4, #0]
   1114c:	6827      	ldr	r7, [r4, #0]
   1114e:	f7ff f995 	bl	1047c <Storage::getFlashDrive()>
   11152:	f10d 0b40 	add.w	fp, sp, #64	; 0x40
   11156:	2400      	movs	r4, #0
   11158:	f84b 4d0c 	str.w	r4, [fp, #-12]!
   1115c:	f200 2035 	addw	r0, r0, #565	; 0x235
   11160:	4659      	mov	r1, fp
   11162:	aa0c      	add	r2, sp, #48	; 0x30
   11164:	f005 fc42 	bl	169ec <f_getfree>
   11168:	b948      	cbnz	r0, 1117e <healthHandler(str&, CharDev&, void*)+0x4e>
   1116a:	9a0c      	ldr	r2, [sp, #48]	; 0x30
   1116c:	9c0d      	ldr	r4, [sp, #52]	; 0x34
   1116e:	6995      	ldr	r5, [r2, #24]
   11170:	7893      	ldrb	r3, [r2, #2]
   11172:	3d02      	subs	r5, #2
   11174:	435c      	muls	r4, r3
   11176:	435d      	muls	r5, r3
   11178:	0864      	lsrs	r4, r4, #1
   1117a:	086d      	lsrs	r5, r5, #1
   1117c:	e000      	b.n	11180 <healthHandler(str&, CharDev&, void*)+0x50>
   1117e:	4625      	mov	r5, r4
   11180:	4b4a      	ldr	r3, [pc, #296]	; (112ac <healthHandler(str&, CharDev&, void*)+0x17c>)
   11182:	681a      	ldr	r2, [r3, #0]
   11184:	4698      	mov	r8, r3
   11186:	b97a      	cbnz	r2, 111a8 <healthHandler(str&, CharDev&, void*)+0x78>
   11188:	200c      	movs	r0, #12
   1118a:	f7ff f875 	bl	10278 <operator new(unsigned int)>
   1118e:	4681      	mov	r9, r0
   11190:	f7ff fee6 	bl	10f60 <SingletonTemplate<I2C2>::getInstance()>
   11194:	2390      	movs	r3, #144	; 0x90
   11196:	f889 3004 	strb.w	r3, [r9, #4]
   1119a:	2300      	movs	r3, #0
   1119c:	f8c9 0000 	str.w	r0, [r9]
   111a0:	f8c9 3008 	str.w	r3, [r9, #8]
   111a4:	f8c8 9000 	str.w	r9, [r8]
   111a8:	f8d8 0000 	ldr.w	r0, [r8]
   111ac:	f003 f850 	bl	14250 <I2C_Temp::getFarenheit()>
   111b0:	4680      	mov	r8, r0
   111b2:	f00b f853 	bl	1c25c <__aeabi_f2iz>
   111b6:	4682      	mov	sl, r0
   111b8:	f00a feac 	bl	1bf14 <__aeabi_i2f>
   111bc:	4601      	mov	r1, r0
   111be:	4640      	mov	r0, r8
   111c0:	f00a fdf2 	bl	1bda8 <__aeabi_fsub>
   111c4:	493a      	ldr	r1, [pc, #232]	; (112b0 <healthHandler(str&, CharDev&, void*)+0x180>)
   111c6:	f00a fef9 	bl	1bfbc <__aeabi_fmul>
   111ca:	f00b f847 	bl	1c25c <__aeabi_f2iz>
   111ce:	4681      	mov	r9, r0
   111d0:	4658      	mov	r0, fp
   111d2:	f009 fc8f 	bl	1aaf4 <sys_get_boot_time>
   111d6:	f003 ff89 	bl	150ec <flash_supports_metadata>
   111da:	b350      	cbz	r0, 11232 <healthHandler(str&, CharDev&, void*)+0x102>
   111dc:	f007 fde0 	bl	18da0 <spi1_lock>
   111e0:	f003 ff6e 	bl	150c0 <flash_get_page_count>
   111e4:	2300      	movs	r3, #0
   111e6:	4602      	mov	r2, r0
   111e8:	4698      	mov	r8, r3
   111ea:	469b      	mov	fp, r3
   111ec:	4293      	cmp	r3, r2
   111ee:	d00d      	beq.n	1120c <healthHandler(str&, CharDev&, void*)+0xdc>
   111f0:	4618      	mov	r0, r3
   111f2:	920b      	str	r2, [sp, #44]	; 0x2c
   111f4:	930a      	str	r3, [sp, #40]	; 0x28
   111f6:	f003 ffc7 	bl	15188 <flash_get_page_write_count>
   111fa:	9b0a      	ldr	r3, [sp, #40]	; 0x28
   111fc:	4558      	cmp	r0, fp
   111fe:	bf88      	it	hi
   11200:	4698      	movhi	r8, r3
   11202:	9a0b      	ldr	r2, [sp, #44]	; 0x2c
   11204:	bf88      	it	hi
   11206:	4683      	movhi	fp, r0
   11208:	3301      	adds	r3, #1
   1120a:	e7ef      	b.n	111ec <healthHandler(str&, CharDev&, void*)+0xbc>
   1120c:	f007 fde0 	bl	18dd0 <spi1_unlock>
   11210:	2364      	movs	r3, #100	; 0x64
   11212:	fb03 f30b 	mul.w	r3, r3, fp
   11216:	4a27      	ldr	r2, [pc, #156]	; (112b4 <healthHandler(str&, CharDev&, void*)+0x184>)
   11218:	4630      	mov	r0, r6
   1121a:	fbb3 f3f2 	udiv	r3, r3, r2
   1121e:	f1c3 0364 	rsb	r3, r3, #100	; 0x64
   11222:	e88d 0908 	stmia.w	sp, {r3, r8, fp}
   11226:	4924      	ldr	r1, [pc, #144]	; (112b8 <healthHandler(str&, CharDev&, void*)+0x188>)
   11228:	4622      	mov	r2, r4
   1122a:	462b      	mov	r3, r5
   1122c:	f007 ff2a 	bl	19084 <CharDev::printf(char const*, ...)>
   11230:	e005      	b.n	1123e <healthHandler(str&, CharDev&, void*)+0x10e>
   11232:	4630      	mov	r0, r6
   11234:	4921      	ldr	r1, [pc, #132]	; (112bc <healthHandler(str&, CharDev&, void*)+0x18c>)
   11236:	4622      	mov	r2, r4
   11238:	462b      	mov	r3, r5
   1123a:	f007 ff23 	bl	19084 <CharDev::printf(char const*, ...)>
   1123e:	f7ff ff6b 	bl	11118 <SingletonTemplate<Light_Sensor>::getInstance()>
   11242:	f002 ffc1 	bl	141c8 <Light_Sensor::getRawValue()>
   11246:	4604      	mov	r4, r0
   11248:	f007 fd30 	bl	18cac <rtc_get_date_time_str>
   1124c:	f89d 3039 	ldrb.w	r3, [sp, #57]	; 0x39
   11250:	9001      	str	r0, [sp, #4]
   11252:	f003 030f 	and.w	r3, r3, #15
   11256:	9302      	str	r3, [sp, #8]
   11258:	f89d 3038 	ldrb.w	r3, [sp, #56]	; 0x38
   1125c:	9400      	str	r4, [sp, #0]
   1125e:	f003 031f 	and.w	r3, r3, #31
   11262:	9303      	str	r3, [sp, #12]
   11264:	f8bd 303a 	ldrh.w	r3, [sp, #58]	; 0x3a
   11268:	4630      	mov	r0, r6
   1126a:	f3c3 030b 	ubfx	r3, r3, #0, #12
   1126e:	9304      	str	r3, [sp, #16]
   11270:	f89d 3036 	ldrb.w	r3, [sp, #54]	; 0x36
   11274:	4912      	ldr	r1, [pc, #72]	; (112c0 <healthHandler(str&, CharDev&, void*)+0x190>)
   11276:	f003 031f 	and.w	r3, r3, #31
   1127a:	9305      	str	r3, [sp, #20]
   1127c:	f89d 3035 	ldrb.w	r3, [sp, #53]	; 0x35
   11280:	4652      	mov	r2, sl
   11282:	f003 033f 	and.w	r3, r3, #63	; 0x3f
   11286:	9306      	str	r3, [sp, #24]
   11288:	f89d 3034 	ldrb.w	r3, [sp, #52]	; 0x34
   1128c:	f003 033f 	and.w	r3, r3, #63	; 0x3f
   11290:	9307      	str	r3, [sp, #28]
   11292:	8cbb      	ldrh	r3, [r7, #36]	; 0x24
   11294:	9308      	str	r3, [sp, #32]
   11296:	8cfb      	ldrh	r3, [r7, #38]	; 0x26
   11298:	9309      	str	r3, [sp, #36]	; 0x24
   1129a:	464b      	mov	r3, r9
   1129c:	f007 fef2 	bl	19084 <CharDev::printf(char const*, ...)>
   112a0:	2001      	movs	r0, #1
   112a2:	b011      	add	sp, #68	; 0x44
   112a4:	e8bd 8ff0 	ldmia.w	sp!, {r4, r5, r6, r7, r8, r9, sl, fp, pc}
   112a8:	2007c1ec 	.word	0x2007c1ec
   112ac:	2007c1e0 	.word	0x2007c1e0
   112b0:	41200000 	.word	0x41200000
   112b4:	000186a0 	.word	0x000186a0
   112b8:	00023709 	.word	0x00023709
   112bc:	0002373d 	.word	0x0002373d
   112c0:	0002374b 	.word	0x0002374b

000112c4 <myCmdHandler(str&, CharDev&, void*)>:
_Z12myCmdHandlerR3strR7CharDevPv():
   112c4:	b570      	push	{r4, r5, r6, lr}
   112c6:	460c      	mov	r4, r1
   112c8:	4606      	mov	r6, r0
   112ca:	f7ff ff25 	bl	11118 <SingletonTemplate<Light_Sensor>::getInstance()>
   112ce:	f002 ff79 	bl	141c4 <Light_Sensor::init()>
   112d2:	490d      	ldr	r1, [pc, #52]	; (11308 <myCmdHandler(str&, CharDev&, void*)+0x44>)
   112d4:	4605      	mov	r5, r0
   112d6:	4630      	mov	r0, r6
   112d8:	f007 f863 	bl	183a2 <str::operator==(char const*) const>
   112dc:	b168      	cbz	r0, 112fa <myCmdHandler(str&, CharDev&, void*)+0x36>
   112de:	b14d      	cbz	r5, 112f4 <myCmdHandler(str&, CharDev&, void*)+0x30>
   112e0:	f7ff ff1a 	bl	11118 <SingletonTemplate<Light_Sensor>::getInstance()>
   112e4:	f002 ff70 	bl	141c8 <Light_Sensor::getRawValue()>
   112e8:	4908      	ldr	r1, [pc, #32]	; (1130c <myCmdHandler(str&, CharDev&, void*)+0x48>)
   112ea:	4602      	mov	r2, r0
   112ec:	4620      	mov	r0, r4
   112ee:	f007 fec9 	bl	19084 <CharDev::printf(char const*, ...)>
   112f2:	e006      	b.n	11302 <myCmdHandler(str&, CharDev&, void*)+0x3e>
   112f4:	4620      	mov	r0, r4
   112f6:	4906      	ldr	r1, [pc, #24]	; (11310 <myCmdHandler(str&, CharDev&, void*)+0x4c>)
   112f8:	e001      	b.n	112fe <myCmdHandler(str&, CharDev&, void*)+0x3a>
   112fa:	4620      	mov	r0, r4
   112fc:	4905      	ldr	r1, [pc, #20]	; (11314 <myCmdHandler(str&, CharDev&, void*)+0x50>)
   112fe:	f007 fec1 	bl	19084 <CharDev::printf(char const*, ...)>
   11302:	2001      	movs	r0, #1
   11304:	bd70      	pop	{r4, r5, r6, pc}
   11306:	bf00      	nop
   11308:	000237b4 	.word	0x000237b4
   1130c:	000237ba 	.word	0x000237ba
   11310:	000237d2 	.word	0x000237d2
   11314:	000237f5 	.word	0x000237f5

00011318 <flashProgHandler(str&, CharDev&, void*)>:
_Z16flashProgHandlerR3strR7CharDevPv():
   11318:	b570      	push	{r4, r5, r6, lr}
   1131a:	f5ad 7d0a 	sub.w	sp, sp, #552	; 0x228
   1131e:	4605      	mov	r5, r0
   11320:	460c      	mov	r4, r1
   11322:	f006 fead 	bl	18080 <str::getLen() const>
   11326:	280b      	cmp	r0, #11
   11328:	dd03      	ble.n	11332 <flashProgHandler(str&, CharDev&, void*)+0x1a>
   1132a:	4620      	mov	r0, r4
   1132c:	4920      	ldr	r1, [pc, #128]	; (113b0 <flashProgHandler(str&, CharDev&, void*)+0x98>)
   1132e:	220c      	movs	r2, #12
   11330:	e037      	b.n	113a2 <flashProgHandler(str&, CharDev&, void*)+0x8a>
   11332:	4628      	mov	r0, r5
   11334:	f007 f837 	bl	183a6 <str::operator()() const>
   11338:	2201      	movs	r2, #1
   1133a:	4601      	mov	r1, r0
   1133c:	a801      	add	r0, sp, #4
   1133e:	f004 ffb9 	bl	162b4 <f_open>
   11342:	4606      	mov	r6, r0
   11344:	bb38      	cbnz	r0, 11396 <flashProgHandler(str&, CharDev&, void*)+0x7e>
   11346:	a801      	add	r0, sp, #4
   11348:	f005 fa25 	bl	16796 <f_close>
   1134c:	4628      	mov	r0, r5
   1134e:	f007 f82a 	bl	183a6 <str::operator()() const>
   11352:	4918      	ldr	r1, [pc, #96]	; (113b4 <flashProgHandler(str&, CharDev&, void*)+0x9c>)
   11354:	4602      	mov	r2, r0
   11356:	9b04      	ldr	r3, [sp, #16]
   11358:	4620      	mov	r0, r4
   1135a:	f007 fe93 	bl	19084 <CharDev::printf(char const*, ...)>
   1135e:	6823      	ldr	r3, [r4, #0]
   11360:	4620      	mov	r0, r4
   11362:	689b      	ldr	r3, [r3, #8]
   11364:	4798      	blx	r3
   11366:	200a      	movs	r0, #10
   11368:	f008 ffe6 	bl	1a338 <vTaskDelay>
   1136c:	f009 fae6 	bl	1a93c <ulPortSetInterruptMask>
   11370:	4628      	mov	r0, r5
   11372:	f007 f818 	bl	183a6 <str::operator()() const>
   11376:	4602      	mov	r2, r0
   11378:	4b0f      	ldr	r3, [pc, #60]	; (113b8 <flashProgHandler(str&, CharDev&, void*)+0xa0>)
   1137a:	6800      	ldr	r0, [r0, #0]
   1137c:	6851      	ldr	r1, [r2, #4]
   1137e:	c303      	stmia	r3!, {r0, r1}
   11380:	6890      	ldr	r0, [r2, #8]
   11382:	4a0e      	ldr	r2, [pc, #56]	; (113bc <flashProgHandler(str&, CharDev&, void*)+0xa4>)
   11384:	6018      	str	r0, [r3, #0]
   11386:	f843 2c0c 	str.w	r2, [r3, #-12]
   1138a:	f04f 4380 	mov.w	r3, #1073741824	; 0x40000000
   1138e:	22aa      	movs	r2, #170	; 0xaa
   11390:	721a      	strb	r2, [r3, #8]
   11392:	701e      	strb	r6, [r3, #0]
   11394:	e007      	b.n	113a6 <flashProgHandler(str&, CharDev&, void*)+0x8e>
   11396:	4628      	mov	r0, r5
   11398:	f007 f805 	bl	183a6 <str::operator()() const>
   1139c:	4602      	mov	r2, r0
   1139e:	4620      	mov	r0, r4
   113a0:	4907      	ldr	r1, [pc, #28]	; (113c0 <flashProgHandler(str&, CharDev&, void*)+0xa8>)
   113a2:	f007 fe6f 	bl	19084 <CharDev::printf(char const*, ...)>
   113a6:	2001      	movs	r0, #1
   113a8:	f50d 7d0a 	add.w	sp, sp, #552	; 0x228
   113ac:	bd70      	pop	{r4, r5, r6, pc}
   113ae:	bf00      	nop
   113b0:	00023835 	.word	0x00023835
   113b4:	0002385c 	.word	0x0002385c
   113b8:	40024048 	.word	0x40024048
   113bc:	deadd00d 	.word	0xdeadd00d
   113c0:	000238a3 	.word	0x000238a3

000113c4 <getFileHandler(str&, CharDev&, void*)>:
_Z14getFileHandlerR3strR7CharDevPv():
   113c4:	b5f0      	push	{r4, r5, r6, r7, lr}
   113c6:	4c40      	ldr	r4, [pc, #256]	; (114c8 <getFileHandler(str&, CharDev&, void*)+0x104>)
   113c8:	b0a5      	sub	sp, #148	; 0x94
   113ca:	6823      	ldr	r3, [r4, #0]
   113cc:	4606      	mov	r6, r0
   113ce:	07db      	lsls	r3, r3, #31
   113d0:	460d      	mov	r5, r1
   113d2:	d40c      	bmi.n	113ee <getFileHandler(str&, CharDev&, void*)+0x2a>
   113d4:	4620      	mov	r0, r4
   113d6:	f009 ffab 	bl	1b330 <__cxa_guard_acquire>
   113da:	b140      	cbz	r0, 113ee <getFileHandler(str&, CharDev&, void*)+0x2a>
   113dc:	f44f 6080 	mov.w	r0, #1024	; 0x400
   113e0:	f00b fc6a 	bl	1ccb8 <malloc>
   113e4:	4b39      	ldr	r3, [pc, #228]	; (114cc <getFileHandler(str&, CharDev&, void*)+0x108>)
   113e6:	6018      	str	r0, [r3, #0]
   113e8:	4620      	mov	r0, r4
   113ea:	f009 ffad 	bl	1b348 <__cxa_guard_release>
   113ee:	4630      	mov	r0, r6
   113f0:	4937      	ldr	r1, [pc, #220]	; (114d0 <getFileHandler(str&, CharDev&, void*)+0x10c>)
   113f2:	f006 fefd 	bl	181f0 <str::beginsWithIgnoreCase(char const*) const>
   113f6:	4607      	mov	r7, r0
   113f8:	4604      	mov	r4, r0
   113fa:	b310      	cbz	r0, 11442 <getFileHandler(str&, CharDev&, void*)+0x7e>
   113fc:	2100      	movs	r1, #0
   113fe:	2280      	movs	r2, #128	; 0x80
   11400:	a804      	add	r0, sp, #16
   11402:	f00b fcad 	bl	1cd60 <memset>
   11406:	2300      	movs	r3, #0
   11408:	9302      	str	r3, [sp, #8]
   1140a:	9303      	str	r3, [sp, #12]
   1140c:	ab03      	add	r3, sp, #12
   1140e:	9300      	str	r3, [sp, #0]
   11410:	4930      	ldr	r1, [pc, #192]	; (114d4 <getFileHandler(str&, CharDev&, void*)+0x110>)
   11412:	aa04      	add	r2, sp, #16
   11414:	ab02      	add	r3, sp, #8
   11416:	4630      	mov	r0, r6
   11418:	f006 fe3b 	bl	18092 <str::scanf(char const*, ...)>
   1141c:	4a2b      	ldr	r2, [pc, #172]	; (114cc <getFileHandler(str&, CharDev&, void*)+0x108>)
   1141e:	9b02      	ldr	r3, [sp, #8]
   11420:	6811      	ldr	r1, [r2, #0]
   11422:	a804      	add	r0, sp, #16
   11424:	9a03      	ldr	r2, [sp, #12]
   11426:	b913      	cbnz	r3, 1142e <getFileHandler(str&, CharDev&, void*)+0x6a>
   11428:	f002 ffc4 	bl	143b4 <Storage::write(char const*, void*, unsigned int, unsigned int)>
   1142c:	e001      	b.n	11432 <getFileHandler(str&, CharDev&, void*)+0x6e>
   1142e:	f002 ffe4 	bl	143fa <Storage::append(char const*, void const*, unsigned int, unsigned int)>
   11432:	4603      	mov	r3, r0
   11434:	4a28      	ldr	r2, [pc, #160]	; (114d8 <getFileHandler(str&, CharDev&, void*)+0x114>)
   11436:	4929      	ldr	r1, [pc, #164]	; (114dc <getFileHandler(str&, CharDev&, void*)+0x118>)
   11438:	4628      	mov	r0, r5
   1143a:	2b00      	cmp	r3, #0
   1143c:	bf18      	it	ne
   1143e:	4611      	movne	r1, r2
   11440:	e037      	b.n	114b2 <getFileHandler(str&, CharDev&, void*)+0xee>
   11442:	4630      	mov	r0, r6
   11444:	4926      	ldr	r1, [pc, #152]	; (114e0 <getFileHandler(str&, CharDev&, void*)+0x11c>)
   11446:	f006 fed3 	bl	181f0 <str::beginsWithIgnoreCase(char const*) const>
   1144a:	4607      	mov	r7, r0
   1144c:	2800      	cmp	r0, #0
   1144e:	d038      	beq.n	114c2 <getFileHandler(str&, CharDev&, void*)+0xfe>
   11450:	4630      	mov	r0, r6
   11452:	ab04      	add	r3, sp, #16
   11454:	4923      	ldr	r1, [pc, #140]	; (114e4 <getFileHandler(str&, CharDev&, void*)+0x120>)
   11456:	aa03      	add	r2, sp, #12
   11458:	9403      	str	r4, [sp, #12]
   1145a:	9404      	str	r4, [sp, #16]
   1145c:	f88d 4008 	strb.w	r4, [sp, #8]
   11460:	f006 fe17 	bl	18092 <str::scanf(char const*, ...)>
   11464:	9e03      	ldr	r6, [sp, #12]
   11466:	9b04      	ldr	r3, [sp, #16]
   11468:	4433      	add	r3, r6
   1146a:	f5b3 6f80 	cmp.w	r3, #1024	; 0x400
   1146e:	dd0d      	ble.n	1148c <getFileHandler(str&, CharDev&, void*)+0xc8>
   11470:	4628      	mov	r0, r5
   11472:	491d      	ldr	r1, [pc, #116]	; (114e8 <getFileHandler(str&, CharDev&, void*)+0x124>)
   11474:	f44f 6280 	mov.w	r2, #1024	; 0x400
   11478:	e021      	b.n	114be <getFileHandler(str&, CharDev&, void*)+0xfa>
   1147a:	4b14      	ldr	r3, [pc, #80]	; (114cc <getFileHandler(str&, CharDev&, void*)+0x108>)
   1147c:	f89d 2008 	ldrb.w	r2, [sp, #8]
   11480:	681b      	ldr	r3, [r3, #0]
   11482:	559a      	strb	r2, [r3, r6]
   11484:	f89d 3008 	ldrb.w	r3, [sp, #8]
   11488:	3601      	adds	r6, #1
   1148a:	441c      	add	r4, r3
   1148c:	9b03      	ldr	r3, [sp, #12]
   1148e:	9a04      	ldr	r2, [sp, #16]
   11490:	1af3      	subs	r3, r6, r3
   11492:	4293      	cmp	r3, r2
   11494:	da10      	bge.n	114b8 <getFileHandler(str&, CharDev&, void*)+0xf4>
   11496:	f5b6 6f80 	cmp.w	r6, #1024	; 0x400
   1149a:	da0d      	bge.n	114b8 <getFileHandler(str&, CharDev&, void*)+0xf4>
   1149c:	682b      	ldr	r3, [r5, #0]
   1149e:	4628      	mov	r0, r5
   114a0:	681b      	ldr	r3, [r3, #0]
   114a2:	a902      	add	r1, sp, #8
   114a4:	f44f 62fa 	mov.w	r2, #2000	; 0x7d0
   114a8:	4798      	blx	r3
   114aa:	2800      	cmp	r0, #0
   114ac:	d1e5      	bne.n	1147a <getFileHandler(str&, CharDev&, void*)+0xb6>
   114ae:	4628      	mov	r0, r5
   114b0:	490e      	ldr	r1, [pc, #56]	; (114ec <getFileHandler(str&, CharDev&, void*)+0x128>)
   114b2:	f007 fde7 	bl	19084 <CharDev::printf(char const*, ...)>
   114b6:	e004      	b.n	114c2 <getFileHandler(str&, CharDev&, void*)+0xfe>
   114b8:	4628      	mov	r0, r5
   114ba:	4622      	mov	r2, r4
   114bc:	490c      	ldr	r1, [pc, #48]	; (114f0 <getFileHandler(str&, CharDev&, void*)+0x12c>)
   114be:	f007 fde1 	bl	19084 <CharDev::printf(char const*, ...)>
   114c2:	4638      	mov	r0, r7
   114c4:	b025      	add	sp, #148	; 0x94
   114c6:	bdf0      	pop	{r4, r5, r6, r7, pc}
   114c8:	2007c1fc 	.word	0x2007c1fc
   114cc:	2007c1f8 	.word	0x2007c1f8
   114d0:	000238ce 	.word	0x000238ce
   114d4:	000238d5 	.word	0x000238d5
   114d8:	000238bc 	.word	0x000238bc
   114dc:	000238b8 	.word	0x000238b8
   114e0:	000238e5 	.word	0x000238e5
   114e4:	000238ec 	.word	0x000238ec
   114e8:	000238f6 	.word	0x000238f6
   114ec:	0002391a 	.word	0x0002391a
   114f0:	0002392a 	.word	0x0002392a

000114f4 <wirelessHandlerPrintStats(CharDev&, mesh_stats_t*, unsigned char)>:
_ZL25wirelessHandlerPrintStatsR7CharDevP12mesh_stats_th():
   114f4:	b530      	push	{r4, r5, lr}
   114f6:	460c      	mov	r4, r1
   114f8:	4605      	mov	r5, r0
   114fa:	b087      	sub	sp, #28
   114fc:	490a      	ldr	r1, [pc, #40]	; (11528 <wirelessHandlerPrintStats(CharDev&, mesh_stats_t*, unsigned char)+0x34>)
   114fe:	f007 fdc1 	bl	19084 <CharDev::printf(char const*, ...)>
   11502:	7aa1      	ldrb	r1, [r4, #10]
   11504:	8862      	ldrh	r2, [r4, #2]
   11506:	9100      	str	r1, [sp, #0]
   11508:	7ae1      	ldrb	r1, [r4, #11]
   1150a:	8823      	ldrh	r3, [r4, #0]
   1150c:	9101      	str	r1, [sp, #4]
   1150e:	88e1      	ldrh	r1, [r4, #6]
   11510:	4628      	mov	r0, r5
   11512:	9102      	str	r1, [sp, #8]
   11514:	8921      	ldrh	r1, [r4, #8]
   11516:	9103      	str	r1, [sp, #12]
   11518:	88a1      	ldrh	r1, [r4, #4]
   1151a:	9104      	str	r1, [sp, #16]
   1151c:	4903      	ldr	r1, [pc, #12]	; (1152c <wirelessHandlerPrintStats(CharDev&, mesh_stats_t*, unsigned char)+0x38>)
   1151e:	f007 fdb1 	bl	19084 <CharDev::printf(char const*, ...)>
   11522:	b007      	add	sp, #28
   11524:	bd30      	pop	{r4, r5, pc}
   11526:	bf00      	nop
   11528:	0002393b 	.word	0x0002393b
   1152c:	00023971 	.word	0x00023971

00011530 <wsStatsHandler(str&, CharDev&, void*)>:
_ZL14wsStatsHandlerR3strR7CharDevPv():
   11530:	b51f      	push	{r0, r1, r2, r3, r4, lr}
   11532:	a801      	add	r0, sp, #4
   11534:	460c      	mov	r4, r1
   11536:	f002 f979 	bl	1382c <mesh_get_stats>
   1153a:	f001 fe63 	bl	13204 <mesh_get_node_address>
   1153e:	a901      	add	r1, sp, #4
   11540:	4602      	mov	r2, r0
   11542:	4620      	mov	r0, r4
   11544:	f7ff ffd6 	bl	114f4 <wirelessHandlerPrintStats(CharDev&, mesh_stats_t*, unsigned char)>
   11548:	2001      	movs	r0, #1
   1154a:	b004      	add	sp, #16
   1154c:	bd10      	pop	{r4, pc}
	...

00011550 <wsTxHandler(str&, CharDev&, void*)>:
_ZL11wsTxHandlerR3strR7CharDevPv():
   11550:	e92d 41f0 	stmdb	sp!, {r4, r5, r6, r7, r8, lr}
   11554:	b08c      	sub	sp, #48	; 0x30
   11556:	ab03      	add	r3, sp, #12
   11558:	2400      	movs	r4, #0
   1155a:	9300      	str	r3, [sp, #0]
   1155c:	460e      	mov	r6, r1
   1155e:	4615      	mov	r5, r2
   11560:	493a      	ldr	r1, [pc, #232]	; (1164c <wsTxHandler(str&, CharDev&, void*)+0xfc>)
   11562:	2202      	movs	r2, #2
   11564:	ab02      	add	r3, sp, #8
   11566:	9402      	str	r4, [sp, #8]
   11568:	9403      	str	r4, [sp, #12]
   1156a:	f006 fda0 	bl	180ae <str::tokenize(char const*, int, ...)>
   1156e:	42a0      	cmp	r0, r4
   11570:	dd39      	ble.n	115e6 <wsTxHandler(str&, CharDev&, void*)+0x96>
   11572:	9802      	ldr	r0, [sp, #8]
   11574:	f00b f995 	bl	1c8a2 <atoi>
   11578:	fa5f f880 	uxtb.w	r8, r0
   1157c:	9803      	ldr	r0, [sp, #12]
   1157e:	b118      	cbz	r0, 11588 <wsTxHandler(str&, CharDev&, void*)+0x38>
   11580:	f00d f8b3 	bl	1e6ea <strlen>
   11584:	b2c4      	uxtb	r4, r0
   11586:	e000      	b.n	1158a <wsTxHandler(str&, CharDev&, void*)+0x3a>
   11588:	4604      	mov	r4, r0
   1158a:	a804      	add	r0, sp, #16
   1158c:	2100      	movs	r1, #0
   1158e:	f002 fcd5 	bl	13f3c <wireless_get_rx_pkt>
   11592:	b130      	cbz	r0, 115a2 <wsTxHandler(str&, CharDev&, void*)+0x52>
   11594:	4630      	mov	r0, r6
   11596:	492e      	ldr	r1, [pc, #184]	; (11650 <wsTxHandler(str&, CharDev&, void*)+0x100>)
   11598:	f04f 32ff 	mov.w	r2, #4294967295
   1159c:	f007 fd3c 	bl	19018 <CharDev::putline(char const*, unsigned int)>
   115a0:	e7f3      	b.n	1158a <wsTxHandler(str&, CharDev&, void*)+0x3a>
   115a2:	3500      	adds	r5, #0
   115a4:	bf18      	it	ne
   115a6:	2501      	movne	r5, #1
   115a8:	2302      	movs	r3, #2
   115aa:	9300      	str	r3, [sp, #0]
   115ac:	4640      	mov	r0, r8
   115ae:	4629      	mov	r1, r5
   115b0:	9a03      	ldr	r2, [sp, #12]
   115b2:	4623      	mov	r3, r4
   115b4:	f001 ff5c 	bl	13470 <mesh_send>
   115b8:	4607      	mov	r7, r0
   115ba:	b938      	cbnz	r0, 115cc <wsTxHandler(str&, CharDev&, void*)+0x7c>
   115bc:	4630      	mov	r0, r6
   115be:	4925      	ldr	r1, [pc, #148]	; (11654 <wsTxHandler(str&, CharDev&, void*)+0x104>)
   115c0:	f04f 32ff 	mov.w	r2, #4294967295
   115c4:	f007 fd28 	bl	19018 <CharDev::putline(char const*, unsigned int)>
   115c8:	2701      	movs	r7, #1
   115ca:	e03b      	b.n	11644 <wsTxHandler(str&, CharDev&, void*)+0xf4>
   115cc:	2d00      	cmp	r5, #0
   115ce:	d039      	beq.n	11644 <wsTxHandler(str&, CharDev&, void*)+0xf4>
   115d0:	a804      	add	r0, sp, #16
   115d2:	f44f 717a 	mov.w	r1, #1000	; 0x3e8
   115d6:	f002 fcbb 	bl	13f50 <wireless_get_ack_pkt>
   115da:	b370      	cbz	r0, 1163a <wsTxHandler(str&, CharDev&, void*)+0xea>
   115dc:	f89d 3010 	ldrb.w	r3, [sp, #16]
   115e0:	4543      	cmp	r3, r8
   115e2:	d12a      	bne.n	1163a <wsTxHandler(str&, CharDev&, void*)+0xea>
   115e4:	e001      	b.n	115ea <wsTxHandler(str&, CharDev&, void*)+0x9a>
   115e6:	4627      	mov	r7, r4
   115e8:	e02c      	b.n	11644 <wsTxHandler(str&, CharDev&, void*)+0xf4>
   115ea:	f89d 3017 	ldrb.w	r3, [sp, #23]
   115ee:	2b0c      	cmp	r3, #12
   115f0:	d104      	bne.n	115fc <wsTxHandler(str&, CharDev&, void*)+0xac>
   115f2:	4630      	mov	r0, r6
   115f4:	a906      	add	r1, sp, #24
   115f6:	4642      	mov	r2, r8
   115f8:	f7ff ff7c 	bl	114f4 <wirelessHandlerPrintStats(CharDev&, mesh_stats_t*, unsigned char)>
   115fc:	4630      	mov	r0, r6
   115fe:	b9b4      	cbnz	r4, 1162e <wsTxHandler(str&, CharDev&, void*)+0xde>
   11600:	4915      	ldr	r1, [pc, #84]	; (11658 <wsTxHandler(str&, CharDev&, void*)+0x108>)
   11602:	f007 fd3f 	bl	19084 <CharDev::printf(char const*, ...)>
   11606:	f89d 3017 	ldrb.w	r3, [sp, #23]
   1160a:	429c      	cmp	r4, r3
   1160c:	da0a      	bge.n	11624 <wsTxHandler(str&, CharDev&, void*)+0xd4>
   1160e:	6833      	ldr	r3, [r6, #0]
   11610:	aa04      	add	r2, sp, #16
   11612:	4422      	add	r2, r4
   11614:	7a11      	ldrb	r1, [r2, #8]
   11616:	685b      	ldr	r3, [r3, #4]
   11618:	4630      	mov	r0, r6
   1161a:	f04f 32ff 	mov.w	r2, #4294967295
   1161e:	4798      	blx	r3
   11620:	3401      	adds	r4, #1
   11622:	e7f0      	b.n	11606 <wsTxHandler(str&, CharDev&, void*)+0xb6>
   11624:	4630      	mov	r0, r6
   11626:	490d      	ldr	r1, [pc, #52]	; (1165c <wsTxHandler(str&, CharDev&, void*)+0x10c>)
   11628:	f007 fd2c 	bl	19084 <CharDev::printf(char const*, ...)>
   1162c:	e00a      	b.n	11644 <wsTxHandler(str&, CharDev&, void*)+0xf4>
   1162e:	490c      	ldr	r1, [pc, #48]	; (11660 <wsTxHandler(str&, CharDev&, void*)+0x110>)
   11630:	f04f 32ff 	mov.w	r2, #4294967295
   11634:	f007 fcf0 	bl	19018 <CharDev::putline(char const*, unsigned int)>
   11638:	e004      	b.n	11644 <wsTxHandler(str&, CharDev&, void*)+0xf4>
   1163a:	4630      	mov	r0, r6
   1163c:	4909      	ldr	r1, [pc, #36]	; (11664 <wsTxHandler(str&, CharDev&, void*)+0x114>)
   1163e:	9a02      	ldr	r2, [sp, #8]
   11640:	f007 fd20 	bl	19084 <CharDev::printf(char const*, ...)>
   11644:	4638      	mov	r0, r7
   11646:	b00c      	add	sp, #48	; 0x30
   11648:	e8bd 81f0 	ldmia.w	sp!, {r4, r5, r6, r7, r8, pc}
   1164c:	00024332 	.word	0x00024332
   11650:	0002398f 	.word	0x0002398f
   11654:	000239b1 	.word	0x000239b1
   11658:	000239d9 	.word	0x000239d9
   1165c:	00024024 	.word	0x00024024
   11660:	000239ed 	.word	0x000239ed
   11664:	00023a0a 	.word	0x00023a0a

00011668 <wsAddrHandler(str&, CharDev&, void*)>:
_ZL13wsAddrHandlerR3strR7CharDevPv():
   11668:	b538      	push	{r3, r4, r5, lr}
   1166a:	460d      	mov	r5, r1
   1166c:	f006 fe9d 	bl	183aa <str::operator int() const>
   11670:	4604      	mov	r4, r0
   11672:	b2c0      	uxtb	r0, r0
   11674:	f001 fdba 	bl	131ec <mesh_set_node_address>
   11678:	4a05      	ldr	r2, [pc, #20]	; (11690 <wsAddrHandler(str&, CharDev&, void*)+0x28>)
   1167a:	4b06      	ldr	r3, [pc, #24]	; (11694 <wsAddrHandler(str&, CharDev&, void*)+0x2c>)
   1167c:	4906      	ldr	r1, [pc, #24]	; (11698 <wsAddrHandler(str&, CharDev&, void*)+0x30>)
   1167e:	2800      	cmp	r0, #0
   11680:	bf08      	it	eq
   11682:	4613      	moveq	r3, r2
   11684:	4628      	mov	r0, r5
   11686:	4622      	mov	r2, r4
   11688:	f007 fcfc 	bl	19084 <CharDev::printf(char const*, ...)>
   1168c:	2001      	movs	r0, #1
   1168e:	bd38      	pop	{r3, r4, r5, pc}
   11690:	00023a30 	.word	0x00023a30
   11694:	00023515 	.word	0x00023515
   11698:	00023a37 	.word	0x00023a37

0001169c <wsRteHandler(str&, CharDev&, void*)>:
_Z12wsRteHandlerR3strR7CharDevPv():
   1169c:	b537      	push	{r0, r1, r2, r4, r5, lr}
   1169e:	460c      	mov	r4, r1
   116a0:	f001 ff28 	bl	134f4 <mesh_get_num_routing_entries>
   116a4:	4605      	mov	r5, r0
   116a6:	4916      	ldr	r1, [pc, #88]	; (11700 <wsRteHandler(str&, CharDev&, void*)+0x64>)
   116a8:	4620      	mov	r0, r4
   116aa:	f007 fceb 	bl	19084 <CharDev::printf(char const*, ...)>
   116ae:	4915      	ldr	r1, [pc, #84]	; (11704 <wsRteHandler(str&, CharDev&, void*)+0x68>)
   116b0:	4620      	mov	r0, r4
   116b2:	462a      	mov	r2, r5
   116b4:	f007 fce6 	bl	19084 <CharDev::printf(char const*, ...)>
   116b8:	4620      	mov	r0, r4
   116ba:	4911      	ldr	r1, [pc, #68]	; (11700 <wsRteHandler(str&, CharDev&, void*)+0x64>)
   116bc:	f007 fce2 	bl	19084 <CharDev::printf(char const*, ...)>
   116c0:	b1d5      	cbz	r5, 116f8 <wsRteHandler(str&, CharDev&, void*)+0x5c>
   116c2:	4911      	ldr	r1, [pc, #68]	; (11708 <wsRteHandler(str&, CharDev&, void*)+0x6c>)
   116c4:	4620      	mov	r0, r4
   116c6:	f007 fcdd 	bl	19084 <CharDev::printf(char const*, ...)>
   116ca:	4620      	mov	r0, r4
   116cc:	490c      	ldr	r1, [pc, #48]	; (11700 <wsRteHandler(str&, CharDev&, void*)+0x64>)
   116ce:	f007 fcd9 	bl	19084 <CharDev::printf(char const*, ...)>
   116d2:	2500      	movs	r5, #0
   116d4:	b2e8      	uxtb	r0, r5
   116d6:	f001 fef7 	bl	134c8 <mesh_get_routing_entry>
   116da:	3501      	adds	r5, #1
   116dc:	b140      	cbz	r0, 116f0 <wsRteHandler(str&, CharDev&, void*)+0x54>
   116de:	7881      	ldrb	r1, [r0, #2]
   116e0:	7802      	ldrb	r2, [r0, #0]
   116e2:	7843      	ldrb	r3, [r0, #1]
   116e4:	9100      	str	r1, [sp, #0]
   116e6:	4620      	mov	r0, r4
   116e8:	4908      	ldr	r1, [pc, #32]	; (1170c <wsRteHandler(str&, CharDev&, void*)+0x70>)
   116ea:	f007 fccb 	bl	19084 <CharDev::printf(char const*, ...)>
   116ee:	e7f1      	b.n	116d4 <wsRteHandler(str&, CharDev&, void*)+0x38>
   116f0:	4620      	mov	r0, r4
   116f2:	4903      	ldr	r1, [pc, #12]	; (11700 <wsRteHandler(str&, CharDev&, void*)+0x64>)
   116f4:	f007 fcc6 	bl	19084 <CharDev::printf(char const*, ...)>
   116f8:	2001      	movs	r0, #1
   116fa:	b003      	add	sp, #12
   116fc:	bd30      	pop	{r4, r5, pc}
   116fe:	bf00      	nop
   11700:	00023a4e 	.word	0x00023a4e
   11704:	00023a69 	.word	0x00023a69
   11708:	00023a83 	.word	0x00023a83
   1170c:	00023a9e 	.word	0x00023a9e

00011710 <wsRxHandler(str&, CharDev&, void*)>:
_ZL11wsRxHandlerR3strR7CharDevPv():
   11710:	b530      	push	{r4, r5, lr}
   11712:	b08b      	sub	sp, #44	; 0x2c
   11714:	aa0a      	add	r2, sp, #40	; 0x28
   11716:	f44f 737a 	mov.w	r3, #1000	; 0x3e8
   1171a:	460c      	mov	r4, r1
   1171c:	f842 3d24 	str.w	r3, [r2, #-36]!
   11720:	4917      	ldr	r1, [pc, #92]	; (11780 <wsRxHandler(str&, CharDev&, void*)+0x70>)
   11722:	f006 fcb6 	bl	18092 <str::scanf(char const*, ...)>
   11726:	2500      	movs	r5, #0
   11728:	a802      	add	r0, sp, #8
   1172a:	9901      	ldr	r1, [sp, #4]
   1172c:	f002 fc06 	bl	13f3c <wireless_get_rx_pkt>
   11730:	b1d8      	cbz	r0, 1176a <wsRxHandler(str&, CharDev&, void*)+0x5a>
   11732:	4620      	mov	r0, r4
   11734:	4913      	ldr	r1, [pc, #76]	; (11784 <wsRxHandler(str&, CharDev&, void*)+0x74>)
   11736:	f89d 2008 	ldrb.w	r2, [sp, #8]
   1173a:	f007 fca3 	bl	19084 <CharDev::printf(char const*, ...)>
   1173e:	2500      	movs	r5, #0
   11740:	f89d 300f 	ldrb.w	r3, [sp, #15]
   11744:	429d      	cmp	r5, r3
   11746:	da0a      	bge.n	1175e <wsRxHandler(str&, CharDev&, void*)+0x4e>
   11748:	6823      	ldr	r3, [r4, #0]
   1174a:	aa02      	add	r2, sp, #8
   1174c:	442a      	add	r2, r5
   1174e:	7a11      	ldrb	r1, [r2, #8]
   11750:	685b      	ldr	r3, [r3, #4]
   11752:	4620      	mov	r0, r4
   11754:	f04f 32ff 	mov.w	r2, #4294967295
   11758:	4798      	blx	r3
   1175a:	3501      	adds	r5, #1
   1175c:	e7f0      	b.n	11740 <wsRxHandler(str&, CharDev&, void*)+0x30>
   1175e:	4620      	mov	r0, r4
   11760:	4909      	ldr	r1, [pc, #36]	; (11788 <wsRxHandler(str&, CharDev&, void*)+0x78>)
   11762:	f007 fc8f 	bl	19084 <CharDev::printf(char const*, ...)>
   11766:	2501      	movs	r5, #1
   11768:	e7de      	b.n	11728 <wsRxHandler(str&, CharDev&, void*)+0x18>
   1176a:	b92d      	cbnz	r5, 11778 <wsRxHandler(str&, CharDev&, void*)+0x68>
   1176c:	4620      	mov	r0, r4
   1176e:	4907      	ldr	r1, [pc, #28]	; (1178c <wsRxHandler(str&, CharDev&, void*)+0x7c>)
   11770:	f04f 32ff 	mov.w	r2, #4294967295
   11774:	f007 fc50 	bl	19018 <CharDev::putline(char const*, unsigned int)>
   11778:	2001      	movs	r0, #1
   1177a:	b00b      	add	sp, #44	; 0x2c
   1177c:	bd30      	pop	{r4, r5, pc}
   1177e:	bf00      	nop
   11780:	000238f3 	.word	0x000238f3
   11784:	00023ab9 	.word	0x00023ab9
   11788:	000238a1 	.word	0x000238a1
   1178c:	00023ad0 	.word	0x00023ad0

00011790 <wirelessHandler(str&, CharDev&, void*)>:
_Z15wirelessHandlerR3strR7CharDevPv():
   11790:	e92d 47f3 	stmdb	sp!, {r0, r1, r4, r5, r6, r7, r8, r9, sl, lr}
   11794:	4c3c      	ldr	r4, [pc, #240]	; (11888 <wirelessHandler(str&, CharDev&, void*)+0xf8>)
   11796:	4607      	mov	r7, r0
   11798:	6826      	ldr	r6, [r4, #0]
   1179a:	4689      	mov	r9, r1
   1179c:	2e00      	cmp	r6, #0
   1179e:	d162      	bne.n	11866 <wirelessHandler(str&, CharDev&, void*)+0xd6>
   117a0:	2024      	movs	r0, #36	; 0x24
   117a2:	f7fe fd69 	bl	10278 <operator new(unsigned int)>
   117a6:	2304      	movs	r3, #4
   117a8:	4605      	mov	r5, r0
   117aa:	e880 0048 	stmia.w	r0, {r3, r6}
   117ae:	6086      	str	r6, [r0, #8]
   117b0:	60c6      	str	r6, [r0, #12]
   117b2:	2120      	movs	r1, #32
   117b4:	4630      	mov	r0, r6
   117b6:	f00c fd27 	bl	1e208 <realloc>
   117ba:	68ae      	ldr	r6, [r5, #8]
   117bc:	60e8      	str	r0, [r5, #12]
   117be:	ea4f 0886 	mov.w	r8, r6, lsl #2
   117c2:	2e07      	cmp	r6, #7
   117c4:	d80e      	bhi.n	117e4 <wirelessHandler(str&, CharDev&, void*)+0x54>
   117c6:	2010      	movs	r0, #16
   117c8:	f7fe fd56 	bl	10278 <operator new(unsigned int)>
   117cc:	4682      	mov	sl, r0
   117ce:	2100      	movs	r1, #0
   117d0:	2210      	movs	r2, #16
   117d2:	f00b fac5 	bl	1cd60 <memset>
   117d6:	68eb      	ldr	r3, [r5, #12]
   117d8:	3601      	adds	r6, #1
   117da:	f843 a008 	str.w	sl, [r3, r8]
   117de:	f108 0804 	add.w	r8, r8, #4
   117e2:	e7ee      	b.n	117c2 <wirelessHandler(str&, CharDev&, void*)+0x32>
   117e4:	2600      	movs	r6, #0
   117e6:	2308      	movs	r3, #8
   117e8:	f04f 0801 	mov.w	r8, #1
   117ec:	606b      	str	r3, [r5, #4]
   117ee:	f885 8020 	strb.w	r8, [r5, #32]
   117f2:	4628      	mov	r0, r5
   117f4:	4925      	ldr	r1, [pc, #148]	; (1188c <wirelessHandler(str&, CharDev&, void*)+0xfc>)
   117f6:	4a26      	ldr	r2, [pc, #152]	; (11890 <wirelessHandler(str&, CharDev&, void*)+0x100>)
   117f8:	4b26      	ldr	r3, [pc, #152]	; (11894 <wirelessHandler(str&, CharDev&, void*)+0x104>)
   117fa:	9600      	str	r6, [sp, #0]
   117fc:	6025      	str	r5, [r4, #0]
   117fe:	f005 fd7f 	bl	17300 <CommandProcessor::addHandler(bool (*)(str&, CharDev&, void*), char const*, char const*, void*)>
   11802:	6820      	ldr	r0, [r4, #0]
   11804:	4924      	ldr	r1, [pc, #144]	; (11898 <wirelessHandler(str&, CharDev&, void*)+0x108>)
   11806:	4a25      	ldr	r2, [pc, #148]	; (1189c <wirelessHandler(str&, CharDev&, void*)+0x10c>)
   11808:	4b25      	ldr	r3, [pc, #148]	; (118a0 <wirelessHandler(str&, CharDev&, void*)+0x110>)
   1180a:	9600      	str	r6, [sp, #0]
   1180c:	f005 fd78 	bl	17300 <CommandProcessor::addHandler(bool (*)(str&, CharDev&, void*), char const*, char const*, void*)>
   11810:	6820      	ldr	r0, [r4, #0]
   11812:	4924      	ldr	r1, [pc, #144]	; (118a4 <wirelessHandler(str&, CharDev&, void*)+0x114>)
   11814:	4a24      	ldr	r2, [pc, #144]	; (118a8 <wirelessHandler(str&, CharDev&, void*)+0x118>)
   11816:	4b25      	ldr	r3, [pc, #148]	; (118ac <wirelessHandler(str&, CharDev&, void*)+0x11c>)
   11818:	9600      	str	r6, [sp, #0]
   1181a:	f005 fd71 	bl	17300 <CommandProcessor::addHandler(bool (*)(str&, CharDev&, void*), char const*, char const*, void*)>
   1181e:	6820      	ldr	r0, [r4, #0]
   11820:	4923      	ldr	r1, [pc, #140]	; (118b0 <wirelessHandler(str&, CharDev&, void*)+0x120>)
   11822:	4a24      	ldr	r2, [pc, #144]	; (118b4 <wirelessHandler(str&, CharDev&, void*)+0x124>)
   11824:	4b24      	ldr	r3, [pc, #144]	; (118b8 <wirelessHandler(str&, CharDev&, void*)+0x128>)
   11826:	9600      	str	r6, [sp, #0]
   11828:	f005 fd6a 	bl	17300 <CommandProcessor::addHandler(bool (*)(str&, CharDev&, void*), char const*, char const*, void*)>
   1182c:	6820      	ldr	r0, [r4, #0]
   1182e:	4923      	ldr	r1, [pc, #140]	; (118bc <wirelessHandler(str&, CharDev&, void*)+0x12c>)
   11830:	4a23      	ldr	r2, [pc, #140]	; (118c0 <wirelessHandler(str&, CharDev&, void*)+0x130>)
   11832:	4b24      	ldr	r3, [pc, #144]	; (118c4 <wirelessHandler(str&, CharDev&, void*)+0x134>)
   11834:	9600      	str	r6, [sp, #0]
   11836:	f005 fd63 	bl	17300 <CommandProcessor::addHandler(bool (*)(str&, CharDev&, void*), char const*, char const*, void*)>
   1183a:	6820      	ldr	r0, [r4, #0]
   1183c:	4922      	ldr	r1, [pc, #136]	; (118c8 <wirelessHandler(str&, CharDev&, void*)+0x138>)
   1183e:	4a23      	ldr	r2, [pc, #140]	; (118cc <wirelessHandler(str&, CharDev&, void*)+0x13c>)
   11840:	4b23      	ldr	r3, [pc, #140]	; (118d0 <wirelessHandler(str&, CharDev&, void*)+0x140>)
   11842:	f8cd 8000 	str.w	r8, [sp]
   11846:	f005 fd5b 	bl	17300 <CommandProcessor::addHandler(bool (*)(str&, CharDev&, void*), char const*, char const*, void*)>
   1184a:	6820      	ldr	r0, [r4, #0]
   1184c:	491e      	ldr	r1, [pc, #120]	; (118c8 <wirelessHandler(str&, CharDev&, void*)+0x138>)
   1184e:	4a21      	ldr	r2, [pc, #132]	; (118d4 <wirelessHandler(str&, CharDev&, void*)+0x144>)
   11850:	4b21      	ldr	r3, [pc, #132]	; (118d8 <wirelessHandler(str&, CharDev&, void*)+0x148>)
   11852:	9600      	str	r6, [sp, #0]
   11854:	f005 fd54 	bl	17300 <CommandProcessor::addHandler(bool (*)(str&, CharDev&, void*), char const*, char const*, void*)>
   11858:	9600      	str	r6, [sp, #0]
   1185a:	6820      	ldr	r0, [r4, #0]
   1185c:	491f      	ldr	r1, [pc, #124]	; (118dc <wirelessHandler(str&, CharDev&, void*)+0x14c>)
   1185e:	4a20      	ldr	r2, [pc, #128]	; (118e0 <wirelessHandler(str&, CharDev&, void*)+0x150>)
   11860:	4b20      	ldr	r3, [pc, #128]	; (118e4 <wirelessHandler(str&, CharDev&, void*)+0x154>)
   11862:	f005 fd4d 	bl	17300 <CommandProcessor::addHandler(bool (*)(str&, CharDev&, void*), char const*, char const*, void*)>
   11866:	4638      	mov	r0, r7
   11868:	491f      	ldr	r1, [pc, #124]	; (118e8 <wirelessHandler(str&, CharDev&, void*)+0x158>)
   1186a:	f006 fd9a 	bl	183a2 <str::operator==(char const*) const>
   1186e:	b118      	cbz	r0, 11878 <wirelessHandler(str&, CharDev&, void*)+0xe8>
   11870:	4638      	mov	r0, r7
   11872:	491e      	ldr	r1, [pc, #120]	; (118ec <wirelessHandler(str&, CharDev&, void*)+0x15c>)
   11874:	f006 fe4f 	bl	18516 <str::operator=(char const*)>
   11878:	4639      	mov	r1, r7
   1187a:	464a      	mov	r2, r9
   1187c:	6820      	ldr	r0, [r4, #0]
   1187e:	b002      	add	sp, #8
   11880:	e8bd 47f0 	ldmia.w	sp!, {r4, r5, r6, r7, r8, r9, sl, lr}
   11884:	f005 be1e 	b.w	174c4 <CommandProcessor::handleCommand(str&, CharDev&)>
   11888:	2007c204 	.word	0x2007c204
   1188c:	00011b3d 	.word	0x00011b3d
   11890:	00023ae1 	.word	0x00023ae1
   11894:	00023ae8 	.word	0x00023ae8
   11898:	00011911 	.word	0x00011911
   1189c:	00023b22 	.word	0x00023b22
   118a0:	00023b2b 	.word	0x00023b2b
   118a4:	00011711 	.word	0x00011711
   118a8:	00023b7f 	.word	0x00023b7f
   118ac:	00023b82 	.word	0x00023b82
   118b0:	00011669 	.word	0x00011669
   118b4:	00024104 	.word	0x00024104
   118b8:	00023ba5 	.word	0x00023ba5
   118bc:	0001169d 	.word	0x0001169d
   118c0:	00023beb 	.word	0x00023beb
   118c4:	00023bcf 	.word	0x00023bcf
   118c8:	00011551 	.word	0x00011551
   118cc:	00023c34 	.word	0x00023c34
   118d0:	00023bf2 	.word	0x00023bf2
   118d4:	00023c33 	.word	0x00023c33
   118d8:	00023c38 	.word	0x00023c38
   118dc:	00011531 	.word	0x00011531
   118e0:	00023c78 	.word	0x00023c78
   118e4:	00023c5d 	.word	0x00023c5d
   118e8:	000238a2 	.word	0x000238a2
   118ec:	00023c7e 	.word	0x00023c7e

000118f0 <SingletonTemplate<NordicStream>::getInstance()>:
_ZN17SingletonTemplateI12NordicStreamE11getInstanceEv():
   118f0:	b538      	push	{r3, r4, r5, lr}
   118f2:	4c06      	ldr	r4, [pc, #24]	; (1190c <SingletonTemplate<NordicStream>::getInstance()+0x1c>)
   118f4:	6823      	ldr	r3, [r4, #0]
   118f6:	b933      	cbnz	r3, 11906 <SingletonTemplate<NordicStream>::getInstance()+0x16>
   118f8:	2058      	movs	r0, #88	; 0x58
   118fa:	f7fe fcbd 	bl	10278 <operator new(unsigned int)>
   118fe:	4605      	mov	r5, r0
   11900:	f007 f8f0 	bl	18ae4 <NordicStream::NordicStream()>
   11904:	6025      	str	r5, [r4, #0]
   11906:	6820      	ldr	r0, [r4, #0]
   11908:	bd38      	pop	{r3, r4, r5, pc}
   1190a:	bf00      	nop
   1190c:	2007c200 	.word	0x2007c200

00011910 <wsFileTxHandler(str&, CharDev&, void*)>:
_ZL15wsFileTxHandlerR3strR7CharDevPv():
   11910:	e92d 4ff0 	stmdb	sp!, {r4, r5, r6, r7, r8, r9, sl, fp, lr}
   11914:	4604      	mov	r4, r0
   11916:	f2ad 5ddc 	subw	sp, sp, #1500	; 0x5dc
   1191a:	2280      	movs	r2, #128	; 0x80
   1191c:	f10d 09b4 	add.w	r9, sp, #180	; 0xb4
   11920:	4688      	mov	r8, r1
   11922:	a80d      	add	r0, sp, #52	; 0x34
   11924:	2100      	movs	r1, #0
   11926:	f00b fa1b 	bl	1cd60 <memset>
   1192a:	2100      	movs	r1, #0
   1192c:	2280      	movs	r2, #128	; 0x80
   1192e:	4648      	mov	r0, r9
   11930:	f00b fa16 	bl	1cd60 <memset>
   11934:	ae06      	add	r6, sp, #24
   11936:	2300      	movs	r3, #0
   11938:	6033      	str	r3, [r6, #0]
   1193a:	4620      	mov	r0, r4
   1193c:	9600      	str	r6, [sp, #0]
   1193e:	4975      	ldr	r1, [pc, #468]	; (11b14 <wsFileTxHandler(str&, CharDev&, void*)+0x204>)
   11940:	aa0d      	add	r2, sp, #52	; 0x34
   11942:	464b      	mov	r3, r9
   11944:	f006 fba5 	bl	18092 <str::scanf(char const*, ...)>
   11948:	2803      	cmp	r0, #3
   1194a:	d001      	beq.n	11950 <wsFileTxHandler(str&, CharDev&, void*)+0x40>
   1194c:	2000      	movs	r0, #0
   1194e:	e0dd      	b.n	11b0c <wsFileTxHandler(str&, CharDev&, void*)+0x1fc>
   11950:	a8ed      	add	r0, sp, #948	; 0x3b4
   11952:	a90d      	add	r1, sp, #52	; 0x34
   11954:	2201      	movs	r2, #1
   11956:	f004 fcad 	bl	162b4 <f_open>
   1195a:	4605      	mov	r5, r0
   1195c:	2800      	cmp	r0, #0
   1195e:	d1f5      	bne.n	1194c <wsFileTxHandler(str&, CharDev&, void*)+0x3c>
   11960:	f7ff ffc6 	bl	118f0 <SingletonTemplate<NordicStream>::getInstance()>
   11964:	6833      	ldr	r3, [r6, #0]
   11966:	a94d      	add	r1, sp, #308	; 0x134
   11968:	f880 3053 	strb.w	r3, [r0, #83]	; 0x53
   1196c:	2280      	movs	r2, #128	; 0x80
   1196e:	4604      	mov	r4, r0
   11970:	a808      	add	r0, sp, #32
   11972:	f88d 5017 	strb.w	r5, [sp, #23]
   11976:	9507      	str	r5, [sp, #28]
   11978:	f006 fb5a 	bl	18030 <str::str(char*, int)>
   1197c:	f8cd 9000 	str.w	r9, [sp]
   11980:	4640      	mov	r0, r8
   11982:	4965      	ldr	r1, [pc, #404]	; (11b18 <wsFileTxHandler(str&, CharDev&, void*)+0x208>)
   11984:	aa0d      	add	r2, sp, #52	; 0x34
   11986:	6833      	ldr	r3, [r6, #0]
   11988:	f007 fb7c 	bl	19084 <CharDev::printf(char const*, ...)>
   1198c:	462f      	mov	r7, r5
   1198e:	a8ed      	add	r0, sp, #948	; 0x3b4
   11990:	a96d      	add	r1, sp, #436	; 0x1b4
   11992:	f44f 7200 	mov.w	r2, #512	; 0x200
   11996:	ab07      	add	r3, sp, #28
   11998:	f004 fd25 	bl	163e6 <f_read>
   1199c:	b138      	cbz	r0, 119ae <wsFileTxHandler(str&, CharDev&, void*)+0x9e>
   1199e:	a8ed      	add	r0, sp, #948	; 0x3b4
   119a0:	f004 fef9 	bl	16796 <f_close>
   119a4:	a808      	add	r0, sp, #32
   119a6:	f006 fb59 	bl	1805c <str::~str()>
   119aa:	2001      	movs	r0, #1
   119ac:	e0ae      	b.n	11b0c <wsFileTxHandler(str&, CharDev&, void*)+0x1fc>
   119ae:	9b07      	ldr	r3, [sp, #28]
   119b0:	2b00      	cmp	r3, #0
   119b2:	d0f4      	beq.n	1199e <wsFileTxHandler(str&, CharDev&, void*)+0x8e>
   119b4:	1c6e      	adds	r6, r5, #1
   119b6:	4959      	ldr	r1, [pc, #356]	; (11b1c <wsFileTxHandler(str&, CharDev&, void*)+0x20c>)
   119b8:	9a07      	ldr	r2, [sp, #28]
   119ba:	4620      	mov	r0, r4
   119bc:	f007 fb62 	bl	19084 <CharDev::printf(char const*, ...)>
   119c0:	6823      	ldr	r3, [r4, #0]
   119c2:	4620      	mov	r0, r4
   119c4:	689b      	ldr	r3, [r3, #8]
   119c6:	4798      	blx	r3
   119c8:	ab6d      	add	r3, sp, #436	; 0x1b4
   119ca:	469b      	mov	fp, r3
   119cc:	1e75      	subs	r5, r6, #1
   119ce:	f04f 0a00 	mov.w	sl, #0
   119d2:	9907      	ldr	r1, [sp, #28]
   119d4:	ebc3 020b 	rsb	r2, r3, fp
   119d8:	428a      	cmp	r2, r1
   119da:	6822      	ldr	r2, [r4, #0]
   119dc:	d20f      	bcs.n	119fe <wsFileTxHandler(str&, CharDev&, void*)+0xee>
   119de:	9303      	str	r3, [sp, #12]
   119e0:	f8cd b008 	str.w	fp, [sp, #8]
   119e4:	f8d2 c004 	ldr.w	ip, [r2, #4]
   119e8:	4620      	mov	r0, r4
   119ea:	f04f 32ff 	mov.w	r2, #4294967295
   119ee:	f81b 1b01 	ldrb.w	r1, [fp], #1
   119f2:	47e0      	blx	ip
   119f4:	9b02      	ldr	r3, [sp, #8]
   119f6:	781a      	ldrb	r2, [r3, #0]
   119f8:	9b03      	ldr	r3, [sp, #12]
   119fa:	4492      	add	sl, r2
   119fc:	e7e9      	b.n	119d2 <wsFileTxHandler(str&, CharDev&, void*)+0xc2>
   119fe:	6893      	ldr	r3, [r2, #8]
   11a00:	4620      	mov	r0, r4
   11a02:	4798      	blx	r3
   11a04:	a808      	add	r0, sp, #32
   11a06:	f006 fcce 	bl	183a6 <str::operator()() const>
   11a0a:	4683      	mov	fp, r0
   11a0c:	a808      	add	r0, sp, #32
   11a0e:	f006 fb3a 	bl	18086 <str::getCapacity() const>
   11a12:	f44f 737a 	mov.w	r3, #1000	; 0x3e8
   11a16:	4602      	mov	r2, r0
   11a18:	4659      	mov	r1, fp
   11a1a:	4620      	mov	r0, r4
   11a1c:	f007 fb0a 	bl	19034 <CharDev::gets(char*, int, unsigned int)>
   11a20:	2101      	movs	r1, #1
   11a22:	2220      	movs	r2, #32
   11a24:	a808      	add	r0, sp, #32
   11a26:	f006 fc6a 	bl	182fe <str::eraseFirstWords(int, char)>
   11a2a:	a808      	add	r0, sp, #32
   11a2c:	f006 fcbd 	bl	183aa <str::operator int() const>
   11a30:	4550      	cmp	r0, sl
   11a32:	d020      	beq.n	11a76 <wsFileTxHandler(str&, CharDev&, void*)+0x166>
   11a34:	a808      	add	r0, sp, #32
   11a36:	f006 fcb8 	bl	183aa <str::operator int() const>
   11a3a:	4939      	ldr	r1, [pc, #228]	; (11b20 <wsFileTxHandler(str&, CharDev&, void*)+0x210>)
   11a3c:	4603      	mov	r3, r0
   11a3e:	4652      	mov	r2, sl
   11a40:	4640      	mov	r0, r8
   11a42:	f007 fb1f 	bl	19084 <CharDev::printf(char const*, ...)>
   11a46:	4620      	mov	r0, r4
   11a48:	4936      	ldr	r1, [pc, #216]	; (11b24 <wsFileTxHandler(str&, CharDev&, void*)+0x214>)
   11a4a:	f007 fb1b 	bl	19084 <CharDev::printf(char const*, ...)>
   11a4e:	6823      	ldr	r3, [r4, #0]
   11a50:	4620      	mov	r0, r4
   11a52:	689b      	ldr	r3, [r3, #8]
   11a54:	4798      	blx	r3
   11a56:	6823      	ldr	r3, [r4, #0]
   11a58:	4620      	mov	r0, r4
   11a5a:	681b      	ldr	r3, [r3, #0]
   11a5c:	f10d 0117 	add.w	r1, sp, #23
   11a60:	f44f 727a 	mov.w	r2, #1000	; 0x3e8
   11a64:	4798      	blx	r3
   11a66:	2800      	cmp	r0, #0
   11a68:	d1f5      	bne.n	11a56 <wsFileTxHandler(str&, CharDev&, void*)+0x146>
   11a6a:	2e02      	cmp	r6, #2
   11a6c:	f106 0301 	add.w	r3, r6, #1
   11a70:	d895      	bhi.n	1199e <wsFileTxHandler(str&, CharDev&, void*)+0x8e>
   11a72:	461e      	mov	r6, r3
   11a74:	e79f      	b.n	119b6 <wsFileTxHandler(str&, CharDev&, void*)+0xa6>
   11a76:	9b07      	ldr	r3, [sp, #28]
   11a78:	492b      	ldr	r1, [pc, #172]	; (11b28 <wsFileTxHandler(str&, CharDev&, void*)+0x218>)
   11a7a:	464a      	mov	r2, r9
   11a7c:	9300      	str	r3, [sp, #0]
   11a7e:	4620      	mov	r0, r4
   11a80:	463b      	mov	r3, r7
   11a82:	f007 faff 	bl	19084 <CharDev::printf(char const*, ...)>
   11a86:	6823      	ldr	r3, [r4, #0]
   11a88:	4620      	mov	r0, r4
   11a8a:	689b      	ldr	r3, [r3, #8]
   11a8c:	4798      	blx	r3
   11a8e:	a808      	add	r0, sp, #32
   11a90:	f006 fc89 	bl	183a6 <str::operator()() const>
   11a94:	4682      	mov	sl, r0
   11a96:	a808      	add	r0, sp, #32
   11a98:	f006 faf5 	bl	18086 <str::getCapacity() const>
   11a9c:	4651      	mov	r1, sl
   11a9e:	4602      	mov	r2, r0
   11aa0:	f44f 737a 	mov.w	r3, #1000	; 0x3e8
   11aa4:	4620      	mov	r0, r4
   11aa6:	f007 fac5 	bl	19034 <CharDev::gets(char*, int, unsigned int)>
   11aaa:	a808      	add	r0, sp, #32
   11aac:	491f      	ldr	r1, [pc, #124]	; (11b2c <wsFileTxHandler(str&, CharDev&, void*)+0x21c>)
   11aae:	f006 fb76 	bl	1819e <str::containsIgnoreCase(char const*) const>
   11ab2:	b9d0      	cbnz	r0, 11aea <wsFileTxHandler(str&, CharDev&, void*)+0x1da>
   11ab4:	a808      	add	r0, sp, #32
   11ab6:	f006 fc76 	bl	183a6 <str::operator()() const>
   11aba:	491d      	ldr	r1, [pc, #116]	; (11b30 <wsFileTxHandler(str&, CharDev&, void*)+0x220>)
   11abc:	4602      	mov	r2, r0
   11abe:	4640      	mov	r0, r8
   11ac0:	f007 fae0 	bl	19084 <CharDev::printf(char const*, ...)>
   11ac4:	4620      	mov	r0, r4
   11ac6:	4917      	ldr	r1, [pc, #92]	; (11b24 <wsFileTxHandler(str&, CharDev&, void*)+0x214>)
   11ac8:	f007 fadc 	bl	19084 <CharDev::printf(char const*, ...)>
   11acc:	6823      	ldr	r3, [r4, #0]
   11ace:	4620      	mov	r0, r4
   11ad0:	689b      	ldr	r3, [r3, #8]
   11ad2:	4798      	blx	r3
   11ad4:	6823      	ldr	r3, [r4, #0]
   11ad6:	4620      	mov	r0, r4
   11ad8:	681b      	ldr	r3, [r3, #0]
   11ada:	f10d 0117 	add.w	r1, sp, #23
   11ade:	f44f 727a 	mov.w	r2, #1000	; 0x3e8
   11ae2:	4798      	blx	r3
   11ae4:	2800      	cmp	r0, #0
   11ae6:	d1f5      	bne.n	11ad4 <wsFileTxHandler(str&, CharDev&, void*)+0x1c4>
   11ae8:	e7bf      	b.n	11a6a <wsFileTxHandler(str&, CharDev&, void*)+0x15a>
   11aea:	a808      	add	r0, sp, #32
   11aec:	4911      	ldr	r1, [pc, #68]	; (11b34 <wsFileTxHandler(str&, CharDev&, void*)+0x224>)
   11aee:	f006 fd12 	bl	18516 <str::operator=(char const*)>
   11af2:	9b07      	ldr	r3, [sp, #28]
   11af4:	4640      	mov	r0, r8
   11af6:	441f      	add	r7, r3
   11af8:	490f      	ldr	r1, [pc, #60]	; (11b38 <wsFileTxHandler(str&, CharDev&, void*)+0x228>)
   11afa:	463a      	mov	r2, r7
   11afc:	9bf0      	ldr	r3, [sp, #960]	; 0x3c0
   11afe:	f007 fac1 	bl	19084 <CharDev::printf(char const*, ...)>
   11b02:	2d00      	cmp	r5, #0
   11b04:	f43f af43 	beq.w	1198e <wsFileTxHandler(str&, CharDev&, void*)+0x7e>
   11b08:	3d01      	subs	r5, #1
   11b0a:	e740      	b.n	1198e <wsFileTxHandler(str&, CharDev&, void*)+0x7e>
   11b0c:	f20d 5ddc 	addw	sp, sp, #1500	; 0x5dc
   11b10:	e8bd 8ff0 	ldmia.w	sp!, {r4, r5, r6, r7, r8, r9, sl, fp, pc}
   11b14:	00023c83 	.word	0x00023c83
   11b18:	00023c92 	.word	0x00023c92
   11b1c:	00023ca9 	.word	0x00023ca9
   11b20:	00023cbb 	.word	0x00023cbb
   11b24:	000238a1 	.word	0x000238a1
   11b28:	00023ce2 	.word	0x00023ce2
   11b2c:	00023cf8 	.word	0x00023cf8
   11b30:	00023cfb 	.word	0x00023cfb
   11b34:	000238a2 	.word	0x000238a2
   11b38:	00023d33 	.word	0x00023d33

00011b3c <wsStreamHandler(str&, CharDev&, void*)>:
_ZL15wsStreamHandlerR3strR7CharDevPv():
   11b3c:	e92d 41f0 	stmdb	sp!, {r4, r5, r6, r7, r8, lr}
   11b40:	4607      	mov	r7, r0
   11b42:	b086      	sub	sp, #24
   11b44:	aa06      	add	r2, sp, #24
   11b46:	2400      	movs	r4, #0
   11b48:	f842 4d0c 	str.w	r4, [r2, #-12]!
   11b4c:	460e      	mov	r6, r1
   11b4e:	493c      	ldr	r1, [pc, #240]	; (11c40 <wsStreamHandler(str&, CharDev&, void*)+0x104>)
   11b50:	f006 fa9f 	bl	18092 <str::scanf(char const*, ...)>
   11b54:	4638      	mov	r0, r7
   11b56:	2101      	movs	r1, #1
   11b58:	2220      	movs	r2, #32
   11b5a:	f006 fbd0 	bl	182fe <str::eraseFirstWords(int, char)>
   11b5e:	9b03      	ldr	r3, [sp, #12]
   11b60:	2b00      	cmp	r3, #0
   11b62:	d063      	beq.n	11c2c <wsStreamHandler(str&, CharDev&, void*)+0xf0>
   11b64:	4638      	mov	r0, r7
   11b66:	f006 fa8b 	bl	18080 <str::getLen() const>
   11b6a:	2800      	cmp	r0, #0
   11b6c:	d05e      	beq.n	11c2c <wsStreamHandler(str&, CharDev&, void*)+0xf0>
   11b6e:	f7ff febf 	bl	118f0 <SingletonTemplate<NordicStream>::getInstance()>
   11b72:	4605      	mov	r5, r0
   11b74:	f88d 400b 	strb.w	r4, [sp, #11]
   11b78:	682b      	ldr	r3, [r5, #0]
   11b7a:	4628      	mov	r0, r5
   11b7c:	681b      	ldr	r3, [r3, #0]
   11b7e:	f10d 010b 	add.w	r1, sp, #11
   11b82:	2205      	movs	r2, #5
   11b84:	4798      	blx	r3
   11b86:	4604      	mov	r4, r0
   11b88:	2800      	cmp	r0, #0
   11b8a:	d1f5      	bne.n	11b78 <wsStreamHandler(str&, CharDev&, void*)+0x3c>
   11b8c:	9b03      	ldr	r3, [sp, #12]
   11b8e:	4638      	mov	r0, r7
   11b90:	f885 3053 	strb.w	r3, [r5, #83]	; 0x53
   11b94:	f006 fc07 	bl	183a6 <str::operator()() const>
   11b98:	4627      	mov	r7, r4
   11b9a:	4601      	mov	r1, r0
   11b9c:	f04f 32ff 	mov.w	r2, #4294967295
   11ba0:	4628      	mov	r0, r5
   11ba2:	f007 fa39 	bl	19018 <CharDev::putline(char const*, unsigned int)>
   11ba6:	682b      	ldr	r3, [r5, #0]
   11ba8:	4628      	mov	r0, r5
   11baa:	689b      	ldr	r3, [r3, #8]
   11bac:	4798      	blx	r3
   11bae:	4b25      	ldr	r3, [pc, #148]	; (11c44 <wsStreamHandler(str&, CharDev&, void*)+0x108>)
   11bb0:	9405      	str	r4, [sp, #20]
   11bb2:	6818      	ldr	r0, [r3, #0]
   11bb4:	9004      	str	r0, [sp, #16]
   11bb6:	682b      	ldr	r3, [r5, #0]
   11bb8:	4628      	mov	r0, r5
   11bba:	681b      	ldr	r3, [r3, #0]
   11bbc:	f10d 010b 	add.w	r1, sp, #11
   11bc0:	f44f 727a 	mov.w	r2, #1000	; 0x3e8
   11bc4:	4798      	blx	r3
   11bc6:	b178      	cbz	r0, 11be8 <wsStreamHandler(str&, CharDev&, void*)+0xac>
   11bc8:	f10d 0115 	add.w	r1, sp, #21
   11bcc:	2203      	movs	r2, #3
   11bce:	a805      	add	r0, sp, #20
   11bd0:	f00b f8ab 	bl	1cd2a <memmove>
   11bd4:	f89d 800b 	ldrb.w	r8, [sp, #11]
   11bd8:	a805      	add	r0, sp, #20
   11bda:	a904      	add	r1, sp, #16
   11bdc:	2204      	movs	r2, #4
   11bde:	f88d 8017 	strb.w	r8, [sp, #23]
   11be2:	f00b f887 	bl	1ccf4 <memcmp>
   11be6:	b938      	cbnz	r0, 11bf8 <wsStreamHandler(str&, CharDev&, void*)+0xbc>
   11be8:	2218      	movs	r2, #24
   11bea:	fbb7 f3f2 	udiv	r3, r7, r2
   11bee:	fb02 7213 	mls	r2, r2, r3, r7
   11bf2:	b162      	cbz	r2, 11c0e <wsStreamHandler(str&, CharDev&, void*)+0xd2>
   11bf4:	3301      	adds	r3, #1
   11bf6:	e00a      	b.n	11c0e <wsStreamHandler(str&, CharDev&, void*)+0xd2>
   11bf8:	6833      	ldr	r3, [r6, #0]
   11bfa:	4630      	mov	r0, r6
   11bfc:	685b      	ldr	r3, [r3, #4]
   11bfe:	4641      	mov	r1, r8
   11c00:	2201      	movs	r2, #1
   11c02:	3701      	adds	r7, #1
   11c04:	4798      	blx	r3
   11c06:	2800      	cmp	r0, #0
   11c08:	d1d5      	bne.n	11bb6 <wsStreamHandler(str&, CharDev&, void*)+0x7a>
   11c0a:	3401      	adds	r4, #1
   11c0c:	e7d3      	b.n	11bb6 <wsStreamHandler(str&, CharDev&, void*)+0x7a>
   11c0e:	4630      	mov	r0, r6
   11c10:	490d      	ldr	r1, [pc, #52]	; (11c48 <wsStreamHandler(str&, CharDev&, void*)+0x10c>)
   11c12:	463a      	mov	r2, r7
   11c14:	f007 fa36 	bl	19084 <CharDev::printf(char const*, ...)>
   11c18:	b174      	cbz	r4, 11c38 <wsStreamHandler(str&, CharDev&, void*)+0xfc>
   11c1a:	2361      	movs	r3, #97	; 0x61
   11c1c:	9300      	str	r3, [sp, #0]
   11c1e:	4630      	mov	r0, r6
   11c20:	490a      	ldr	r1, [pc, #40]	; (11c4c <wsStreamHandler(str&, CharDev&, void*)+0x110>)
   11c22:	4622      	mov	r2, r4
   11c24:	4b0a      	ldr	r3, [pc, #40]	; (11c50 <wsStreamHandler(str&, CharDev&, void*)+0x114>)
   11c26:	f007 fa2d 	bl	19084 <CharDev::printf(char const*, ...)>
   11c2a:	e005      	b.n	11c38 <wsStreamHandler(str&, CharDev&, void*)+0xfc>
   11c2c:	4630      	mov	r0, r6
